{
  "address": "0x5FbDB2315678afecb367f032d93F642f64180aa3",
  "abi": [
    {
      "inputs": [],
      "stateMutability": "nonpayable",
      "type": "constructor"
    },
    {
      "inputs": [],
      "name": "NFTMARKETPLACE__Ended",
      "type": "error"
    },
    {
      "inputs": [],
      "name": "NFTMARKETPLACE__NotMEMBER",
      "type": "error"
    },
    {
      "inputs": [],
      "name": "NFTMARKETPLACE__NotStarted",
      "type": "error"
    },
    {
      "inputs": [],
      "name": "NFTMARKETPLACE__OnlyForBidding",
      "type": "error"
    },
    {
      "inputs": [],
      "name": "NFTMARKETPLACE__OnlyOwner",
      "type": "error"
    },
    {
      "inputs": [],
      "name": "NFTMARKETPLACE__UnAuthorized",
      "type": "error"
    },
    {
      "inputs": [],
      "name": "NFTMARKETPLACE__lowListingPrice",
      "type": "error"
    },
    {
      "inputs": [],
      "name": "NFTMARKETPLACE__lowPrice",
      "type": "error"
    },
    {
      "anonymous": false,
      "inputs": [
        {
          "indexed": true,
          "internalType": "address",
          "name": "owner",
          "type": "address"
        },
        {
          "indexed": true,
          "internalType": "address",
          "name": "approved",
          "type": "address"
        },
        {
          "indexed": true,
          "internalType": "uint256",
          "name": "tokenId",
          "type": "uint256"
        }
      ],
      "name": "Approval",
      "type": "event"
    },
    {
      "anonymous": false,
      "inputs": [
        {
          "indexed": true,
          "internalType": "address",
          "name": "owner",
          "type": "address"
        },
        {
          "indexed": true,
          "internalType": "address",
          "name": "operator",
          "type": "address"
        },
        {
          "indexed": false,
          "internalType": "bool",
          "name": "approved",
          "type": "bool"
        }
      ],
      "name": "ApprovalForAll",
      "type": "event"
    },
    {
      "anonymous": false,
      "inputs": [
        {
          "indexed": false,
          "internalType": "uint256",
          "name": "_fromTokenId",
          "type": "uint256"
        },
        {
          "indexed": false,
          "internalType": "uint256",
          "name": "_toTokenId",
          "type": "uint256"
        }
      ],
      "name": "BatchMetadataUpdate",
      "type": "event"
    },
    {
      "anonymous": false,
      "inputs": [
        {
          "indexed": true,
          "internalType": "address",
          "name": "sender",
          "type": "address"
        },
        {
          "indexed": false,
          "internalType": "uint256",
          "name": "amount",
          "type": "uint256"
        }
      ],
      "name": "Bid",
      "type": "event"
    },
    {
      "anonymous": false,
      "inputs": [
        {
          "indexed": true,
          "internalType": "address",
          "name": "buyer",
          "type": "address"
        },
        {
          "indexed": false,
          "internalType": "uint256",
          "name": "tokenId",
          "type": "uint256"
        },
        {
          "indexed": false,
          "internalType": "uint256",
          "name": "price",
          "type": "uint256"
        }
      ],
      "name": "CreateMarketSale",
      "type": "event"
    },
    {
      "anonymous": false,
      "inputs": [
        {
          "indexed": true,
          "internalType": "address",
          "name": "highestBidder",
          "type": "address"
        },
        {
          "indexed": false,
          "internalType": "uint256",
          "name": "highestBid",
          "type": "uint256"
        }
      ],
      "name": "End",
      "type": "event"
    },
    {
      "anonymous": false,
      "inputs": [
        {
          "indexed": false,
          "internalType": "uint256",
          "name": "_tokenId",
          "type": "uint256"
        }
      ],
      "name": "MetadataUpdate",
      "type": "event"
    },
    {
      "anonymous": false,
      "inputs": [
        {
          "indexed": true,
          "internalType": "address",
          "name": "seller",
          "type": "address"
        },
        {
          "indexed": false,
          "internalType": "uint256",
          "name": "price",
          "type": "uint256"
        }
      ],
      "name": "Resell",
      "type": "event"
    },
    {
      "anonymous": false,
      "inputs": [
        {
          "indexed": true,
          "internalType": "address",
          "name": "from",
          "type": "address"
        },
        {
          "indexed": true,
          "internalType": "address",
          "name": "to",
          "type": "address"
        },
        {
          "indexed": true,
          "internalType": "uint256",
          "name": "tokenId",
          "type": "uint256"
        }
      ],
      "name": "Transfer",
      "type": "event"
    },
    {
      "anonymous": false,
      "inputs": [
        {
          "indexed": true,
          "internalType": "address",
          "name": "bidder",
          "type": "address"
        },
        {
          "indexed": false,
          "internalType": "uint256",
          "name": "amount",
          "type": "uint256"
        }
      ],
      "name": "WithdrawBids",
      "type": "event"
    },
    {
      "anonymous": false,
      "inputs": [
        {
          "indexed": true,
          "internalType": "uint256",
          "name": "tokenId",
          "type": "uint256"
        },
        {
          "indexed": false,
          "internalType": "address",
          "name": "seller",
          "type": "address"
        },
        {
          "indexed": false,
          "internalType": "address",
          "name": "owner",
          "type": "address"
        },
        {
          "indexed": false,
          "internalType": "uint256",
          "name": "price",
          "type": "uint256"
        },
        {
          "indexed": false,
          "internalType": "bool",
          "name": "bidding",
          "type": "bool"
        },
        {
          "indexed": false,
          "internalType": "bool",
          "name": "sold",
          "type": "bool"
        }
      ],
      "name": "idMarketCreated",
      "type": "event"
    },
    {
      "inputs": [
        {
          "internalType": "address",
          "name": "_member",
          "type": "address"
        }
      ],
      "name": "addmember",
      "outputs": [],
      "stateMutability": "nonpayable",
      "type": "function"
    },
    {
      "inputs": [
        {
          "internalType": "address",
          "name": "to",
          "type": "address"
        },
        {
          "internalType": "uint256",
          "name": "tokenId",
          "type": "uint256"
        }
      ],
      "name": "approve",
      "outputs": [],
      "stateMutability": "nonpayable",
      "type": "function"
    },
    {
      "inputs": [
        {
          "internalType": "address",
          "name": "owner",
          "type": "address"
        }
      ],
      "name": "balanceOf",
      "outputs": [
        {
          "internalType": "uint256",
          "name": "",
          "type": "uint256"
        }
      ],
      "stateMutability": "view",
      "type": "function"
    },
    {
      "inputs": [
        {
          "internalType": "uint256",
          "name": "tokenId",
          "type": "uint256"
        }
      ],
      "name": "bid",
      "outputs": [],
      "stateMutability": "payable",
      "type": "function"
    },
    {
      "inputs": [
        {
          "internalType": "uint256",
          "name": "tokenId",
          "type": "uint256"
        }
      ],
      "name": "createMarketSale",
      "outputs": [],
      "stateMutability": "payable",
      "type": "function"
    },
    {
      "inputs": [
        {
          "internalType": "string",
          "name": "tokenUrl",
          "type": "string"
        },
        {
          "internalType": "uint256",
          "name": "price",
          "type": "uint256"
        },
        {
          "internalType": "string",
          "name": "itemType",
          "type": "string"
        },
        {
          "internalType": "bool",
          "name": "bidding",
          "type": "bool"
        },
        {
          "internalType": "string",
          "name": "_details",
          "type": "string"
        },
        {
          "internalType": "uint256",
          "name": "timestamp",
          "type": "uint256"
        }
      ],
      "name": "createToken",
      "outputs": [
        {
          "internalType": "uint256",
          "name": "",
          "type": "uint256"
        }
      ],
      "stateMutability": "payable",
      "type": "function"
    },
    {
      "inputs": [
        {
          "internalType": "uint256",
          "name": "tokenId",
          "type": "uint256"
        }
      ],
      "name": "end",
      "outputs": [],
      "stateMutability": "nonpayable",
      "type": "function"
    },
    {
      "inputs": [],
      "name": "fetchMarketItem",
      "outputs": [
        {
          "components": [
            {
              "internalType": "uint256",
              "name": "tokenId",
              "type": "uint256"
            },
            {
              "internalType": "address payable",
              "name": "seller",
              "type": "address"
            },
            {
              "internalType": "address payable",
              "name": "owner",
              "type": "address"
            },
            {
              "internalType": "uint256",
              "name": "price",
              "type": "uint256"
            },
            {
              "internalType": "string",
              "name": "itemType",
              "type": "string"
            },
            {
              "internalType": "bool",
              "name": "bidding",
              "type": "bool"
            },
            {
              "internalType": "string",
              "name": "details",
              "type": "string"
            },
            {
              "internalType": "bool",
              "name": "sold",
              "type": "bool"
            }
          ],
          "internalType": "struct NFTMARKETPLACE.MarketItem[]",
          "name": "",
          "type": "tuple[]"
        }
      ],
      "stateMutability": "view",
      "type": "function"
    },
    {
      "inputs": [],
      "name": "fetchMyNFTs",
      "outputs": [
        {
          "components": [
            {
              "internalType": "uint256",
              "name": "tokenId",
              "type": "uint256"
            },
            {
              "internalType": "address payable",
              "name": "seller",
              "type": "address"
            },
            {
              "internalType": "address payable",
              "name": "owner",
              "type": "address"
            },
            {
              "internalType": "uint256",
              "name": "price",
              "type": "uint256"
            },
            {
              "internalType": "string",
              "name": "itemType",
              "type": "string"
            },
            {
              "internalType": "bool",
              "name": "bidding",
              "type": "bool"
            },
            {
              "internalType": "string",
              "name": "details",
              "type": "string"
            },
            {
              "internalType": "bool",
              "name": "sold",
              "type": "bool"
            }
          ],
          "internalType": "struct NFTMARKETPLACE.MarketItem[]",
          "name": "",
          "type": "tuple[]"
        }
      ],
      "stateMutability": "view",
      "type": "function"
    },
    {
      "inputs": [
        {
          "internalType": "uint256",
          "name": "tokenId",
          "type": "uint256"
        }
      ],
      "name": "fetchNFTsDetails",
      "outputs": [
        {
          "components": [
            {
              "internalType": "uint256",
              "name": "tokenId",
              "type": "uint256"
            },
            {
              "internalType": "address payable",
              "name": "seller",
              "type": "address"
            },
            {
              "internalType": "address payable",
              "name": "owner",
              "type": "address"
            },
            {
              "internalType": "uint256",
              "name": "price",
              "type": "uint256"
            },
            {
              "internalType": "string",
              "name": "itemType",
              "type": "string"
            },
            {
              "internalType": "bool",
              "name": "bidding",
              "type": "bool"
            },
            {
              "internalType": "string",
              "name": "details",
              "type": "string"
            },
            {
              "internalType": "bool",
              "name": "sold",
              "type": "bool"
            }
          ],
          "internalType": "struct NFTMARKETPLACE.MarketItem",
          "name": "",
          "type": "tuple"
        },
        {
          "internalType": "string",
          "name": "",
          "type": "string"
        }
      ],
      "stateMutability": "view",
      "type": "function"
    },
    {
      "inputs": [
        {
          "internalType": "address",
          "name": "_owner",
          "type": "address"
        }
      ],
      "name": "filterNftByAdress",
      "outputs": [
        {
          "components": [
            {
              "internalType": "uint256",
              "name": "tokenId",
              "type": "uint256"
            },
            {
              "internalType": "address payable",
              "name": "seller",
              "type": "address"
            },
            {
              "internalType": "address payable",
              "name": "owner",
              "type": "address"
            },
            {
              "internalType": "uint256",
              "name": "price",
              "type": "uint256"
            },
            {
              "internalType": "string",
              "name": "itemType",
              "type": "string"
            },
            {
              "internalType": "bool",
              "name": "bidding",
              "type": "bool"
            },
            {
              "internalType": "string",
              "name": "details",
              "type": "string"
            },
            {
              "internalType": "bool",
              "name": "sold",
              "type": "bool"
            }
          ],
          "internalType": "struct NFTMARKETPLACE.MarketItem[]",
          "name": "",
          "type": "tuple[]"
        }
      ],
      "stateMutability": "view",
      "type": "function"
    },
    {
      "inputs": [
        {
          "internalType": "string",
          "name": "cat",
          "type": "string"
        }
      ],
      "name": "filterNftCat",
      "outputs": [
        {
          "components": [
            {
              "internalType": "uint256",
              "name": "tokenId",
              "type": "uint256"
            },
            {
              "internalType": "address payable",
              "name": "seller",
              "type": "address"
            },
            {
              "internalType": "address payable",
              "name": "owner",
              "type": "address"
            },
            {
              "internalType": "uint256",
              "name": "price",
              "type": "uint256"
            },
            {
              "internalType": "string",
              "name": "itemType",
              "type": "string"
            },
            {
              "internalType": "bool",
              "name": "bidding",
              "type": "bool"
            },
            {
              "internalType": "string",
              "name": "details",
              "type": "string"
            },
            {
              "internalType": "bool",
              "name": "sold",
              "type": "bool"
            }
          ],
          "internalType": "struct NFTMARKETPLACE.MarketItem[]",
          "name": "",
          "type": "tuple[]"
        }
      ],
      "stateMutability": "view",
      "type": "function"
    },
    {
      "inputs": [
        {
          "internalType": "uint256",
          "name": "tokenId",
          "type": "uint256"
        }
      ],
      "name": "getApproved",
      "outputs": [
        {
          "internalType": "address",
          "name": "",
          "type": "address"
        }
      ],
      "stateMutability": "view",
      "type": "function"
    },
    {
      "inputs": [],
      "name": "getListing",
      "outputs": [
        {
          "internalType": "uint256",
          "name": "",
          "type": "uint256"
        }
      ],
      "stateMutability": "pure",
      "type": "function"
    },
    {
      "inputs": [],
      "name": "getOwner",
      "outputs": [
        {
          "internalType": "address",
          "name": "",
          "type": "address"
        }
      ],
      "stateMutability": "view",
      "type": "function"
    },
    {
      "inputs": [
        {
          "internalType": "address",
          "name": "owner",
          "type": "address"
        },
        {
          "internalType": "address",
          "name": "operator",
          "type": "address"
        }
      ],
      "name": "isApprovedForAll",
      "outputs": [
        {
          "internalType": "bool",
          "name": "",
          "type": "bool"
        }
      ],
      "stateMutability": "view",
      "type": "function"
    },
    {
      "inputs": [],
      "name": "name",
      "outputs": [
        {
          "internalType": "string",
          "name": "",
          "type": "string"
        }
      ],
      "stateMutability": "view",
      "type": "function"
    },
    {
      "inputs": [
        {
          "internalType": "uint256",
          "name": "tokenId",
          "type": "uint256"
        }
      ],
      "name": "ownerOf",
      "outputs": [
        {
          "internalType": "address",
          "name": "",
          "type": "address"
        }
      ],
      "stateMutability": "view",
      "type": "function"
    },
    {
      "inputs": [
        {
          "internalType": "uint256",
          "name": "tokenId",
          "type": "uint256"
        },
        {
          "internalType": "uint256",
          "name": "price",
          "type": "uint256"
        }
      ],
      "name": "reSellToken",
      "outputs": [],
      "stateMutability": "payable",
      "type": "function"
    },
    {
      "inputs": [
        {
          "internalType": "uint256",
          "name": "",
          "type": "uint256"
        },
        {
          "internalType": "address",
          "name": "",
          "type": "address"
        }
      ],
      "name": "s_bids",
      "outputs": [
        {
          "internalType": "uint256",
          "name": "",
          "type": "uint256"
        }
      ],
      "stateMutability": "view",
      "type": "function"
    },
    {
      "inputs": [
        {
          "internalType": "address",
          "name": "",
          "type": "address"
        }
      ],
      "name": "s_members",
      "outputs": [
        {
          "internalType": "bool",
          "name": "",
          "type": "bool"
        }
      ],
      "stateMutability": "view",
      "type": "function"
    },
    {
      "inputs": [
        {
          "internalType": "address",
          "name": "from",
          "type": "address"
        },
        {
          "internalType": "address",
          "name": "to",
          "type": "address"
        },
        {
          "internalType": "uint256",
          "name": "tokenId",
          "type": "uint256"
        }
      ],
      "name": "safeTransferFrom",
      "outputs": [],
      "stateMutability": "nonpayable",
      "type": "function"
    },
    {
      "inputs": [
        {
          "internalType": "address",
          "name": "from",
          "type": "address"
        },
        {
          "internalType": "address",
          "name": "to",
          "type": "address"
        },
        {
          "internalType": "uint256",
          "name": "tokenId",
          "type": "uint256"
        },
        {
          "internalType": "bytes",
          "name": "data",
          "type": "bytes"
        }
      ],
      "name": "safeTransferFrom",
      "outputs": [],
      "stateMutability": "nonpayable",
      "type": "function"
    },
    {
      "inputs": [
        {
          "internalType": "address",
          "name": "operator",
          "type": "address"
        },
        {
          "internalType": "bool",
          "name": "approved",
          "type": "bool"
        }
      ],
      "name": "setApprovalForAll",
      "outputs": [],
      "stateMutability": "nonpayable",
      "type": "function"
    },
    {
      "inputs": [
        {
          "internalType": "uint256",
          "name": "tokenId",
          "type": "uint256"
        }
      ],
      "name": "startAuction",
      "outputs": [],
      "stateMutability": "nonpayable",
      "type": "function"
    },
    {
      "inputs": [
        {
          "internalType": "bytes4",
          "name": "interfaceId",
          "type": "bytes4"
        }
      ],
      "name": "supportsInterface",
      "outputs": [
        {
          "internalType": "bool",
          "name": "",
          "type": "bool"
        }
      ],
      "stateMutability": "view",
      "type": "function"
    },
    {
      "inputs": [],
      "name": "symbol",
      "outputs": [
        {
          "internalType": "string",
          "name": "",
          "type": "string"
        }
      ],
      "stateMutability": "view",
      "type": "function"
    },
    {
      "inputs": [
        {
          "internalType": "uint256",
          "name": "tokenId",
          "type": "uint256"
        }
      ],
      "name": "tokenURI",
      "outputs": [
        {
          "internalType": "string",
          "name": "",
          "type": "string"
        }
      ],
      "stateMutability": "view",
      "type": "function"
    },
    {
      "inputs": [
        {
          "internalType": "address",
          "name": "from",
          "type": "address"
        },
        {
          "internalType": "address",
          "name": "to",
          "type": "address"
        },
        {
          "internalType": "uint256",
          "name": "tokenId",
          "type": "uint256"
        }
      ],
      "name": "transferFrom",
      "outputs": [],
      "stateMutability": "nonpayable",
      "type": "function"
    },
    {
      "inputs": [
        {
          "internalType": "uint256",
          "name": "tokenId",
          "type": "uint256"
        }
      ],
      "name": "withdrawBids",
      "outputs": [],
      "stateMutability": "nonpayable",
      "type": "function"
    }
  ],
  "transactionHash": "0xaad0ee3a8fba3f4811ea460d74e5ecdbd7f041531c6e2cb80bddf239c0318aef",
  "args": [],
  "numDeployments": 1,
  "solcInputHash": "f51fed8f4a71263ecf5857ee02c428ea",
  "bytecode": "0x60a06040523480156200001157600080fd5b506040518060400160405280601081526020017f535452454554204e465420544f4b454e000000000000000000000000000000008152506040518060400160405280600781526020017f535452544e46540000000000000000000000000000000000000000000000000081525081600090816200008f919062000358565b508060019081620000a1919062000358565b5050503373ffffffffffffffffffffffffffffffffffffffff1660808173ffffffffffffffffffffffffffffffffffffffff16815250506200043f565b600081519050919050565b7f4e487b7100000000000000000000000000000000000000000000000000000000600052604160045260246000fd5b7f4e487b7100000000000000000000000000000000000000000000000000000000600052602260045260246000fd5b600060028204905060018216806200016057607f821691505b60208210810362000176576200017562000118565b5b50919050565b60008190508160005260206000209050919050565b60006020601f8301049050919050565b600082821b905092915050565b600060088302620001e07fffffffffffffffffffffffffffffffffffffffffffffffffffffffffffffffff82620001a1565b620001ec8683620001a1565b95508019841693508086168417925050509392505050565b6000819050919050565b6000819050919050565b600062000239620002336200022d8462000204565b6200020e565b62000204565b9050919050565b6000819050919050565b620002558362000218565b6200026d620002648262000240565b848454620001ae565b825550505050565b600090565b6200028462000275565b620002918184846200024a565b505050565b5b81811015620002b957620002ad6000826200027a565b60018101905062000297565b5050565b601f8211156200030857620002d2816200017c565b620002dd8462000191565b81016020851015620002ed578190505b62000305620002fc8562000191565b83018262000296565b50505b505050565b600082821c905092915050565b60006200032d600019846008026200030d565b1980831691505092915050565b60006200034883836200031a565b9150826002028217905092915050565b6200036382620000de565b67ffffffffffffffff8111156200037f576200037e620000e9565b5b6200038b825462000147565b62000398828285620002bd565b600060209050601f831160018114620003d05760008415620003bb578287015190505b620003c785826200033a565b86555062000437565b601f198416620003e0866200017c565b60005b828110156200040a57848901518255600182019150602085019450602081019050620003e3565b868310156200042a578489015162000426601f8916826200031a565b8355505b6001600288020188555050505b505050505050565b608051615f8f620004776000396000818161151401528181611a5501528181611d650152818161269001526128cd0152615f8f6000f3fe6080604052600436106101cd5760003560e01c806385535b25116100f7578063bbc80ead11610095578063e0a41cf211610064578063e0a41cf21461069b578063e985e9c5146106c6578063edb5f90514610703578063f0360f001461072c576101cd565b8063bbc80ead146105dc578063bc0e872d14610619578063be9af53614610642578063c87b56dd1461065e576101cd565b806395d89b41116100d157806395d89b4114610522578063a22cb4651461054d578063b00363ca14610576578063b88d4fde146105b3576101cd565b806385535b25146104b0578063893d20e8146104cc5780638fafd021146104f7576101cd565b806323b872dd1161016f578063454a2ab31161013e578063454a2ab3146103dd57806345b89fb1146103f95780636352211e1461043657806370a0823114610473576101cd565b806323b872dd1461031d578063330d183d14610346578063358b56441461038457806342842e0e146103b4576101cd565b8063081812fc116101ab578063081812fc14610263578063095ea7b3146102a05780630ad24528146102c9578063202e3740146102f2576101cd565b806301ffc9a7146101d2578063065de74c1461020f57806306fdde0314610238575b600080fd5b3480156101de57600080fd5b506101f960048036038101906101f491906145b7565b610769565b60405161020691906145ff565b60405180910390f35b34801561021b57600080fd5b5061023660048036038101906102319190614650565b6107ca565b005b34801561024457600080fd5b5061024d6108ee565b60405161025a919061470d565b60405180910390f35b34801561026f57600080fd5b5061028a60048036038101906102859190614650565b610980565b6040516102979190614770565b60405180910390f35b3480156102ac57600080fd5b506102c760048036038101906102c291906147b7565b6109c6565b005b3480156102d557600080fd5b506102f060048036038101906102eb9190614650565b610add565b005b3480156102fe57600080fd5b50610307610dd7565b60405161031491906149f9565b60405180910390f35b34801561032957600080fd5b50610344600480360381019061033f9190614a1b565b611203565b005b34801561035257600080fd5b5061036d60048036038101906103689190614650565b611263565b60405161037b929190614b25565b60405180910390f35b61039e60048036038101906103999190614cbd565b6114bb565b6040516103ab9190614dad565b60405180910390f35b3480156103c057600080fd5b506103db60048036038101906103d69190614a1b565b6115e2565b005b6103f760048036038101906103f29190614650565b611602565b005b34801561040557600080fd5b50610420600480360381019061041b9190614dc8565b6118a1565b60405161042d91906145ff565b60405180910390f35b34801561044257600080fd5b5061045d60048036038101906104589190614650565b6118c1565b60405161046a9190614770565b60405180910390f35b34801561047f57600080fd5b5061049a60048036038101906104959190614dc8565b611947565b6040516104a79190614dad565b60405180910390f35b6104ca60048036038101906104c59190614df5565b6119fe565b005b3480156104d857600080fd5b506104e1611d61565b6040516104ee9190614770565b60405180910390f35b34801561050357600080fd5b5061050c611d89565b60405161051991906149f9565b60405180910390f35b34801561052e57600080fd5b50610537612131565b604051610544919061470d565b60405180910390f35b34801561055957600080fd5b50610574600480360381019061056f9190614e35565b6121c3565b005b34801561058257600080fd5b5061059d60048036038101906105989190614e75565b6121d9565b6040516105aa9190614dad565b60405180910390f35b3480156105bf57600080fd5b506105da60048036038101906105d59190614f56565b6121fe565b005b3480156105e857600080fd5b5061060360048036038101906105fe9190614dc8565b612260565b60405161061091906149f9565b60405180910390f35b34801561062557600080fd5b50610640600480360381019061063b9190614dc8565b61268e565b005b61065c60048036038101906106579190614650565b61276e565b005b34801561066a57600080fd5b5061068560048036038101906106809190614650565b6129f8565b604051610692919061470d565b60405180910390f35b3480156106a757600080fd5b506106b0612b0a565b6040516106bd9190614dad565b60405180910390f35b3480156106d257600080fd5b506106ed60048036038101906106e89190614fd9565b612b2b565b6040516106fa91906145ff565b60405180910390f35b34801561070f57600080fd5b5061072a60048036038101906107259190614650565b612bbf565b005b34801561073857600080fd5b50610753600480360381019061074e9190615019565b612e01565b60405161076091906149f9565b60405180910390f35b6000634906490660e01b7bffffffffffffffffffffffffffffffffffffffffffffffffffffffff1916827bffffffffffffffffffffffffffffffffffffffffffffffffffffffff191614806107c357506107c2826131cd565b5b9050919050565b3373ffffffffffffffffffffffffffffffffffffffff16600e600083815260200190815260200160002060010160009054906101000a900473ffffffffffffffffffffffffffffffffffffffff1673ffffffffffffffffffffffffffffffffffffffff1614610865576040517f5559881a00000000000000000000000000000000000000000000000000000000815260040160405180910390fd5b600e600082815260200190815260200160002060050160009054906101000a900460ff166108bf576040517fb626467700000000000000000000000000000000000000000000000000000000815260040160405180910390fd5b60016009600083815260200190815260200160002060006101000a81548160ff02191690831515021790555050565b6060600080546108fd90615091565b80601f016020809104026020016040519081016040528092919081815260200182805461092990615091565b80156109765780601f1061094b57610100808354040283529160200191610976565b820191906000526020600020905b81548152906001019060200180831161095957829003601f168201915b5050505050905090565b600061098b826132af565b6004600083815260200190815260200160002060009054906101000a900473ffffffffffffffffffffffffffffffffffffffff169050919050565b60006109d1826118c1565b90508073ffffffffffffffffffffffffffffffffffffffff168373ffffffffffffffffffffffffffffffffffffffff1603610a41576040517f08c379a0000000000000000000000000000000000000000000000000000000008152600401610a3890615134565b60405180910390fd5b8073ffffffffffffffffffffffffffffffffffffffff16610a606132fa565b73ffffffffffffffffffffffffffffffffffffffff161480610a8f5750610a8e81610a896132fa565b612b2b565b5b610ace576040517f08c379a0000000000000000000000000000000000000000000000000000000008152600401610ac5906151c6565b60405180910390fd5b610ad88383613302565b505050565b6009600082815260200190815260200160002060009054906101000a900460ff16610b34576040517fbb237d0d00000000000000000000000000000000000000000000000000000000815260040160405180910390fd5b6008600082815260200190815260200160002060009054906101000a900460ff1615610b8c576040517f62db152f00000000000000000000000000000000000000000000000000000000815260040160405180910390fd5b6007600082815260200190815260200160002054421015610be2576040517f08c379a0000000000000000000000000000000000000000000000000000000008152600401610bd990615232565b60405180910390fd5b60016008600083815260200190815260200160002060006101000a81548160ff0219169083151502179055506000600a600083815260200190815260200160002060009054906101000a900473ffffffffffffffffffffffffffffffffffffffff1690506000600e60008481526020019081526020016000209050600073ffffffffffffffffffffffffffffffffffffffff168273ffffffffffffffffffffffffffffffffffffffff1614610d5057610cc0308260010160009054906101000a900473ffffffffffffffffffffffffffffffffffffffff16856133bb565b8060010160009054906101000a900473ffffffffffffffffffffffffffffffffffffffff1673ffffffffffffffffffffffffffffffffffffffff166108fc670de0b6b3a76400008360030154610d169190615281565b9081150290604051600060405180830381858888f19350505050158015610d41573d6000803e3d6000fd5b50610d4b836136b4565b610d80565b610d7f308260010160009054906101000a900473ffffffffffffffffffffffffffffffffffffffff16856133bb565b5b8173ffffffffffffffffffffffffffffffffffffffff167f7d7570b046e5ead3a4f3fbc9fa2445113625a1e79823776146316bafed6b8cc58260030154604051610dca9190614dad565b60405180910390a2505050565b60606000610de5600c61377c565b905060008060005b83811015610e8d573373ffffffffffffffffffffffffffffffffffffffff16600e6000600184610e1d91906152c3565b815260200190815260200160002060020160009054906101000a900473ffffffffffffffffffffffffffffffffffffffff1673ffffffffffffffffffffffffffffffffffffffff1603610e7a57600183610e7791906152c3565b92505b8080610e85906152f7565b915050610ded565b5060008267ffffffffffffffff811115610eaa57610ea9614b66565b5b604051908082528060200260200182016040528015610ee357816020015b610ed06144d6565b815260200190600190039081610ec85790505b50905060005b848110156111f8573373ffffffffffffffffffffffffffffffffffffffff16600e6000600184610f1991906152c3565b815260200190815260200160002060020160009054906101000a900473ffffffffffffffffffffffffffffffffffffffff1673ffffffffffffffffffffffffffffffffffffffff16036111e5576000600182610f7591906152c3565b90506000600e600083815260200190815260200160002090508060405180610100016040529081600082015481526020016001820160009054906101000a900473ffffffffffffffffffffffffffffffffffffffff1673ffffffffffffffffffffffffffffffffffffffff1673ffffffffffffffffffffffffffffffffffffffff1681526020016002820160009054906101000a900473ffffffffffffffffffffffffffffffffffffffff1673ffffffffffffffffffffffffffffffffffffffff1673ffffffffffffffffffffffffffffffffffffffff1681526020016003820154815260200160048201805461106b90615091565b80601f016020809104026020016040519081016040528092919081815260200182805461109790615091565b80156110e45780601f106110b9576101008083540402835291602001916110e4565b820191906000526020600020905b8154815290600101906020018083116110c757829003601f168201915b505050505081526020016005820160009054906101000a900460ff1615151515815260200160068201805461111890615091565b80601f016020809104026020016040519081016040528092919081815260200182805461114490615091565b80156111915780601f1061116657610100808354040283529160200191611191565b820191906000526020600020905b81548152906001019060200180831161117457829003601f168201915b505050505081526020016007820160009054906101000a900460ff1615151515815250508486815181106111c8576111c761533f565b5b60200260200101819052506001856111e091906152c3565b945050505b80806111f0906152f7565b915050610ee9565b508094505050505090565b61121461120e6132fa565b8261378a565b611253576040517f08c379a000000000000000000000000000000000000000000000000000000000815260040161124a906153e0565b60405180910390fd5b61125e8383836133bb565b505050565b61126b6144d6565b6060600e6000848152602001908152602001600020611289846129f8565b8160405180610100016040529081600082015481526020016001820160009054906101000a900473ffffffffffffffffffffffffffffffffffffffff1673ffffffffffffffffffffffffffffffffffffffff1673ffffffffffffffffffffffffffffffffffffffff1681526020016002820160009054906101000a900473ffffffffffffffffffffffffffffffffffffffff1673ffffffffffffffffffffffffffffffffffffffff1673ffffffffffffffffffffffffffffffffffffffff1681526020016003820154815260200160048201805461136690615091565b80601f016020809104026020016040519081016040528092919081815260200182805461139290615091565b80156113df5780601f106113b4576101008083540402835291602001916113df565b820191906000526020600020905b8154815290600101906020018083116113c257829003601f168201915b505050505081526020016005820160009054906101000a900460ff1615151515815260200160068201805461141390615091565b80601f016020809104026020016040519081016040528092919081815260200182805461143f90615091565b801561148c5780601f106114615761010080835404028352916020019161148c565b820191906000526020600020905b81548152906001019060200180831161146f57829003601f168201915b505050505081526020016007820160009054906101000a900460ff161515151581525050915091509150915091565b6000600f60003373ffffffffffffffffffffffffffffffffffffffff1673ffffffffffffffffffffffffffffffffffffffff16815260200190815260200160002060009054906101000a900460ff1615801561156357507f000000000000000000000000000000000000000000000000000000000000000073ffffffffffffffffffffffffffffffffffffffff163373ffffffffffffffffffffffffffffffffffffffff1614155b1561159a576040517f4074778a00000000000000000000000000000000000000000000000000000000815260040160405180910390fd5b6115a4600c61381f565b60006115b0600c61377c565b90506115bc3382613835565b6115c68189613a52565b6115d4818888888888613af6565b809150509695505050505050565b6115fd838383604051806020016040528060008152506121fe565b505050565b6000600e600083815260200190815260200160002090506007600083815260200190815260200160002054421115611666576040517f62db152f00000000000000000000000000000000000000000000000000000000815260040160405180910390fd5b6009600083815260200190815260200160002060009054906101000a900460ff166116bd576040517fbb237d0d00000000000000000000000000000000000000000000000000000000815260040160405180910390fd5b670de0b6b3a764000081600301546116d59190615281565b34101561170e576040517fae39271d00000000000000000000000000000000000000000000000000000000815260040160405180910390fd5b600073ffffffffffffffffffffffffffffffffffffffff16600a600084815260200190815260200160002060009054906101000a900473ffffffffffffffffffffffffffffffffffffffff1673ffffffffffffffffffffffffffffffffffffffff16146117e1578060030154600b600084815260200190815260200160002060003373ffffffffffffffffffffffffffffffffffffffff1673ffffffffffffffffffffffffffffffffffffffff16815260200190815260200160002060008282546117d991906152c3565b925050819055505b670de0b6b3a7640000346117f5919061542f565b816003018190555033600a600084815260200190815260200160002060006101000a81548173ffffffffffffffffffffffffffffffffffffffff021916908373ffffffffffffffffffffffffffffffffffffffff1602179055503373ffffffffffffffffffffffffffffffffffffffff167fe684a55f31b79eca403df938249029212a5925ec6be8012e099b45bc1019e5d2346040516118959190614dad565b60405180910390a25050565b600f6020528060005260406000206000915054906101000a900460ff1681565b6000806118cd83613d74565b9050600073ffffffffffffffffffffffffffffffffffffffff168173ffffffffffffffffffffffffffffffffffffffff160361193e576040517f08c379a0000000000000000000000000000000000000000000000000000000008152600401611935906154ac565b60405180910390fd5b80915050919050565b60008073ffffffffffffffffffffffffffffffffffffffff168273ffffffffffffffffffffffffffffffffffffffff16036119b7576040517f08c379a00000000000000000000000000000000000000000000000000000000081526004016119ae9061553e565b60405180910390fd5b600360008373ffffffffffffffffffffffffffffffffffffffff1673ffffffffffffffffffffffffffffffffffffffff168152602001908152602001600020549050919050565b600f60003373ffffffffffffffffffffffffffffffffffffffff1673ffffffffffffffffffffffffffffffffffffffff16815260200190815260200160002060009054906101000a900460ff16158015611aa457507f000000000000000000000000000000000000000000000000000000000000000073ffffffffffffffffffffffffffffffffffffffff163373ffffffffffffffffffffffffffffffffffffffff1614155b15611adb576040517f4074778a00000000000000000000000000000000000000000000000000000000815260040160405180910390fd5b6000600e60008481526020019081526020016000209050600073ffffffffffffffffffffffffffffffffffffffff168160010160009054906101000a900473ffffffffffffffffffffffffffffffffffffffff1673ffffffffffffffffffffffffffffffffffffffff1603611b85576040517f08c379a0000000000000000000000000000000000000000000000000000000008152600401611b7c906155aa565b60405180910390fd5b3373ffffffffffffffffffffffffffffffffffffffff168160020160009054906101000a900473ffffffffffffffffffffffffffffffffffffffff1673ffffffffffffffffffffffffffffffffffffffff1614611c0e576040517f5559881a00000000000000000000000000000000000000000000000000000000815260040160405180910390fd5b65e35fa931a0003414611c4d576040517fadd23fc100000000000000000000000000000000000000000000000000000000815260040160405180910390fd5b60008160070160006101000a81548160ff021916908315150217905550818160030181905550338160010160006101000a81548173ffffffffffffffffffffffffffffffffffffffff021916908373ffffffffffffffffffffffffffffffffffffffff160217905550308160020160006101000a81548173ffffffffffffffffffffffffffffffffffffffff021916908373ffffffffffffffffffffffffffffffffffffffff160217905550611d03600d613db1565b611d0e3330856133bb565b3373ffffffffffffffffffffffffffffffffffffffff167f2585951cbbdeb3f2aa941d91bceec195ada2396c62ea27fbb8d68574a2256eb283604051611d549190614dad565b60405180910390a2505050565b60007f0000000000000000000000000000000000000000000000000000000000000000905090565b60606000611d97600c61377c565b90506000611da5600d61377c565b611daf600c61377c565b611db991906155ca565b90506000808267ffffffffffffffff811115611dd857611dd7614b66565b5b604051908082528060200260200182016040528015611e1157816020015b611dfe6144d6565b815260200190600190039081611df65790505b50905060005b84811015612126573073ffffffffffffffffffffffffffffffffffffffff16600e6000600184611e4791906152c3565b815260200190815260200160002060020160009054906101000a900473ffffffffffffffffffffffffffffffffffffffff1673ffffffffffffffffffffffffffffffffffffffff1603612113576000600182611ea391906152c3565b90506000600e600083815260200190815260200160002090508060405180610100016040529081600082015481526020016001820160009054906101000a900473ffffffffffffffffffffffffffffffffffffffff1673ffffffffffffffffffffffffffffffffffffffff1673ffffffffffffffffffffffffffffffffffffffff1681526020016002820160009054906101000a900473ffffffffffffffffffffffffffffffffffffffff1673ffffffffffffffffffffffffffffffffffffffff1673ffffffffffffffffffffffffffffffffffffffff16815260200160038201548152602001600482018054611f9990615091565b80601f0160208091040260200160405190810160405280929190818152602001828054611fc590615091565b80156120125780601f10611fe757610100808354040283529160200191612012565b820191906000526020600020905b815481529060010190602001808311611ff557829003601f168201915b505050505081526020016005820160009054906101000a900460ff1615151515815260200160068201805461204690615091565b80601f016020809104026020016040519081016040528092919081815260200182805461207290615091565b80156120bf5780601f10612094576101008083540402835291602001916120bf565b820191906000526020600020905b8154815290600101906020018083116120a257829003601f168201915b505050505081526020016007820160009054906101000a900460ff1615151515815250508486815181106120f6576120f561533f565b5b602002602001018190525060018561210e91906152c3565b945050505b808061211e906152f7565b915050611e17565b508094505050505090565b60606001805461214090615091565b80601f016020809104026020016040519081016040528092919081815260200182805461216c90615091565b80156121b95780601f1061218e576101008083540402835291602001916121b9565b820191906000526020600020905b81548152906001019060200180831161219c57829003601f168201915b5050505050905090565b6121d56121ce6132fa565b8383613e0d565b5050565b600b602052816000526040600020602052806000526040600020600091509150505481565b61220f6122096132fa565b8361378a565b61224e576040517f08c379a0000000000000000000000000000000000000000000000000000000008152600401612245906153e0565b60405180910390fd5b61225a84848484613f79565b50505050565b6060600061226e600c61377c565b905060008060005b83811015612316578573ffffffffffffffffffffffffffffffffffffffff16600e60006001846122a691906152c3565b815260200190815260200160002060010160009054906101000a900473ffffffffffffffffffffffffffffffffffffffff1673ffffffffffffffffffffffffffffffffffffffff16036123035760018361230091906152c3565b92505b808061230e906152f7565b915050612276565b5060008267ffffffffffffffff81111561233357612332614b66565b5b60405190808252806020026020018201604052801561236c57816020015b6123596144d6565b8152602001906001900390816123515790505b50905060005b84811015612681578673ffffffffffffffffffffffffffffffffffffffff16600e60006001846123a291906152c3565b815260200190815260200160002060010160009054906101000a900473ffffffffffffffffffffffffffffffffffffffff1673ffffffffffffffffffffffffffffffffffffffff160361266e5760006001826123fe91906152c3565b90506000600e600083815260200190815260200160002090508060405180610100016040529081600082015481526020016001820160009054906101000a900473ffffffffffffffffffffffffffffffffffffffff1673ffffffffffffffffffffffffffffffffffffffff1673ffffffffffffffffffffffffffffffffffffffff1681526020016002820160009054906101000a900473ffffffffffffffffffffffffffffffffffffffff1673ffffffffffffffffffffffffffffffffffffffff1673ffffffffffffffffffffffffffffffffffffffff168152602001600382015481526020016004820180546124f490615091565b80601f016020809104026020016040519081016040528092919081815260200182805461252090615091565b801561256d5780601f106125425761010080835404028352916020019161256d565b820191906000526020600020905b81548152906001019060200180831161255057829003601f168201915b505050505081526020016005820160009054906101000a900460ff161515151581526020016006820180546125a190615091565b80601f01602080910402602001604051908101604052809291908181526020018280546125cd90615091565b801561261a5780601f106125ef5761010080835404028352916020019161261a565b820191906000526020600020905b8154815290600101906020018083116125fd57829003601f168201915b505050505081526020016007820160009054906101000a900460ff1615151515815250508486815181106126515761265061533f565b5b602002602001018190525060018561266991906152c3565b945050505b8080612679906152f7565b915050612372565b5080945050505050919050565b7f000000000000000000000000000000000000000000000000000000000000000073ffffffffffffffffffffffffffffffffffffffff163373ffffffffffffffffffffffffffffffffffffffff1614612713576040517f639118f900000000000000000000000000000000000000000000000000000000815260040160405180910390fd5b6001600f60008373ffffffffffffffffffffffffffffffffffffffff1673ffffffffffffffffffffffffffffffffffffffff16815260200190815260200160002060006101000a81548160ff02191690831515021790555050565b6000600e60008381526020019081526020016000209050600081600301549050600073ffffffffffffffffffffffffffffffffffffffff168260010160009054906101000a900473ffffffffffffffffffffffffffffffffffffffff1673ffffffffffffffffffffffffffffffffffffffff1603612821576040517f08c379a00000000000000000000000000000000000000000000000000000000081526004016128189061564a565b60405180910390fd5b670de0b6b3a7640000816128359190615281565b34101561286e576040517fae39271d00000000000000000000000000000000000000000000000000000000815260040160405180910390fd5b8160050160009054906101000a900460ff16156128b7576040517fb626467700000000000000000000000000000000000000000000000000000000815260040160405180910390fd5b6128c0836136b4565b6128cb3033856133bb565b7f000000000000000000000000000000000000000000000000000000000000000073ffffffffffffffffffffffffffffffffffffffff166108fc65e35fa931a0009081150290604051600060405180830381858888f19350505050158015612937573d6000803e3d6000fd5b508160010160009054906101000a900473ffffffffffffffffffffffffffffffffffffffff1673ffffffffffffffffffffffffffffffffffffffff166108fc349081150290604051600060405180830381858888f193505050501580156129a2573d6000803e3d6000fd5b503373ffffffffffffffffffffffffffffffffffffffff167f21a1dc2f11af863c61fb151b1942bbe5a469660af93a3b2b13500071bfb56ead84346040516129eb92919061566a565b60405180910390a2505050565b6060612a03826132af565b6000600660008481526020019081526020016000208054612a2390615091565b80601f0160208091040260200160405190810160405280929190818152602001828054612a4f90615091565b8015612a9c5780601f10612a7157610100808354040283529160200191612a9c565b820191906000526020600020905b815481529060010190602001808311612a7f57829003601f168201915b505050505090506000612aad613fd5565b90506000815103612ac2578192505050612b05565b600082511115612af7578082604051602001612adf9291906156cf565b60405160208183030381529060405292505050612b05565b612b0084613fec565b925050505b919050565b6000670de0b6b3a764000065e35fa931a000612b26919061542f565b905090565b6000600560008473ffffffffffffffffffffffffffffffffffffffff1673ffffffffffffffffffffffffffffffffffffffff16815260200190815260200160002060008373ffffffffffffffffffffffffffffffffffffffff1673ffffffffffffffffffffffffffffffffffffffff16815260200190815260200160002060009054906101000a900460ff16905092915050565b60003373ffffffffffffffffffffffffffffffffffffffff16600a600084815260200190815260200160002060009054906101000a900473ffffffffffffffffffffffffffffffffffffffff1673ffffffffffffffffffffffffffffffffffffffff1603612cab576000600a600084815260200190815260200160002060006101000a81548173ffffffffffffffffffffffffffffffffffffffff021916908373ffffffffffffffffffffffffffffffffffffffff160217905550670de0b6b3a7640000600e600084815260200190815260200160002060030154612ca49190615281565b9050612d68565b670de0b6b3a7640000600b600084815260200190815260200160002060003373ffffffffffffffffffffffffffffffffffffffff1673ffffffffffffffffffffffffffffffffffffffff16815260200190815260200160002054612d0f9190615281565b90506000600b600084815260200190815260200160002060003373ffffffffffffffffffffffffffffffffffffffff1673ffffffffffffffffffffffffffffffffffffffff168152602001908152602001600020819055505b3373ffffffffffffffffffffffffffffffffffffffff166108fc829081150290604051600060405180830381858888f19350505050158015612dae573d6000803e3d6000fd5b503373ffffffffffffffffffffffffffffffffffffffff167f1f5acf9de0f79d641b3a98fe391caaf8490bd98efef90c6f59c2efe4ad3701c782604051612df59190614dad565b60405180910390a25050565b60606000612e0f600c61377c565b905060008060005b83811015612e86578580519060200120600e6000600184612e3891906152c3565b8152602001908152602001600020600401604051612e569190615796565b604051809103902003612e7357600183612e7091906152c3565b92505b8080612e7e906152f7565b915050612e17565b5060008267ffffffffffffffff811115612ea357612ea2614b66565b5b604051908082528060200260200182016040528015612edc57816020015b612ec96144d6565b815260200190600190039081612ec15790505b50905060005b848110156131c0578680519060200120600e6000600184612f0391906152c3565b8152602001908152602001600020600401604051612f219190615796565b6040518091039020036131ad576000600182612f3d91906152c3565b90506000600e600083815260200190815260200160002090508060405180610100016040529081600082015481526020016001820160009054906101000a900473ffffffffffffffffffffffffffffffffffffffff1673ffffffffffffffffffffffffffffffffffffffff1673ffffffffffffffffffffffffffffffffffffffff1681526020016002820160009054906101000a900473ffffffffffffffffffffffffffffffffffffffff1673ffffffffffffffffffffffffffffffffffffffff1673ffffffffffffffffffffffffffffffffffffffff1681526020016003820154815260200160048201805461303390615091565b80601f016020809104026020016040519081016040528092919081815260200182805461305f90615091565b80156130ac5780601f10613081576101008083540402835291602001916130ac565b820191906000526020600020905b81548152906001019060200180831161308f57829003601f168201915b505050505081526020016005820160009054906101000a900460ff161515151581526020016006820180546130e090615091565b80601f016020809104026020016040519081016040528092919081815260200182805461310c90615091565b80156131595780601f1061312e57610100808354040283529160200191613159565b820191906000526020600020905b81548152906001019060200180831161313c57829003601f168201915b505050505081526020016007820160009054906101000a900460ff1615151515815250508486815181106131905761318f61533f565b5b60200260200101819052506001856131a891906152c3565b945050505b80806131b8906152f7565b915050612ee2565b5080945050505050919050565b60007f80ac58cd000000000000000000000000000000000000000000000000000000007bffffffffffffffffffffffffffffffffffffffffffffffffffffffff1916827bffffffffffffffffffffffffffffffffffffffffffffffffffffffff1916148061329857507f5b5e139f000000000000000000000000000000000000000000000000000000007bffffffffffffffffffffffffffffffffffffffffffffffffffffffff1916827bffffffffffffffffffffffffffffffffffffffffffffffffffffffff1916145b806132a857506132a782614054565b5b9050919050565b6132b8816140be565b6132f7576040517f08c379a00000000000000000000000000000000000000000000000000000000081526004016132ee906154ac565b60405180910390fd5b50565b600033905090565b816004600083815260200190815260200160002060006101000a81548173ffffffffffffffffffffffffffffffffffffffff021916908373ffffffffffffffffffffffffffffffffffffffff160217905550808273ffffffffffffffffffffffffffffffffffffffff16613375836118c1565b73ffffffffffffffffffffffffffffffffffffffff167f8c5be1e5ebec7d5bd14f71427d1e84f3dd0314c0f7b2291e5b200ac8c7c3b92560405160405180910390a45050565b8273ffffffffffffffffffffffffffffffffffffffff166133db826118c1565b73ffffffffffffffffffffffffffffffffffffffff1614613431576040517f08c379a00000000000000000000000000000000000000000000000000000000081526004016134289061581f565b60405180910390fd5b600073ffffffffffffffffffffffffffffffffffffffff168273ffffffffffffffffffffffffffffffffffffffff16036134a0576040517f08c379a0000000000000000000000000000000000000000000000000000000008152600401613497906158b1565b60405180910390fd5b6134ad83838360016140ff565b8273ffffffffffffffffffffffffffffffffffffffff166134cd826118c1565b73ffffffffffffffffffffffffffffffffffffffff1614613523576040517f08c379a000000000000000000000000000000000000000000000000000000000815260040161351a9061581f565b60405180910390fd5b6004600082815260200190815260200160002060006101000a81549073ffffffffffffffffffffffffffffffffffffffff02191690556001600360008573ffffffffffffffffffffffffffffffffffffffff1673ffffffffffffffffffffffffffffffffffffffff168152602001908152602001600020600082825403925050819055506001600360008473ffffffffffffffffffffffffffffffffffffffff1673ffffffffffffffffffffffffffffffffffffffff16815260200190815260200160002060008282540192505081905550816002600083815260200190815260200160002060006101000a81548173ffffffffffffffffffffffffffffffffffffffff021916908373ffffffffffffffffffffffffffffffffffffffff160217905550808273ffffffffffffffffffffffffffffffffffffffff168473ffffffffffffffffffffffffffffffffffffffff167fddf252ad1be2c89b69c2b068fc378daa952ba7f163c4a11628f55a4df523b3ef60405160405180910390a46136af8383836001614105565b505050565b6000600e60008381526020019081526020016000209050338160010160006101000a81548173ffffffffffffffffffffffffffffffffffffffff021916908373ffffffffffffffffffffffffffffffffffffffff160217905550338160020160006101000a81548173ffffffffffffffffffffffffffffffffffffffff021916908373ffffffffffffffffffffffffffffffffffffffff16021790555060018160070160006101000a81548160ff021916908315150217905550613778600d61381f565b5050565b600081600001549050919050565b600080613796836118c1565b90508073ffffffffffffffffffffffffffffffffffffffff168473ffffffffffffffffffffffffffffffffffffffff1614806137d857506137d78185612b2b565b5b8061381657508373ffffffffffffffffffffffffffffffffffffffff166137fe84610980565b73ffffffffffffffffffffffffffffffffffffffff16145b91505092915050565b6001816000016000828254019250508190555050565b600073ffffffffffffffffffffffffffffffffffffffff168273ffffffffffffffffffffffffffffffffffffffff16036138a4576040517f08c379a000000000000000000000000000000000000000000000000000000000815260040161389b9061591d565b60405180910390fd5b6138ad816140be565b156138ed576040517f08c379a00000000000000000000000000000000000000000000000000000000081526004016138e490615989565b60405180910390fd5b6138fb6000838360016140ff565b613904816140be565b15613944576040517f08c379a000000000000000000000000000000000000000000000000000000000815260040161393b90615989565b60405180910390fd5b6001600360008473ffffffffffffffffffffffffffffffffffffffff1673ffffffffffffffffffffffffffffffffffffffff16815260200190815260200160002060008282540192505081905550816002600083815260200190815260200160002060006101000a81548173ffffffffffffffffffffffffffffffffffffffff021916908373ffffffffffffffffffffffffffffffffffffffff160217905550808273ffffffffffffffffffffffffffffffffffffffff16600073ffffffffffffffffffffffffffffffffffffffff167fddf252ad1be2c89b69c2b068fc378daa952ba7f163c4a11628f55a4df523b3ef60405160405180910390a4613a4e600083836001614105565b5050565b613a5b826140be565b613a9a576040517f08c379a0000000000000000000000000000000000000000000000000000000008152600401613a9190615a1b565b60405180910390fd5b80600660008481526020019081526020016000209081613aba9190615be7565b507ff8e1a15aba9398e019f0b49df1a4fde98ee17ae345cb5f6b5e2c27f5033e8ce782604051613aea9190614dad565b60405180910390a15050565b60008511613b30576040517fae39271d00000000000000000000000000000000000000000000000000000000815260040160405180910390fd5b65e35fa931a0003414613b6f576040517fadd23fc100000000000000000000000000000000000000000000000000000000815260040160405180910390fd5b6040518061010001604052808781526020013373ffffffffffffffffffffffffffffffffffffffff1681526020013073ffffffffffffffffffffffffffffffffffffffff168152602001868152602001858152602001841515815260200183815260200160001515815250600e60008881526020019081526020016000206000820151816000015560208201518160010160006101000a81548173ffffffffffffffffffffffffffffffffffffffff021916908373ffffffffffffffffffffffffffffffffffffffff16021790555060408201518160020160006101000a81548173ffffffffffffffffffffffffffffffffffffffff021916908373ffffffffffffffffffffffffffffffffffffffff160217905550606082015181600301556080820151816004019081613ca49190615be7565b5060a08201518160050160006101000a81548160ff02191690831515021790555060c0820151816006019081613cda9190615be7565b5060e08201518160070160006101000a81548160ff0219169083151502179055509050506000811115613d20578060076000888152602001908152602001600020819055505b613d2b3330886133bb565b857fea6f1c3b321caf77e01903d5566b3d970b0903a56ed38453cc609b565a9f2a75333088876000604051613d64959493929190615cb9565b60405180910390a2505050505050565b60006002600083815260200190815260200160002060009054906101000a900473ffffffffffffffffffffffffffffffffffffffff169050919050565b60008160000154905060008111613dfd576040517f08c379a0000000000000000000000000000000000000000000000000000000008152600401613df490615d58565b60405180910390fd5b6001810382600001819055505050565b8173ffffffffffffffffffffffffffffffffffffffff168373ffffffffffffffffffffffffffffffffffffffff1603613e7b576040517f08c379a0000000000000000000000000000000000000000000000000000000008152600401613e7290615dc4565b60405180910390fd5b80600560008573ffffffffffffffffffffffffffffffffffffffff1673ffffffffffffffffffffffffffffffffffffffff16815260200190815260200160002060008473ffffffffffffffffffffffffffffffffffffffff1673ffffffffffffffffffffffffffffffffffffffff16815260200190815260200160002060006101000a81548160ff0219169083151502179055508173ffffffffffffffffffffffffffffffffffffffff168373ffffffffffffffffffffffffffffffffffffffff167f17307eab39ab6107e8899845ad3d59bd9653f200f220920489ca2b5937696c3183604051613f6c91906145ff565b60405180910390a3505050565b613f848484846133bb565b613f908484848461410b565b613fcf576040517f08c379a0000000000000000000000000000000000000000000000000000000008152600401613fc690615e56565b60405180910390fd5b50505050565b606060405180602001604052806000815250905090565b6060613ff7826132af565b6000614001613fd5565b90506000815111614021576040518060200160405280600081525061404c565b8061402b84614292565b60405160200161403c9291906156cf565b6040516020818303038152906040525b915050919050565b60007f01ffc9a7000000000000000000000000000000000000000000000000000000007bffffffffffffffffffffffffffffffffffffffffffffffffffffffff1916827bffffffffffffffffffffffffffffffffffffffffffffffffffffffff1916149050919050565b60008073ffffffffffffffffffffffffffffffffffffffff166140e083613d74565b73ffffffffffffffffffffffffffffffffffffffff1614159050919050565b50505050565b50505050565b600061412c8473ffffffffffffffffffffffffffffffffffffffff16614360565b15614285578373ffffffffffffffffffffffffffffffffffffffff1663150b7a026141556132fa565b8786866040518563ffffffff1660e01b81526004016141779493929190615ecb565b6020604051808303816000875af19250505080156141b357506040513d601f19601f820116820180604052508101906141b09190615f2c565b60015b614235573d80600081146141e3576040519150601f19603f3d011682016040523d82523d6000602084013e6141e8565b606091505b50600081510361422d576040517f08c379a000000000000000000000000000000000000000000000000000000000815260040161422490615e56565b60405180910390fd5b805181602001fd5b63150b7a0260e01b7bffffffffffffffffffffffffffffffffffffffffffffffffffffffff1916817bffffffffffffffffffffffffffffffffffffffffffffffffffffffff19161491505061428a565b600190505b949350505050565b6060600060016142a184614383565b01905060008167ffffffffffffffff8111156142c0576142bf614b66565b5b6040519080825280601f01601f1916602001820160405280156142f25781602001600182028036833780820191505090505b509050600082602001820190505b600115614355578080600190039150507f3031323334353637383961626364656600000000000000000000000000000000600a86061a8153600a858161434957614348615400565b5b04945060008503614300575b819350505050919050565b6000808273ffffffffffffffffffffffffffffffffffffffff163b119050919050565b600080600090507a184f03e93ff9f4daa797ed6e38ed64bf6a1f01000000000000000083106143e1577a184f03e93ff9f4daa797ed6e38ed64bf6a1f01000000000000000083816143d7576143d6615400565b5b0492506040810190505b6d04ee2d6d415b85acef8100000000831061441e576d04ee2d6d415b85acef8100000000838161441457614413615400565b5b0492506020810190505b662386f26fc10000831061444d57662386f26fc10000838161444357614442615400565b5b0492506010810190505b6305f5e1008310614476576305f5e100838161446c5761446b615400565b5b0492506008810190505b612710831061449b57612710838161449157614490615400565b5b0492506004810190505b606483106144be57606483816144b4576144b3615400565b5b0492506002810190505b600a83106144cd576001810190505b80915050919050565b60405180610100016040528060008152602001600073ffffffffffffffffffffffffffffffffffffffff168152602001600073ffffffffffffffffffffffffffffffffffffffff1681526020016000815260200160608152602001600015158152602001606081526020016000151581525090565b6000604051905090565b600080fd5b600080fd5b60007fffffffff0000000000000000000000000000000000000000000000000000000082169050919050565b6145948161455f565b811461459f57600080fd5b50565b6000813590506145b18161458b565b92915050565b6000602082840312156145cd576145cc614555565b5b60006145db848285016145a2565b91505092915050565b60008115159050919050565b6145f9816145e4565b82525050565b600060208201905061461460008301846145f0565b92915050565b6000819050919050565b61462d8161461a565b811461463857600080fd5b50565b60008135905061464a81614624565b92915050565b60006020828403121561466657614665614555565b5b60006146748482850161463b565b91505092915050565b600081519050919050565b600082825260208201905092915050565b60005b838110156146b757808201518184015260208101905061469c565b60008484015250505050565b6000601f19601f8301169050919050565b60006146df8261467d565b6146e98185614688565b93506146f9818560208601614699565b614702816146c3565b840191505092915050565b6000602082019050818103600083015261472781846146d4565b905092915050565b600073ffffffffffffffffffffffffffffffffffffffff82169050919050565b600061475a8261472f565b9050919050565b61476a8161474f565b82525050565b60006020820190506147856000830184614761565b92915050565b6147948161474f565b811461479f57600080fd5b50565b6000813590506147b18161478b565b92915050565b600080604083850312156147ce576147cd614555565b5b60006147dc858286016147a2565b92505060206147ed8582860161463b565b9150509250929050565b600081519050919050565b600082825260208201905092915050565b6000819050602082019050919050565b61482c8161461a565b82525050565b600061483d8261472f565b9050919050565b61484d81614832565b82525050565b600082825260208201905092915050565b600061486f8261467d565b6148798185614853565b9350614889818560208601614699565b614892816146c3565b840191505092915050565b6148a6816145e4565b82525050565b6000610100830160008301516148c56000860182614823565b5060208301516148d86020860182614844565b5060408301516148eb6040860182614844565b5060608301516148fe6060860182614823565b50608083015184820360808601526149168282614864565b91505060a083015161492b60a086018261489d565b5060c083015184820360c08601526149438282614864565b91505060e083015161495860e086018261489d565b508091505092915050565b600061496f83836148ac565b905092915050565b6000602082019050919050565b600061498f826147f7565b6149998185614802565b9350836020820285016149ab85614813565b8060005b858110156149e757848403895281516149c88582614963565b94506149d383614977565b925060208a019950506001810190506149af565b50829750879550505050505092915050565b60006020820190508181036000830152614a138184614984565b905092915050565b600080600060608486031215614a3457614a33614555565b5b6000614a42868287016147a2565b9350506020614a53868287016147a2565b9250506040614a648682870161463b565b9150509250925092565b600061010083016000830151614a876000860182614823565b506020830151614a9a6020860182614844565b506040830151614aad6040860182614844565b506060830151614ac06060860182614823565b5060808301518482036080860152614ad88282614864565b91505060a0830151614aed60a086018261489d565b5060c083015184820360c0860152614b058282614864565b91505060e0830151614b1a60e086018261489d565b508091505092915050565b60006040820190508181036000830152614b3f8185614a6e565b90508181036020830152614b5381846146d4565b90509392505050565b600080fd5b600080fd5b7f4e487b7100000000000000000000000000000000000000000000000000000000600052604160045260246000fd5b614b9e826146c3565b810181811067ffffffffffffffff82111715614bbd57614bbc614b66565b5b80604052505050565b6000614bd061454b565b9050614bdc8282614b95565b919050565b600067ffffffffffffffff821115614bfc57614bfb614b66565b5b614c05826146c3565b9050602081019050919050565b82818337600083830152505050565b6000614c34614c2f84614be1565b614bc6565b905082815260208101848484011115614c5057614c4f614b61565b5b614c5b848285614c12565b509392505050565b600082601f830112614c7857614c77614b5c565b5b8135614c88848260208601614c21565b91505092915050565b614c9a816145e4565b8114614ca557600080fd5b50565b600081359050614cb781614c91565b92915050565b60008060008060008060c08789031215614cda57614cd9614555565b5b600087013567ffffffffffffffff811115614cf857614cf761455a565b5b614d0489828a01614c63565b9650506020614d1589828a0161463b565b955050604087013567ffffffffffffffff811115614d3657614d3561455a565b5b614d4289828a01614c63565b9450506060614d5389828a01614ca8565b935050608087013567ffffffffffffffff811115614d7457614d7361455a565b5b614d8089828a01614c63565b92505060a0614d9189828a0161463b565b9150509295509295509295565b614da78161461a565b82525050565b6000602082019050614dc26000830184614d9e565b92915050565b600060208284031215614dde57614ddd614555565b5b6000614dec848285016147a2565b91505092915050565b60008060408385031215614e0c57614e0b614555565b5b6000614e1a8582860161463b565b9250506020614e2b8582860161463b565b9150509250929050565b60008060408385031215614e4c57614e4b614555565b5b6000614e5a858286016147a2565b9250506020614e6b85828601614ca8565b9150509250929050565b60008060408385031215614e8c57614e8b614555565b5b6000614e9a8582860161463b565b9250506020614eab858286016147a2565b9150509250929050565b600067ffffffffffffffff821115614ed057614ecf614b66565b5b614ed9826146c3565b9050602081019050919050565b6000614ef9614ef484614eb5565b614bc6565b905082815260208101848484011115614f1557614f14614b61565b5b614f20848285614c12565b509392505050565b600082601f830112614f3d57614f3c614b5c565b5b8135614f4d848260208601614ee6565b91505092915050565b60008060008060808587031215614f7057614f6f614555565b5b6000614f7e878288016147a2565b9450506020614f8f878288016147a2565b9350506040614fa08782880161463b565b925050606085013567ffffffffffffffff811115614fc157614fc061455a565b5b614fcd87828801614f28565b91505092959194509250565b60008060408385031215614ff057614fef614555565b5b6000614ffe858286016147a2565b925050602061500f858286016147a2565b9150509250929050565b60006020828403121561502f5761502e614555565b5b600082013567ffffffffffffffff81111561504d5761504c61455a565b5b61505984828501614c63565b91505092915050565b7f4e487b7100000000000000000000000000000000000000000000000000000000600052602260045260246000fd5b600060028204905060018216806150a957607f821691505b6020821081036150bc576150bb615062565b5b50919050565b7f4552433732313a20617070726f76616c20746f2063757272656e74206f776e6560008201527f7200000000000000000000000000000000000000000000000000000000000000602082015250565b600061511e602183614688565b9150615129826150c2565b604082019050919050565b6000602082019050818103600083015261514d81615111565b9050919050565b7f4552433732313a20617070726f76652063616c6c6572206973206e6f7420746f60008201527f6b656e206f776e6572206f7220617070726f76656420666f7220616c6c000000602082015250565b60006151b0603d83614688565b91506151bb82615154565b604082019050919050565b600060208201905081810360008301526151df816151a3565b9050919050565b7f4e6f7420656e6465640000000000000000000000000000000000000000000000600082015250565b600061521c600983614688565b9150615227826151e6565b602082019050919050565b6000602082019050818103600083015261524b8161520f565b9050919050565b7f4e487b7100000000000000000000000000000000000000000000000000000000600052601160045260246000fd5b600061528c8261461a565b91506152978361461a565b92508282026152a58161461a565b915082820484148315176152bc576152bb615252565b5b5092915050565b60006152ce8261461a565b91506152d98361461a565b92508282019050808211156152f1576152f0615252565b5b92915050565b60006153028261461a565b91507fffffffffffffffffffffffffffffffffffffffffffffffffffffffffffffffff820361533457615333615252565b5b600182019050919050565b7f4e487b7100000000000000000000000000000000000000000000000000000000600052603260045260246000fd5b7f4552433732313a2063616c6c6572206973206e6f7420746f6b656e206f776e6560008201527f72206f7220617070726f76656400000000000000000000000000000000000000602082015250565b60006153ca602d83614688565b91506153d58261536e565b604082019050919050565b600060208201905081810360008301526153f9816153bd565b9050919050565b7f4e487b7100000000000000000000000000000000000000000000000000000000600052601260045260246000fd5b600061543a8261461a565b91506154458361461a565b92508261545557615454615400565b5b828204905092915050565b7f4552433732313a20696e76616c696420746f6b656e2049440000000000000000600082015250565b6000615496601883614688565b91506154a182615460565b602082019050919050565b600060208201905081810360008301526154c581615489565b9050919050565b7f4552433732313a2061646472657373207a65726f206973206e6f74206120766160008201527f6c6964206f776e65720000000000000000000000000000000000000000000000602082015250565b6000615528602983614688565b9150615533826154cc565b604082019050919050565b600060208201905081810360008301526155578161551b565b9050919050565b7f536f7272792074686520746f6b656e20646f65736e2774206578697374000000600082015250565b6000615594601d83614688565b915061559f8261555e565b602082019050919050565b600060208201905081810360008301526155c381615587565b9050919050565b60006155d58261461a565b91506155e08361461a565b92508282039050818111156155f8576155f7615252565b5b92915050565b7f546f6b656e20646f65736e277420657869737400000000000000000000000000600082015250565b6000615634601383614688565b915061563f826155fe565b602082019050919050565b6000602082019050818103600083015261566381615627565b9050919050565b600060408201905061567f6000830185614d9e565b61568c6020830184614d9e565b9392505050565b600081905092915050565b60006156a98261467d565b6156b38185615693565b93506156c3818560208601614699565b80840191505092915050565b60006156db828561569e565b91506156e7828461569e565b91508190509392505050565b600081905092915050565b60008190508160005260206000209050919050565b6000815461572081615091565b61572a81866156f3565b94506001821660008114615745576001811461575a5761578d565b60ff198316865281151582028601935061578d565b615763856156fe565b60005b8381101561578557815481890152600182019150602081019050615766565b838801955050505b50505092915050565b60006157a28284615713565b915081905092915050565b7f4552433732313a207472616e736665722066726f6d20696e636f72726563742060008201527f6f776e6572000000000000000000000000000000000000000000000000000000602082015250565b6000615809602583614688565b9150615814826157ad565b604082019050919050565b60006020820190508181036000830152615838816157fc565b9050919050565b7f4552433732313a207472616e7366657220746f20746865207a65726f2061646460008201527f7265737300000000000000000000000000000000000000000000000000000000602082015250565b600061589b602483614688565b91506158a68261583f565b604082019050919050565b600060208201905081810360008301526158ca8161588e565b9050919050565b7f4552433732313a206d696e7420746f20746865207a65726f2061646472657373600082015250565b6000615907602083614688565b9150615912826158d1565b602082019050919050565b60006020820190508181036000830152615936816158fa565b9050919050565b7f4552433732313a20746f6b656e20616c7265616479206d696e74656400000000600082015250565b6000615973601c83614688565b915061597e8261593d565b602082019050919050565b600060208201905081810360008301526159a281615966565b9050919050565b7f45524337323155524953746f726167653a2055524920736574206f66206e6f6e60008201527f6578697374656e7420746f6b656e000000000000000000000000000000000000602082015250565b6000615a05602e83614688565b9150615a10826159a9565b604082019050919050565b60006020820190508181036000830152615a34816159f8565b9050919050565b60008190508160005260206000209050919050565b60006020601f8301049050919050565b600082821b905092915050565b600060088302615a9d7fffffffffffffffffffffffffffffffffffffffffffffffffffffffffffffffff82615a60565b615aa78683615a60565b95508019841693508086168417925050509392505050565b6000819050919050565b6000615ae4615adf615ada8461461a565b615abf565b61461a565b9050919050565b6000819050919050565b615afe83615ac9565b615b12615b0a82615aeb565b848454615a6d565b825550505050565b600090565b615b27615b1a565b615b32818484615af5565b505050565b5b81811015615b5657615b4b600082615b1f565b600181019050615b38565b5050565b601f821115615b9b57615b6c81615a3b565b615b7584615a50565b81016020851015615b84578190505b615b98615b9085615a50565b830182615b37565b50505b505050565b600082821c905092915050565b6000615bbe60001984600802615ba0565b1980831691505092915050565b6000615bd78383615bad565b9150826002028217905092915050565b615bf08261467d565b67ffffffffffffffff811115615c0957615c08614b66565b5b615c138254615091565b615c1e828285615b5a565b600060209050601f831160018114615c515760008415615c3f578287015190505b615c498582615bcb565b865550615cb1565b601f198416615c5f86615a3b565b60005b82811015615c8757848901518255600182019150602085019450602081019050615c62565b86831015615ca45784890151615ca0601f891682615bad565b8355505b6001600288020188555050505b505050505050565b600060a082019050615cce6000830188614761565b615cdb6020830187614761565b615ce86040830186614d9e565b615cf560608301856145f0565b615d0260808301846145f0565b9695505050505050565b7f436f756e7465723a2064656372656d656e74206f766572666c6f770000000000600082015250565b6000615d42601b83614688565b9150615d4d82615d0c565b602082019050919050565b60006020820190508181036000830152615d7181615d35565b9050919050565b7f4552433732313a20617070726f766520746f2063616c6c657200000000000000600082015250565b6000615dae601983614688565b9150615db982615d78565b602082019050919050565b60006020820190508181036000830152615ddd81615da1565b9050919050565b7f4552433732313a207472616e7366657220746f206e6f6e20455243373231526560008201527f63656976657220696d706c656d656e7465720000000000000000000000000000602082015250565b6000615e40603283614688565b9150615e4b82615de4565b604082019050919050565b60006020820190508181036000830152615e6f81615e33565b9050919050565b600081519050919050565b600082825260208201905092915050565b6000615e9d82615e76565b615ea78185615e81565b9350615eb7818560208601614699565b615ec0816146c3565b840191505092915050565b6000608082019050615ee06000830187614761565b615eed6020830186614761565b615efa6040830185614d9e565b8181036060830152615f0c8184615e92565b905095945050505050565b600081519050615f268161458b565b92915050565b600060208284031215615f4257615f41614555565b5b6000615f5084828501615f17565b9150509291505056fea26469706673582212206b8e9739ccb40305881ecb8a157bde289d20bc0fa71b11c90c2bfdc66d572c5f64736f6c63430008120033",
  "devdoc": {
    "events": {
      "Approval(address,address,uint256)": {
        "details": "Emitted when `owner` enables `approved` to manage the `tokenId` token."
      },
      "ApprovalForAll(address,address,bool)": {
        "details": "Emitted when `owner` enables or disables (`approved`) `operator` to manage all of its assets."
      },
      "BatchMetadataUpdate(uint256,uint256)": {
        "details": "This event emits when the metadata of a range of tokens is changed. So that the third-party platforms such as NFT market could timely update the images and related attributes of the NFTs."
      },
      "MetadataUpdate(uint256)": {
        "details": "This event emits when the metadata of a token is changed. So that the third-party platforms such as NFT market could timely update the images and related attributes of the NFT."
      },
      "Transfer(address,address,uint256)": {
        "details": "Emitted when `tokenId` token is transferred from `from` to `to`."
      }
    },
    "kind": "dev",
    "methods": {
      "approve(address,uint256)": {
        "details": "See {IERC721-approve}."
      },
      "balanceOf(address)": {
        "details": "See {IERC721-balanceOf}."
      },
      "getApproved(uint256)": {
        "details": "See {IERC721-getApproved}."
      },
      "isApprovedForAll(address,address)": {
        "details": "See {IERC721-isApprovedForAll}."
      },
      "name()": {
        "details": "See {IERC721Metadata-name}."
      },
      "ownerOf(uint256)": {
        "details": "See {IERC721-ownerOf}."
      },
      "safeTransferFrom(address,address,uint256)": {
        "details": "See {IERC721-safeTransferFrom}."
      },
      "safeTransferFrom(address,address,uint256,bytes)": {
        "details": "See {IERC721-safeTransferFrom}."
      },
      "setApprovalForAll(address,bool)": {
        "details": "See {IERC721-setApprovalForAll}."
      },
      "supportsInterface(bytes4)": {
        "details": "See {IERC165-supportsInterface}"
      },
      "symbol()": {
        "details": "See {IERC721Metadata-symbol}."
      },
      "tokenURI(uint256)": {
        "details": "See {IERC721Metadata-tokenURI}."
      },
      "transferFrom(address,address,uint256)": {
        "details": "See {IERC721-transferFrom}."
      }
    },
    "version": 1
  },
  "userdoc": {
    "kind": "user",
    "methods": {},
    "version": 1
  },
  "storageLayout": {
    "storage": [
      {
        "astId": 53,
        "contract": "contracts/NFTMARKETPLACE.sol:NFTMARKETPLACE",
        "label": "_name",
        "offset": 0,
        "slot": "0",
        "type": "t_string_storage"
      },
      {
        "astId": 55,
        "contract": "contracts/NFTMARKETPLACE.sol:NFTMARKETPLACE",
        "label": "_symbol",
        "offset": 0,
        "slot": "1",
        "type": "t_string_storage"
      },
      {
        "astId": 59,
        "contract": "contracts/NFTMARKETPLACE.sol:NFTMARKETPLACE",
        "label": "_owners",
        "offset": 0,
        "slot": "2",
        "type": "t_mapping(t_uint256,t_address)"
      },
      {
        "astId": 63,
        "contract": "contracts/NFTMARKETPLACE.sol:NFTMARKETPLACE",
        "label": "_balances",
        "offset": 0,
        "slot": "3",
        "type": "t_mapping(t_address,t_uint256)"
      },
      {
        "astId": 67,
        "contract": "contracts/NFTMARKETPLACE.sol:NFTMARKETPLACE",
        "label": "_tokenApprovals",
        "offset": 0,
        "slot": "4",
        "type": "t_mapping(t_uint256,t_address)"
      },
      {
        "astId": 73,
        "contract": "contracts/NFTMARKETPLACE.sol:NFTMARKETPLACE",
        "label": "_operatorApprovals",
        "offset": 0,
        "slot": "5",
        "type": "t_mapping(t_address,t_mapping(t_address,t_bool))"
      },
      {
        "astId": 1104,
        "contract": "contracts/NFTMARKETPLACE.sol:NFTMARKETPLACE",
        "label": "_tokenURIs",
        "offset": 0,
        "slot": "6",
        "type": "t_mapping(t_uint256,t_string_storage)"
      },
      {
        "astId": 3026,
        "contract": "contracts/NFTMARKETPLACE.sol:NFTMARKETPLACE",
        "label": "s_endAt",
        "offset": 0,
        "slot": "7",
        "type": "t_mapping(t_uint256,t_uint256)"
      },
      {
        "astId": 3030,
        "contract": "contracts/NFTMARKETPLACE.sol:NFTMARKETPLACE",
        "label": "s_ended",
        "offset": 0,
        "slot": "8",
        "type": "t_mapping(t_uint256,t_bool)"
      },
      {
        "astId": 3034,
        "contract": "contracts/NFTMARKETPLACE.sol:NFTMARKETPLACE",
        "label": "s_started",
        "offset": 0,
        "slot": "9",
        "type": "t_mapping(t_uint256,t_bool)"
      },
      {
        "astId": 3038,
        "contract": "contracts/NFTMARKETPLACE.sol:NFTMARKETPLACE",
        "label": "s_highestBidder",
        "offset": 0,
        "slot": "10",
        "type": "t_mapping(t_uint256,t_address)"
      },
      {
        "astId": 3044,
        "contract": "contracts/NFTMARKETPLACE.sol:NFTMARKETPLACE",
        "label": "s_bids",
        "offset": 0,
        "slot": "11",
        "type": "t_mapping(t_uint256,t_mapping(t_address,t_uint256))"
      },
      {
        "astId": 3051,
        "contract": "contracts/NFTMARKETPLACE.sol:NFTMARKETPLACE",
        "label": "s_tokenIds",
        "offset": 0,
        "slot": "12",
        "type": "t_struct(Counter)1629_storage"
      },
      {
        "astId": 3054,
        "contract": "contracts/NFTMARKETPLACE.sol:NFTMARKETPLACE",
        "label": "s_tokensold",
        "offset": 0,
        "slot": "13",
        "type": "t_struct(Counter)1629_storage"
      },
      {
        "astId": 3059,
        "contract": "contracts/NFTMARKETPLACE.sol:NFTMARKETPLACE",
        "label": "s_IdMarketItem",
        "offset": 0,
        "slot": "14",
        "type": "t_mapping(t_uint256,t_struct(MarketItem)3020_storage)"
      },
      {
        "astId": 3063,
        "contract": "contracts/NFTMARKETPLACE.sol:NFTMARKETPLACE",
        "label": "s_members",
        "offset": 0,
        "slot": "15",
        "type": "t_mapping(t_address,t_bool)"
      }
    ],
    "types": {
      "t_address": {
        "encoding": "inplace",
        "label": "address",
        "numberOfBytes": "20"
      },
      "t_address_payable": {
        "encoding": "inplace",
        "label": "address payable",
        "numberOfBytes": "20"
      },
      "t_bool": {
        "encoding": "inplace",
        "label": "bool",
        "numberOfBytes": "1"
      },
      "t_mapping(t_address,t_bool)": {
        "encoding": "mapping",
        "key": "t_address",
        "label": "mapping(address => bool)",
        "numberOfBytes": "32",
        "value": "t_bool"
      },
      "t_mapping(t_address,t_mapping(t_address,t_bool))": {
        "encoding": "mapping",
        "key": "t_address",
        "label": "mapping(address => mapping(address => bool))",
        "numberOfBytes": "32",
        "value": "t_mapping(t_address,t_bool)"
      },
      "t_mapping(t_address,t_uint256)": {
        "encoding": "mapping",
        "key": "t_address",
        "label": "mapping(address => uint256)",
        "numberOfBytes": "32",
        "value": "t_uint256"
      },
      "t_mapping(t_uint256,t_address)": {
        "encoding": "mapping",
        "key": "t_uint256",
        "label": "mapping(uint256 => address)",
        "numberOfBytes": "32",
        "value": "t_address"
      },
      "t_mapping(t_uint256,t_bool)": {
        "encoding": "mapping",
        "key": "t_uint256",
        "label": "mapping(uint256 => bool)",
        "numberOfBytes": "32",
        "value": "t_bool"
      },
      "t_mapping(t_uint256,t_mapping(t_address,t_uint256))": {
        "encoding": "mapping",
        "key": "t_uint256",
        "label": "mapping(uint256 => mapping(address => uint256))",
        "numberOfBytes": "32",
        "value": "t_mapping(t_address,t_uint256)"
      },
      "t_mapping(t_uint256,t_string_storage)": {
        "encoding": "mapping",
        "key": "t_uint256",
        "label": "mapping(uint256 => string)",
        "numberOfBytes": "32",
        "value": "t_string_storage"
      },
      "t_mapping(t_uint256,t_struct(MarketItem)3020_storage)": {
        "encoding": "mapping",
        "key": "t_uint256",
        "label": "mapping(uint256 => struct NFTMARKETPLACE.MarketItem)",
        "numberOfBytes": "32",
        "value": "t_struct(MarketItem)3020_storage"
      },
      "t_mapping(t_uint256,t_uint256)": {
        "encoding": "mapping",
        "key": "t_uint256",
        "label": "mapping(uint256 => uint256)",
        "numberOfBytes": "32",
        "value": "t_uint256"
      },
      "t_string_storage": {
        "encoding": "bytes",
        "label": "string",
        "numberOfBytes": "32"
      },
      "t_struct(Counter)1629_storage": {
        "encoding": "inplace",
        "label": "struct Counters.Counter",
        "members": [
          {
            "astId": 1628,
            "contract": "contracts/NFTMARKETPLACE.sol:NFTMARKETPLACE",
            "label": "_value",
            "offset": 0,
            "slot": "0",
            "type": "t_uint256"
          }
        ],
        "numberOfBytes": "32"
      },
      "t_struct(MarketItem)3020_storage": {
        "encoding": "inplace",
        "label": "struct NFTMARKETPLACE.MarketItem",
        "members": [
          {
            "astId": 3005,
            "contract": "contracts/NFTMARKETPLACE.sol:NFTMARKETPLACE",
            "label": "tokenId",
            "offset": 0,
            "slot": "0",
            "type": "t_uint256"
          },
          {
            "astId": 3007,
            "contract": "contracts/NFTMARKETPLACE.sol:NFTMARKETPLACE",
            "label": "seller",
            "offset": 0,
            "slot": "1",
            "type": "t_address_payable"
          },
          {
            "astId": 3009,
            "contract": "contracts/NFTMARKETPLACE.sol:NFTMARKETPLACE",
            "label": "owner",
            "offset": 0,
            "slot": "2",
            "type": "t_address_payable"
          },
          {
            "astId": 3011,
            "contract": "contracts/NFTMARKETPLACE.sol:NFTMARKETPLACE",
            "label": "price",
            "offset": 0,
            "slot": "3",
            "type": "t_uint256"
          },
          {
            "astId": 3013,
            "contract": "contracts/NFTMARKETPLACE.sol:NFTMARKETPLACE",
            "label": "itemType",
            "offset": 0,
            "slot": "4",
            "type": "t_string_storage"
          },
          {
            "astId": 3015,
            "contract": "contracts/NFTMARKETPLACE.sol:NFTMARKETPLACE",
            "label": "bidding",
            "offset": 0,
            "slot": "5",
            "type": "t_bool"
          },
          {
            "astId": 3017,
            "contract": "contracts/NFTMARKETPLACE.sol:NFTMARKETPLACE",
            "label": "details",
            "offset": 0,
            "slot": "6",
            "type": "t_string_storage"
          },
          {
            "astId": 3019,
            "contract": "contracts/NFTMARKETPLACE.sol:NFTMARKETPLACE",
            "label": "sold",
            "offset": 0,
            "slot": "7",
            "type": "t_bool"
          }
        ],
        "numberOfBytes": "256"
      },
      "t_uint256": {
        "encoding": "inplace",
        "label": "uint256",
        "numberOfBytes": "32"
      }
    }
  }
}