{
  "address": "0x5FbDB2315678afecb367f032d93F642f64180aa3",
  "abi": [
    {
      "inputs": [],
      "stateMutability": "nonpayable",
      "type": "constructor"
    },
    {
      "inputs": [],
      "name": "NFTMARKETPLACE__Ended",
      "type": "error"
    },
    {
      "inputs": [],
      "name": "NFTMARKETPLACE__NotMEMBER",
      "type": "error"
    },
    {
      "inputs": [],
      "name": "NFTMARKETPLACE__NotStarted",
      "type": "error"
    },
    {
      "inputs": [],
      "name": "NFTMARKETPLACE__OnlyForBidding",
      "type": "error"
    },
    {
      "inputs": [],
      "name": "NFTMARKETPLACE__OnlyOwner",
      "type": "error"
    },
    {
      "inputs": [],
      "name": "NFTMARKETPLACE__TokenNotExist",
      "type": "error"
    },
    {
      "inputs": [],
      "name": "NFTMARKETPLACE__UnAuthorized",
      "type": "error"
    },
    {
      "inputs": [],
      "name": "NFTMARKETPLACE__lowListingPrice",
      "type": "error"
    },
    {
      "inputs": [],
      "name": "NFTMARKETPLACE__lowPrice",
      "type": "error"
    },
    {
      "anonymous": false,
      "inputs": [
        {
          "indexed": true,
          "internalType": "address",
          "name": "owner",
          "type": "address"
        },
        {
          "indexed": true,
          "internalType": "address",
          "name": "approved",
          "type": "address"
        },
        {
          "indexed": true,
          "internalType": "uint256",
          "name": "tokenId",
          "type": "uint256"
        }
      ],
      "name": "Approval",
      "type": "event"
    },
    {
      "anonymous": false,
      "inputs": [
        {
          "indexed": true,
          "internalType": "address",
          "name": "owner",
          "type": "address"
        },
        {
          "indexed": true,
          "internalType": "address",
          "name": "operator",
          "type": "address"
        },
        {
          "indexed": false,
          "internalType": "bool",
          "name": "approved",
          "type": "bool"
        }
      ],
      "name": "ApprovalForAll",
      "type": "event"
    },
    {
      "anonymous": false,
      "inputs": [
        {
          "indexed": false,
          "internalType": "uint256",
          "name": "_fromTokenId",
          "type": "uint256"
        },
        {
          "indexed": false,
          "internalType": "uint256",
          "name": "_toTokenId",
          "type": "uint256"
        }
      ],
      "name": "BatchMetadataUpdate",
      "type": "event"
    },
    {
      "anonymous": false,
      "inputs": [
        {
          "indexed": true,
          "internalType": "address",
          "name": "sender",
          "type": "address"
        },
        {
          "indexed": false,
          "internalType": "uint256",
          "name": "amount",
          "type": "uint256"
        }
      ],
      "name": "Bid",
      "type": "event"
    },
    {
      "anonymous": false,
      "inputs": [
        {
          "indexed": true,
          "internalType": "address",
          "name": "buyer",
          "type": "address"
        },
        {
          "indexed": false,
          "internalType": "uint256",
          "name": "tokenId",
          "type": "uint256"
        },
        {
          "indexed": false,
          "internalType": "uint256",
          "name": "price",
          "type": "uint256"
        }
      ],
      "name": "CreateMarketSale",
      "type": "event"
    },
    {
      "anonymous": false,
      "inputs": [
        {
          "indexed": true,
          "internalType": "address",
          "name": "highestBidder",
          "type": "address"
        },
        {
          "indexed": false,
          "internalType": "uint256",
          "name": "highestBid",
          "type": "uint256"
        }
      ],
      "name": "End",
      "type": "event"
    },
    {
      "anonymous": false,
      "inputs": [
        {
          "indexed": false,
          "internalType": "uint256",
          "name": "_tokenId",
          "type": "uint256"
        }
      ],
      "name": "MetadataUpdate",
      "type": "event"
    },
    {
      "anonymous": false,
      "inputs": [
        {
          "indexed": true,
          "internalType": "address",
          "name": "seller",
          "type": "address"
        },
        {
          "indexed": false,
          "internalType": "uint256",
          "name": "price",
          "type": "uint256"
        }
      ],
      "name": "Resell",
      "type": "event"
    },
    {
      "anonymous": false,
      "inputs": [
        {
          "indexed": true,
          "internalType": "address",
          "name": "from",
          "type": "address"
        },
        {
          "indexed": true,
          "internalType": "address",
          "name": "to",
          "type": "address"
        },
        {
          "indexed": true,
          "internalType": "uint256",
          "name": "tokenId",
          "type": "uint256"
        }
      ],
      "name": "Transfer",
      "type": "event"
    },
    {
      "anonymous": false,
      "inputs": [
        {
          "indexed": true,
          "internalType": "address",
          "name": "bidder",
          "type": "address"
        },
        {
          "indexed": false,
          "internalType": "uint256",
          "name": "amount",
          "type": "uint256"
        }
      ],
      "name": "WithdrawBids",
      "type": "event"
    },
    {
      "anonymous": false,
      "inputs": [
        {
          "indexed": true,
          "internalType": "uint256",
          "name": "tokenId",
          "type": "uint256"
        },
        {
          "indexed": false,
          "internalType": "address",
          "name": "seller",
          "type": "address"
        },
        {
          "indexed": false,
          "internalType": "address",
          "name": "owner",
          "type": "address"
        },
        {
          "indexed": false,
          "internalType": "uint256",
          "name": "price",
          "type": "uint256"
        },
        {
          "indexed": false,
          "internalType": "bool",
          "name": "bidding",
          "type": "bool"
        },
        {
          "indexed": false,
          "internalType": "bool",
          "name": "sold",
          "type": "bool"
        }
      ],
      "name": "idMarketCreated",
      "type": "event"
    },
    {
      "inputs": [
        {
          "internalType": "address",
          "name": "_member",
          "type": "address"
        }
      ],
      "name": "addmember",
      "outputs": [],
      "stateMutability": "nonpayable",
      "type": "function"
    },
    {
      "inputs": [
        {
          "internalType": "address",
          "name": "to",
          "type": "address"
        },
        {
          "internalType": "uint256",
          "name": "tokenId",
          "type": "uint256"
        }
      ],
      "name": "approve",
      "outputs": [],
      "stateMutability": "nonpayable",
      "type": "function"
    },
    {
      "inputs": [
        {
          "internalType": "address",
          "name": "owner",
          "type": "address"
        }
      ],
      "name": "balanceOf",
      "outputs": [
        {
          "internalType": "uint256",
          "name": "",
          "type": "uint256"
        }
      ],
      "stateMutability": "view",
      "type": "function"
    },
    {
      "inputs": [
        {
          "internalType": "uint256",
          "name": "tokenId",
          "type": "uint256"
        }
      ],
      "name": "bid",
      "outputs": [],
      "stateMutability": "payable",
      "type": "function"
    },
    {
      "inputs": [
        {
          "internalType": "uint256",
          "name": "tokenId",
          "type": "uint256"
        }
      ],
      "name": "createMarketSale",
      "outputs": [],
      "stateMutability": "payable",
      "type": "function"
    },
    {
      "inputs": [
        {
          "internalType": "string",
          "name": "tokenUrl",
          "type": "string"
        },
        {
          "internalType": "uint256",
          "name": "price",
          "type": "uint256"
        },
        {
          "internalType": "string",
          "name": "itemType",
          "type": "string"
        },
        {
          "internalType": "bool",
          "name": "bidding",
          "type": "bool"
        },
        {
          "internalType": "string",
          "name": "_details",
          "type": "string"
        },
        {
          "internalType": "uint256",
          "name": "timestamp",
          "type": "uint256"
        }
      ],
      "name": "createToken",
      "outputs": [
        {
          "internalType": "uint256",
          "name": "",
          "type": "uint256"
        }
      ],
      "stateMutability": "payable",
      "type": "function"
    },
    {
      "inputs": [
        {
          "internalType": "uint256",
          "name": "tokenId",
          "type": "uint256"
        }
      ],
      "name": "end",
      "outputs": [],
      "stateMutability": "nonpayable",
      "type": "function"
    },
    {
      "inputs": [],
      "name": "fetchMarketItem",
      "outputs": [
        {
          "components": [
            {
              "internalType": "uint256",
              "name": "tokenId",
              "type": "uint256"
            },
            {
              "internalType": "address payable",
              "name": "seller",
              "type": "address"
            },
            {
              "internalType": "address payable",
              "name": "owner",
              "type": "address"
            },
            {
              "internalType": "uint256",
              "name": "price",
              "type": "uint256"
            },
            {
              "internalType": "string",
              "name": "itemType",
              "type": "string"
            },
            {
              "internalType": "bool",
              "name": "bidding",
              "type": "bool"
            },
            {
              "internalType": "string",
              "name": "details",
              "type": "string"
            },
            {
              "internalType": "bool",
              "name": "sold",
              "type": "bool"
            },
            {
              "internalType": "uint256",
              "name": "timestamp",
              "type": "uint256"
            },
            {
              "internalType": "bool",
              "name": "started",
              "type": "bool"
            }
          ],
          "internalType": "struct NFTMARKETPLACE.MarketItem[]",
          "name": "",
          "type": "tuple[]"
        }
      ],
      "stateMutability": "view",
      "type": "function"
    },
    {
      "inputs": [],
      "name": "fetchMyNFTs",
      "outputs": [
        {
          "components": [
            {
              "internalType": "uint256",
              "name": "tokenId",
              "type": "uint256"
            },
            {
              "internalType": "address payable",
              "name": "seller",
              "type": "address"
            },
            {
              "internalType": "address payable",
              "name": "owner",
              "type": "address"
            },
            {
              "internalType": "uint256",
              "name": "price",
              "type": "uint256"
            },
            {
              "internalType": "string",
              "name": "itemType",
              "type": "string"
            },
            {
              "internalType": "bool",
              "name": "bidding",
              "type": "bool"
            },
            {
              "internalType": "string",
              "name": "details",
              "type": "string"
            },
            {
              "internalType": "bool",
              "name": "sold",
              "type": "bool"
            },
            {
              "internalType": "uint256",
              "name": "timestamp",
              "type": "uint256"
            },
            {
              "internalType": "bool",
              "name": "started",
              "type": "bool"
            }
          ],
          "internalType": "struct NFTMARKETPLACE.MarketItem[]",
          "name": "",
          "type": "tuple[]"
        }
      ],
      "stateMutability": "view",
      "type": "function"
    },
    {
      "inputs": [
        {
          "internalType": "uint256",
          "name": "tokenId",
          "type": "uint256"
        }
      ],
      "name": "fetchNFTsDetails",
      "outputs": [
        {
          "components": [
            {
              "internalType": "uint256",
              "name": "tokenId",
              "type": "uint256"
            },
            {
              "internalType": "address payable",
              "name": "seller",
              "type": "address"
            },
            {
              "internalType": "address payable",
              "name": "owner",
              "type": "address"
            },
            {
              "internalType": "uint256",
              "name": "price",
              "type": "uint256"
            },
            {
              "internalType": "string",
              "name": "itemType",
              "type": "string"
            },
            {
              "internalType": "bool",
              "name": "bidding",
              "type": "bool"
            },
            {
              "internalType": "string",
              "name": "details",
              "type": "string"
            },
            {
              "internalType": "bool",
              "name": "sold",
              "type": "bool"
            },
            {
              "internalType": "uint256",
              "name": "timestamp",
              "type": "uint256"
            },
            {
              "internalType": "bool",
              "name": "started",
              "type": "bool"
            }
          ],
          "internalType": "struct NFTMARKETPLACE.MarketItem",
          "name": "",
          "type": "tuple"
        },
        {
          "internalType": "string",
          "name": "",
          "type": "string"
        }
      ],
      "stateMutability": "view",
      "type": "function"
    },
    {
      "inputs": [
        {
          "internalType": "uint256",
          "name": "tokenId",
          "type": "uint256"
        }
      ],
      "name": "fetchTokenUrl",
      "outputs": [
        {
          "internalType": "string",
          "name": "",
          "type": "string"
        }
      ],
      "stateMutability": "view",
      "type": "function"
    },
    {
      "inputs": [
        {
          "internalType": "address",
          "name": "_owner",
          "type": "address"
        }
      ],
      "name": "filterNftByAdress",
      "outputs": [
        {
          "components": [
            {
              "internalType": "uint256",
              "name": "tokenId",
              "type": "uint256"
            },
            {
              "internalType": "address payable",
              "name": "seller",
              "type": "address"
            },
            {
              "internalType": "address payable",
              "name": "owner",
              "type": "address"
            },
            {
              "internalType": "uint256",
              "name": "price",
              "type": "uint256"
            },
            {
              "internalType": "string",
              "name": "itemType",
              "type": "string"
            },
            {
              "internalType": "bool",
              "name": "bidding",
              "type": "bool"
            },
            {
              "internalType": "string",
              "name": "details",
              "type": "string"
            },
            {
              "internalType": "bool",
              "name": "sold",
              "type": "bool"
            },
            {
              "internalType": "uint256",
              "name": "timestamp",
              "type": "uint256"
            },
            {
              "internalType": "bool",
              "name": "started",
              "type": "bool"
            }
          ],
          "internalType": "struct NFTMARKETPLACE.MarketItem[]",
          "name": "",
          "type": "tuple[]"
        }
      ],
      "stateMutability": "view",
      "type": "function"
    },
    {
      "inputs": [
        {
          "internalType": "string",
          "name": "cat",
          "type": "string"
        }
      ],
      "name": "filterNftCat",
      "outputs": [
        {
          "components": [
            {
              "internalType": "uint256",
              "name": "tokenId",
              "type": "uint256"
            },
            {
              "internalType": "address payable",
              "name": "seller",
              "type": "address"
            },
            {
              "internalType": "address payable",
              "name": "owner",
              "type": "address"
            },
            {
              "internalType": "uint256",
              "name": "price",
              "type": "uint256"
            },
            {
              "internalType": "string",
              "name": "itemType",
              "type": "string"
            },
            {
              "internalType": "bool",
              "name": "bidding",
              "type": "bool"
            },
            {
              "internalType": "string",
              "name": "details",
              "type": "string"
            },
            {
              "internalType": "bool",
              "name": "sold",
              "type": "bool"
            },
            {
              "internalType": "uint256",
              "name": "timestamp",
              "type": "uint256"
            },
            {
              "internalType": "bool",
              "name": "started",
              "type": "bool"
            }
          ],
          "internalType": "struct NFTMARKETPLACE.MarketItem[]",
          "name": "",
          "type": "tuple[]"
        }
      ],
      "stateMutability": "view",
      "type": "function"
    },
    {
      "inputs": [
        {
          "internalType": "uint256",
          "name": "tokenId",
          "type": "uint256"
        }
      ],
      "name": "getApproved",
      "outputs": [
        {
          "internalType": "address",
          "name": "",
          "type": "address"
        }
      ],
      "stateMutability": "view",
      "type": "function"
    },
    {
      "inputs": [],
      "name": "getListing",
      "outputs": [
        {
          "internalType": "uint256",
          "name": "",
          "type": "uint256"
        }
      ],
      "stateMutability": "pure",
      "type": "function"
    },
    {
      "inputs": [],
      "name": "getOwner",
      "outputs": [
        {
          "internalType": "address",
          "name": "",
          "type": "address"
        }
      ],
      "stateMutability": "view",
      "type": "function"
    },
    {
      "inputs": [
        {
          "internalType": "address",
          "name": "owner",
          "type": "address"
        },
        {
          "internalType": "address",
          "name": "operator",
          "type": "address"
        }
      ],
      "name": "isApprovedForAll",
      "outputs": [
        {
          "internalType": "bool",
          "name": "",
          "type": "bool"
        }
      ],
      "stateMutability": "view",
      "type": "function"
    },
    {
      "inputs": [],
      "name": "name",
      "outputs": [
        {
          "internalType": "string",
          "name": "",
          "type": "string"
        }
      ],
      "stateMutability": "view",
      "type": "function"
    },
    {
      "inputs": [
        {
          "internalType": "uint256",
          "name": "tokenId",
          "type": "uint256"
        }
      ],
      "name": "ownerOf",
      "outputs": [
        {
          "internalType": "address",
          "name": "",
          "type": "address"
        }
      ],
      "stateMutability": "view",
      "type": "function"
    },
    {
      "inputs": [
        {
          "internalType": "uint256",
          "name": "tokenId",
          "type": "uint256"
        },
        {
          "internalType": "uint256",
          "name": "price",
          "type": "uint256"
        }
      ],
      "name": "reSellToken",
      "outputs": [],
      "stateMutability": "payable",
      "type": "function"
    },
    {
      "inputs": [
        {
          "internalType": "uint256",
          "name": "",
          "type": "uint256"
        },
        {
          "internalType": "address",
          "name": "",
          "type": "address"
        }
      ],
      "name": "s_bids",
      "outputs": [
        {
          "internalType": "uint256",
          "name": "",
          "type": "uint256"
        }
      ],
      "stateMutability": "view",
      "type": "function"
    },
    {
      "inputs": [
        {
          "internalType": "address",
          "name": "from",
          "type": "address"
        },
        {
          "internalType": "address",
          "name": "to",
          "type": "address"
        },
        {
          "internalType": "uint256",
          "name": "tokenId",
          "type": "uint256"
        }
      ],
      "name": "safeTransferFrom",
      "outputs": [],
      "stateMutability": "nonpayable",
      "type": "function"
    },
    {
      "inputs": [
        {
          "internalType": "address",
          "name": "from",
          "type": "address"
        },
        {
          "internalType": "address",
          "name": "to",
          "type": "address"
        },
        {
          "internalType": "uint256",
          "name": "tokenId",
          "type": "uint256"
        },
        {
          "internalType": "bytes",
          "name": "data",
          "type": "bytes"
        }
      ],
      "name": "safeTransferFrom",
      "outputs": [],
      "stateMutability": "nonpayable",
      "type": "function"
    },
    {
      "inputs": [
        {
          "internalType": "address",
          "name": "operator",
          "type": "address"
        },
        {
          "internalType": "bool",
          "name": "approved",
          "type": "bool"
        }
      ],
      "name": "setApprovalForAll",
      "outputs": [],
      "stateMutability": "nonpayable",
      "type": "function"
    },
    {
      "inputs": [
        {
          "internalType": "uint256",
          "name": "tokenId",
          "type": "uint256"
        }
      ],
      "name": "startAuction",
      "outputs": [],
      "stateMutability": "nonpayable",
      "type": "function"
    },
    {
      "inputs": [
        {
          "internalType": "bytes4",
          "name": "interfaceId",
          "type": "bytes4"
        }
      ],
      "name": "supportsInterface",
      "outputs": [
        {
          "internalType": "bool",
          "name": "",
          "type": "bool"
        }
      ],
      "stateMutability": "view",
      "type": "function"
    },
    {
      "inputs": [],
      "name": "symbol",
      "outputs": [
        {
          "internalType": "string",
          "name": "",
          "type": "string"
        }
      ],
      "stateMutability": "view",
      "type": "function"
    },
    {
      "inputs": [
        {
          "internalType": "uint256",
          "name": "tokenId",
          "type": "uint256"
        }
      ],
      "name": "tokenURI",
      "outputs": [
        {
          "internalType": "string",
          "name": "",
          "type": "string"
        }
      ],
      "stateMutability": "view",
      "type": "function"
    },
    {
      "inputs": [
        {
          "internalType": "address",
          "name": "from",
          "type": "address"
        },
        {
          "internalType": "address",
          "name": "to",
          "type": "address"
        },
        {
          "internalType": "uint256",
          "name": "tokenId",
          "type": "uint256"
        }
      ],
      "name": "transferFrom",
      "outputs": [],
      "stateMutability": "nonpayable",
      "type": "function"
    },
    {
      "inputs": [
        {
          "internalType": "uint256",
          "name": "tokenId",
          "type": "uint256"
        }
      ],
      "name": "withdrawBids",
      "outputs": [],
      "stateMutability": "nonpayable",
      "type": "function"
    }
  ],
  "transactionHash": "0x55eab7683cd219d1a12d7c46c32cddd3efedfe2a1f97dc1cc999803ee653b883",
  "args": [],
  "numDeployments": 1,
  "solcInputHash": "264b7bb0be3c4fc6a1bc2bc8604241c0",
  "bytecode": "0x60a06040523480156200001157600080fd5b506040518060400160405280601081526020017f535452454554204e465420544f4b454e000000000000000000000000000000008152506040518060400160405280600781526020017f535452544e46540000000000000000000000000000000000000000000000000081525081600090816200008f919062000358565b508060019081620000a1919062000358565b5050503373ffffffffffffffffffffffffffffffffffffffff1660808173ffffffffffffffffffffffffffffffffffffffff16815250506200043f565b600081519050919050565b7f4e487b7100000000000000000000000000000000000000000000000000000000600052604160045260246000fd5b7f4e487b7100000000000000000000000000000000000000000000000000000000600052602260045260246000fd5b600060028204905060018216806200016057607f821691505b60208210810362000176576200017562000118565b5b50919050565b60008190508160005260206000209050919050565b60006020601f8301049050919050565b600082821b905092915050565b600060088302620001e07fffffffffffffffffffffffffffffffffffffffffffffffffffffffffffffffff82620001a1565b620001ec8683620001a1565b95508019841693508086168417925050509392505050565b6000819050919050565b6000819050919050565b600062000239620002336200022d8462000204565b6200020e565b62000204565b9050919050565b6000819050919050565b620002558362000218565b6200026d620002648262000240565b848454620001ae565b825550505050565b600090565b6200028462000275565b620002918184846200024a565b505050565b5b81811015620002b957620002ad6000826200027a565b60018101905062000297565b5050565b601f8211156200030857620002d2816200017c565b620002dd8462000191565b81016020851015620002ed578190505b62000305620002fc8562000191565b83018262000296565b50505b505050565b600082821c905092915050565b60006200032d600019846008026200030d565b1980831691505092915050565b60006200034883836200031a565b9150826002028217905092915050565b6200036382620000de565b67ffffffffffffffff8111156200037f576200037e620000e9565b5b6200038b825462000147565b62000398828285620002bd565b600060209050601f831160018114620003d05760008415620003bb578287015190505b620003c785826200033a565b86555062000437565b601f198416620003e0866200017c565b60005b828110156200040a57848901518255600182019150602085019450602081019050620003e3565b868310156200042a578489015162000426601f8916826200031a565b8355505b6001600288020188555050505b505050505050565b608051615fc1620004776000396000818161155101528181611a6301528181611d6a015281816126df01526129130152615fc16000f3fe6080604052600436106101cd5760003560e01c806385535b25116100f7578063bbc80ead11610095578063e0a41cf211610064578063e0a41cf21461069b578063e985e9c5146106c6578063edb5f90514610703578063f0360f001461072c576101cd565b8063bbc80ead146105dc578063bc0e872d14610619578063be9af53614610642578063c87b56dd1461065e576101cd565b806395d89b41116100d157806395d89b4114610522578063a22cb4651461054d578063b00363ca14610576578063b88d4fde146105b3576101cd565b806385535b25146104b0578063893d20e8146104cc5780638fafd021146104f7576101cd565b8063202e37401161016f57806342842e0e1161013e57806342842e0e146103f1578063454a2ab31461041a5780636352211e1461043657806370a0823114610473576101cd565b8063202e37401461032f57806323b872dd1461035a578063330d183d14610383578063358b5644146103c1576101cd565b8063081812fc116101ab578063081812fc14610263578063095ea7b3146102a05780630ad24528146102c957806313a17ac7146102f2576101cd565b806301ffc9a7146101d2578063065de74c1461020f57806306fdde0314610238575b600080fd5b3480156101de57600080fd5b506101f960048036038101906101f4919061466d565b610769565b60405161020691906146b5565b60405180910390f35b34801561021b57600080fd5b5061023660048036038101906102319190614706565b6107ca565b005b34801561024457600080fd5b5061024d6108d3565b60405161025a91906147c3565b60405180910390f35b34801561026f57600080fd5b5061028a60048036038101906102859190614706565b610965565b6040516102979190614826565b60405180910390f35b3480156102ac57600080fd5b506102c760048036038101906102c2919061486d565b6109ab565b005b3480156102d557600080fd5b506102f060048036038101906102eb9190614706565b610ac2565b005b3480156102fe57600080fd5b5061031960048036038101906103149190614706565b610db8565b60405161032691906147c3565b60405180910390f35b34801561033b57600080fd5b50610344610dca565b6040516103519190614ad9565b60405180910390f35b34801561036657600080fd5b50610381600480360381019061037c9190614afb565b61121b565b005b34801561038f57600080fd5b506103aa60048036038101906103a59190614706565b61127b565b6040516103b8929190614c2f565b60405180910390f35b6103db60048036038101906103d69190614dc7565b6114f8565b6040516103e89190614eb7565b60405180910390f35b3480156103fd57600080fd5b5061041860048036038101906104139190614afb565b61161f565b005b610434600480360381019061042f9190614706565b61163f565b005b34801561044257600080fd5b5061045d60048036038101906104589190614706565b6118cf565b60405161046a9190614826565b60405180910390f35b34801561047f57600080fd5b5061049a60048036038101906104959190614ed2565b611955565b6040516104a79190614eb7565b60405180910390f35b6104ca60048036038101906104c59190614eff565b611a0c565b005b3480156104d857600080fd5b506104e1611d66565b6040516104ee9190614826565b60405180910390f35b34801561050357600080fd5b5061050c611d8e565b6040516105199190614ad9565b60405180910390f35b34801561052e57600080fd5b5061053761215b565b60405161054491906147c3565b60405180910390f35b34801561055957600080fd5b50610574600480360381019061056f9190614f3f565b6121ed565b005b34801561058257600080fd5b5061059d60048036038101906105989190614f7f565b612203565b6040516105aa9190614eb7565b60405180910390f35b3480156105bf57600080fd5b506105da60048036038101906105d59190615060565b612228565b005b3480156105e857600080fd5b5061060360048036038101906105fe9190614ed2565b61228a565b6040516106109190614ad9565b60405180910390f35b34801561062557600080fd5b50610640600480360381019061063b9190614ed2565b6126dd565b005b61065c60048036038101906106579190614706565b6127bd565b005b34801561066a57600080fd5b5061068560048036038101906106809190614706565b612a3e565b60405161069291906147c3565b60405180910390f35b3480156106a757600080fd5b506106b0612b50565b6040516106bd9190614eb7565b60405180910390f35b3480156106d257600080fd5b506106ed60048036038101906106e891906150e3565b612b71565b6040516106fa91906146b5565b60405180910390f35b34801561070f57600080fd5b5061072a60048036038101906107259190614706565b612c05565b005b34801561073857600080fd5b50610753600480360381019061074e9190615123565b612e47565b6040516107609190614ad9565b60405180910390f35b6000634906490660e01b7bffffffffffffffffffffffffffffffffffffffffffffffffffffffff1916827bffffffffffffffffffffffffffffffffffffffffffffffffffffffff191614806107c357506107c282613238565b5b9050919050565b6000600d600083815260200190815260200160002090503373ffffffffffffffffffffffffffffffffffffffff168160010160009054906101000a900473ffffffffffffffffffffffffffffffffffffffff1673ffffffffffffffffffffffffffffffffffffffff161461086a576040517f5559881a00000000000000000000000000000000000000000000000000000000815260040160405180910390fd5b8060050160009054906101000a900460ff166108b2576040517fb626467700000000000000000000000000000000000000000000000000000000815260040160405180910390fd5b60018160090160006101000a81548160ff0219169083151502179055505050565b6060600080546108e29061519b565b80601f016020809104026020016040519081016040528092919081815260200182805461090e9061519b565b801561095b5780601f106109305761010080835404028352916020019161095b565b820191906000526020600020905b81548152906001019060200180831161093e57829003601f168201915b5050505050905090565b60006109708261331a565b6004600083815260200190815260200160002060009054906101000a900473ffffffffffffffffffffffffffffffffffffffff169050919050565b60006109b6826118cf565b90508073ffffffffffffffffffffffffffffffffffffffff168373ffffffffffffffffffffffffffffffffffffffff1603610a26576040517f08c379a0000000000000000000000000000000000000000000000000000000008152600401610a1d9061523e565b60405180910390fd5b8073ffffffffffffffffffffffffffffffffffffffff16610a45613365565b73ffffffffffffffffffffffffffffffffffffffff161480610a745750610a7381610a6e613365565b612b71565b5b610ab3576040517f08c379a0000000000000000000000000000000000000000000000000000000008152600401610aaa906152d0565b60405180910390fd5b610abd838361336d565b505050565b6000600d600083815260200190815260200160002090506008600083815260200190815260200160002060009054906101000a900460ff1615610b31576040517f62db152f00000000000000000000000000000000000000000000000000000000815260040160405180910390fd5b6007600083815260200190815260200160002054421015610b87576040517f08c379a0000000000000000000000000000000000000000000000000000000008152600401610b7e9061533c565b60405180910390fd5b60016008600084815260200190815260200160002060006101000a81548160ff02191690831515021790555060006009600084815260200190815260200160002060009054906101000a900473ffffffffffffffffffffffffffffffffffffffff169050600073ffffffffffffffffffffffffffffffffffffffff168173ffffffffffffffffffffffffffffffffffffffff1614610d3157610c4e308360010160009054906101000a900473ffffffffffffffffffffffffffffffffffffffff1685613426565b8160010160009054906101000a900473ffffffffffffffffffffffffffffffffffffffff1673ffffffffffffffffffffffffffffffffffffffff166108fc670de0b6b3a76400008460030154610ca4919061538b565b9081150290604051600060405180830381858888f19350505050158015610ccf573d6000803e3d6000fd5b50610cd98361371f565b60006009600085815260200190815260200160002060006101000a81548173ffffffffffffffffffffffffffffffffffffffff021916908373ffffffffffffffffffffffffffffffffffffffff160217905550610d61565b610d60308360010160009054906101000a900473ffffffffffffffffffffffffffffffffffffffff1685613426565b5b8073ffffffffffffffffffffffffffffffffffffffff167f7d7570b046e5ead3a4f3fbc9fa2445113625a1e79823776146316bafed6b8cc58360030154604051610dab9190614eb7565b60405180910390a2505050565b6060610dc382612a3e565b9050919050565b60606000610dd8600b6137e7565b905060008060005b83811015610e80573373ffffffffffffffffffffffffffffffffffffffff16600d6000600184610e1091906153cd565b815260200190815260200160002060020160009054906101000a900473ffffffffffffffffffffffffffffffffffffffff1673ffffffffffffffffffffffffffffffffffffffff1603610e6d57600183610e6a91906153cd565b92505b8080610e7890615401565b915050610de0565b5060008267ffffffffffffffff811115610e9d57610e9c614c70565b5b604051908082528060200260200182016040528015610ed657816020015b610ec361457c565b815260200190600190039081610ebb5790505b50905060005b84811015611210573373ffffffffffffffffffffffffffffffffffffffff16600d6000600184610f0c91906153cd565b815260200190815260200160002060020160009054906101000a900473ffffffffffffffffffffffffffffffffffffffff1673ffffffffffffffffffffffffffffffffffffffff16036111fd576000600182610f6891906153cd565b90506000600d600083815260200190815260200160002090508060405180610140016040529081600082015481526020016001820160009054906101000a900473ffffffffffffffffffffffffffffffffffffffff1673ffffffffffffffffffffffffffffffffffffffff1673ffffffffffffffffffffffffffffffffffffffff1681526020016002820160009054906101000a900473ffffffffffffffffffffffffffffffffffffffff1673ffffffffffffffffffffffffffffffffffffffff1673ffffffffffffffffffffffffffffffffffffffff1681526020016003820154815260200160048201805461105e9061519b565b80601f016020809104026020016040519081016040528092919081815260200182805461108a9061519b565b80156110d75780601f106110ac576101008083540402835291602001916110d7565b820191906000526020600020905b8154815290600101906020018083116110ba57829003601f168201915b505050505081526020016005820160009054906101000a900460ff1615151515815260200160068201805461110b9061519b565b80601f01602080910402602001604051908101604052809291908181526020018280546111379061519b565b80156111845780601f1061115957610100808354040283529160200191611184565b820191906000526020600020905b81548152906001019060200180831161116757829003601f168201915b505050505081526020016007820160009054906101000a900460ff16151515158152602001600882015481526020016009820160009054906101000a900460ff1615151515815250508486815181106111e0576111df615449565b5b60200260200101819052506001856111f891906153cd565b945050505b808061120890615401565b915050610edc565b508094505050505090565b61122c611226613365565b826137f5565b61126b576040517f08c379a0000000000000000000000000000000000000000000000000000000008152600401611262906154ea565b60405180910390fd5b611276838383613426565b505050565b61128361457c565b6060600d60008481526020019081526020016000206112a184612a3e565b8160405180610140016040529081600082015481526020016001820160009054906101000a900473ffffffffffffffffffffffffffffffffffffffff1673ffffffffffffffffffffffffffffffffffffffff1673ffffffffffffffffffffffffffffffffffffffff1681526020016002820160009054906101000a900473ffffffffffffffffffffffffffffffffffffffff1673ffffffffffffffffffffffffffffffffffffffff1673ffffffffffffffffffffffffffffffffffffffff1681526020016003820154815260200160048201805461137e9061519b565b80601f01602080910402602001604051908101604052809291908181526020018280546113aa9061519b565b80156113f75780601f106113cc576101008083540402835291602001916113f7565b820191906000526020600020905b8154815290600101906020018083116113da57829003601f168201915b505050505081526020016005820160009054906101000a900460ff1615151515815260200160068201805461142b9061519b565b80601f01602080910402602001604051908101604052809291908181526020018280546114579061519b565b80156114a45780601f10611479576101008083540402835291602001916114a4565b820191906000526020600020905b81548152906001019060200180831161148757829003601f168201915b505050505081526020016007820160009054906101000a900460ff16151515158152602001600882015481526020016009820160009054906101000a900460ff161515151581525050915091509150915091565b6000600e60003373ffffffffffffffffffffffffffffffffffffffff1673ffffffffffffffffffffffffffffffffffffffff16815260200190815260200160002060009054906101000a900460ff161580156115a057507f000000000000000000000000000000000000000000000000000000000000000073ffffffffffffffffffffffffffffffffffffffff163373ffffffffffffffffffffffffffffffffffffffff1614155b156115d7576040517f4074778a00000000000000000000000000000000000000000000000000000000815260040160405180910390fd5b6115e1600b61388a565b60006115ed600b6137e7565b90506115f933826138a0565b6116038189613abd565b611611818888888888613b61565b809150509695505050505050565b61163a83838360405180602001604052806000815250612228565b505050565b6000600d6000838152602001908152602001600020905060076000838152602001908152602001600020544211156116a3576040517f62db152f00000000000000000000000000000000000000000000000000000000815260040160405180910390fd5b8060090160009054906101000a900460ff166116eb576040517fbb237d0d00000000000000000000000000000000000000000000000000000000815260040160405180910390fd5b670de0b6b3a76400008160030154611703919061538b565b34101561173c576040517fae39271d00000000000000000000000000000000000000000000000000000000815260040160405180910390fd5b600073ffffffffffffffffffffffffffffffffffffffff166009600084815260200190815260200160002060009054906101000a900473ffffffffffffffffffffffffffffffffffffffff1673ffffffffffffffffffffffffffffffffffffffff161461180f578060030154600a600084815260200190815260200160002060003373ffffffffffffffffffffffffffffffffffffffff1673ffffffffffffffffffffffffffffffffffffffff168152602001908152602001600020600082825461180791906153cd565b925050819055505b670de0b6b3a7640000346118239190615539565b8160030181905550336009600084815260200190815260200160002060006101000a81548173ffffffffffffffffffffffffffffffffffffffff021916908373ffffffffffffffffffffffffffffffffffffffff1602179055503373ffffffffffffffffffffffffffffffffffffffff167fe684a55f31b79eca403df938249029212a5925ec6be8012e099b45bc1019e5d2346040516118c39190614eb7565b60405180910390a25050565b6000806118db83613e1a565b9050600073ffffffffffffffffffffffffffffffffffffffff168173ffffffffffffffffffffffffffffffffffffffff160361194c576040517f08c379a0000000000000000000000000000000000000000000000000000000008152600401611943906155b6565b60405180910390fd5b80915050919050565b60008073ffffffffffffffffffffffffffffffffffffffff168273ffffffffffffffffffffffffffffffffffffffff16036119c5576040517f08c379a00000000000000000000000000000000000000000000000000000000081526004016119bc90615648565b60405180910390fd5b600360008373ffffffffffffffffffffffffffffffffffffffff1673ffffffffffffffffffffffffffffffffffffffff168152602001908152602001600020549050919050565b600e60003373ffffffffffffffffffffffffffffffffffffffff1673ffffffffffffffffffffffffffffffffffffffff16815260200190815260200160002060009054906101000a900460ff16158015611ab257507f000000000000000000000000000000000000000000000000000000000000000073ffffffffffffffffffffffffffffffffffffffff163373ffffffffffffffffffffffffffffffffffffffff1614155b15611ae9576040517f4074778a00000000000000000000000000000000000000000000000000000000815260040160405180910390fd5b6000600d60008481526020019081526020016000209050600073ffffffffffffffffffffffffffffffffffffffff168160010160009054906101000a900473ffffffffffffffffffffffffffffffffffffffff1673ffffffffffffffffffffffffffffffffffffffff1603611b8a576040517f353f261b00000000000000000000000000000000000000000000000000000000815260040160405180910390fd5b3373ffffffffffffffffffffffffffffffffffffffff168160020160009054906101000a900473ffffffffffffffffffffffffffffffffffffffff1673ffffffffffffffffffffffffffffffffffffffff1614611c13576040517f5559881a00000000000000000000000000000000000000000000000000000000815260040160405180910390fd5b65e35fa931a0003414611c52576040517fadd23fc100000000000000000000000000000000000000000000000000000000815260040160405180910390fd5b60008160070160006101000a81548160ff021916908315150217905550818160030181905550338160010160006101000a81548173ffffffffffffffffffffffffffffffffffffffff021916908373ffffffffffffffffffffffffffffffffffffffff160217905550308160020160006101000a81548173ffffffffffffffffffffffffffffffffffffffff021916908373ffffffffffffffffffffffffffffffffffffffff160217905550611d08600c613e57565b611d13333085613426565b3373ffffffffffffffffffffffffffffffffffffffff167f2585951cbbdeb3f2aa941d91bceec195ada2396c62ea27fbb8d68574a2256eb283604051611d599190614eb7565b60405180910390a2505050565b60007f0000000000000000000000000000000000000000000000000000000000000000905090565b60606000611d9c600b6137e7565b90506000611daa600c6137e7565b611db4600b6137e7565b611dbe9190615668565b90506000808267ffffffffffffffff811115611ddd57611ddc614c70565b5b604051908082528060200260200182016040528015611e1657816020015b611e0361457c565b815260200190600190039081611dfb5790505b50905060005b84811015612150573073ffffffffffffffffffffffffffffffffffffffff16600d6000600184611e4c91906153cd565b815260200190815260200160002060020160009054906101000a900473ffffffffffffffffffffffffffffffffffffffff1673ffffffffffffffffffffffffffffffffffffffff160361213d576000600182611ea891906153cd565b90506000600d600083815260200190815260200160002090508060405180610140016040529081600082015481526020016001820160009054906101000a900473ffffffffffffffffffffffffffffffffffffffff1673ffffffffffffffffffffffffffffffffffffffff1673ffffffffffffffffffffffffffffffffffffffff1681526020016002820160009054906101000a900473ffffffffffffffffffffffffffffffffffffffff1673ffffffffffffffffffffffffffffffffffffffff1673ffffffffffffffffffffffffffffffffffffffff16815260200160038201548152602001600482018054611f9e9061519b565b80601f0160208091040260200160405190810160405280929190818152602001828054611fca9061519b565b80156120175780601f10611fec57610100808354040283529160200191612017565b820191906000526020600020905b815481529060010190602001808311611ffa57829003601f168201915b505050505081526020016005820160009054906101000a900460ff1615151515815260200160068201805461204b9061519b565b80601f01602080910402602001604051908101604052809291908181526020018280546120779061519b565b80156120c45780601f10612099576101008083540402835291602001916120c4565b820191906000526020600020905b8154815290600101906020018083116120a757829003601f168201915b505050505081526020016007820160009054906101000a900460ff16151515158152602001600882015481526020016009820160009054906101000a900460ff1615151515815250508486815181106121205761211f615449565b5b602002602001018190525060018561213891906153cd565b945050505b808061214890615401565b915050611e1c565b508094505050505090565b60606001805461216a9061519b565b80601f01602080910402602001604051908101604052809291908181526020018280546121969061519b565b80156121e35780601f106121b8576101008083540402835291602001916121e3565b820191906000526020600020905b8154815290600101906020018083116121c657829003601f168201915b5050505050905090565b6121ff6121f8613365565b8383613eb3565b5050565b600a602052816000526040600020602052806000526040600020600091509150505481565b612239612233613365565b836137f5565b612278576040517f08c379a000000000000000000000000000000000000000000000000000000000815260040161226f906154ea565b60405180910390fd5b6122848484848461401f565b50505050565b60606000612298600b6137e7565b905060008060005b83811015612340578573ffffffffffffffffffffffffffffffffffffffff16600d60006001846122d091906153cd565b815260200190815260200160002060010160009054906101000a900473ffffffffffffffffffffffffffffffffffffffff1673ffffffffffffffffffffffffffffffffffffffff160361232d5760018361232a91906153cd565b92505b808061233890615401565b9150506122a0565b5060008267ffffffffffffffff81111561235d5761235c614c70565b5b60405190808252806020026020018201604052801561239657816020015b61238361457c565b81526020019060019003908161237b5790505b50905060005b848110156126d0578673ffffffffffffffffffffffffffffffffffffffff16600d60006001846123cc91906153cd565b815260200190815260200160002060010160009054906101000a900473ffffffffffffffffffffffffffffffffffffffff1673ffffffffffffffffffffffffffffffffffffffff16036126bd57600060018261242891906153cd565b90506000600d600083815260200190815260200160002090508060405180610140016040529081600082015481526020016001820160009054906101000a900473ffffffffffffffffffffffffffffffffffffffff1673ffffffffffffffffffffffffffffffffffffffff1673ffffffffffffffffffffffffffffffffffffffff1681526020016002820160009054906101000a900473ffffffffffffffffffffffffffffffffffffffff1673ffffffffffffffffffffffffffffffffffffffff1673ffffffffffffffffffffffffffffffffffffffff1681526020016003820154815260200160048201805461251e9061519b565b80601f016020809104026020016040519081016040528092919081815260200182805461254a9061519b565b80156125975780601f1061256c57610100808354040283529160200191612597565b820191906000526020600020905b81548152906001019060200180831161257a57829003601f168201915b505050505081526020016005820160009054906101000a900460ff161515151581526020016006820180546125cb9061519b565b80601f01602080910402602001604051908101604052809291908181526020018280546125f79061519b565b80156126445780601f1061261957610100808354040283529160200191612644565b820191906000526020600020905b81548152906001019060200180831161262757829003601f168201915b505050505081526020016007820160009054906101000a900460ff16151515158152602001600882015481526020016009820160009054906101000a900460ff1615151515815250508486815181106126a05761269f615449565b5b60200260200101819052506001856126b891906153cd565b945050505b80806126c890615401565b91505061239c565b5080945050505050919050565b7f000000000000000000000000000000000000000000000000000000000000000073ffffffffffffffffffffffffffffffffffffffff163373ffffffffffffffffffffffffffffffffffffffff1614612762576040517f639118f900000000000000000000000000000000000000000000000000000000815260040160405180910390fd5b6001600e60008373ffffffffffffffffffffffffffffffffffffffff1673ffffffffffffffffffffffffffffffffffffffff16815260200190815260200160002060006101000a81548160ff02191690831515021790555050565b6000600d60008381526020019081526020016000209050600081600301549050600073ffffffffffffffffffffffffffffffffffffffff168260010160009054906101000a900473ffffffffffffffffffffffffffffffffffffffff1673ffffffffffffffffffffffffffffffffffffffff1603612867576040517f353f261b00000000000000000000000000000000000000000000000000000000815260040160405180910390fd5b670de0b6b3a76400008161287b919061538b565b3410156128b4576040517fae39271d00000000000000000000000000000000000000000000000000000000815260040160405180910390fd5b8160050160009054906101000a900460ff16156128fd576040517fb626467700000000000000000000000000000000000000000000000000000000815260040160405180910390fd5b6129068361371f565b612911303385613426565b7f000000000000000000000000000000000000000000000000000000000000000073ffffffffffffffffffffffffffffffffffffffff166108fc65e35fa931a0009081150290604051600060405180830381858888f1935050505015801561297d573d6000803e3d6000fd5b508160010160009054906101000a900473ffffffffffffffffffffffffffffffffffffffff1673ffffffffffffffffffffffffffffffffffffffff166108fc349081150290604051600060405180830381858888f193505050501580156129e8573d6000803e3d6000fd5b503373ffffffffffffffffffffffffffffffffffffffff167f21a1dc2f11af863c61fb151b1942bbe5a469660af93a3b2b13500071bfb56ead8434604051612a3192919061569c565b60405180910390a2505050565b6060612a498261331a565b6000600660008481526020019081526020016000208054612a699061519b565b80601f0160208091040260200160405190810160405280929190818152602001828054612a959061519b565b8015612ae25780601f10612ab757610100808354040283529160200191612ae2565b820191906000526020600020905b815481529060010190602001808311612ac557829003601f168201915b505050505090506000612af361407b565b90506000815103612b08578192505050612b4b565b600082511115612b3d578082604051602001612b25929190615701565b60405160208183030381529060405292505050612b4b565b612b4684614092565b925050505b919050565b6000670de0b6b3a764000065e35fa931a000612b6c9190615539565b905090565b6000600560008473ffffffffffffffffffffffffffffffffffffffff1673ffffffffffffffffffffffffffffffffffffffff16815260200190815260200160002060008373ffffffffffffffffffffffffffffffffffffffff1673ffffffffffffffffffffffffffffffffffffffff16815260200190815260200160002060009054906101000a900460ff16905092915050565b60003373ffffffffffffffffffffffffffffffffffffffff166009600084815260200190815260200160002060009054906101000a900473ffffffffffffffffffffffffffffffffffffffff1673ffffffffffffffffffffffffffffffffffffffff1603612cf15760006009600084815260200190815260200160002060006101000a81548173ffffffffffffffffffffffffffffffffffffffff021916908373ffffffffffffffffffffffffffffffffffffffff160217905550670de0b6b3a7640000600d600084815260200190815260200160002060030154612cea919061538b565b9050612dae565b670de0b6b3a7640000600a600084815260200190815260200160002060003373ffffffffffffffffffffffffffffffffffffffff1673ffffffffffffffffffffffffffffffffffffffff16815260200190815260200160002054612d55919061538b565b90506000600a600084815260200190815260200160002060003373ffffffffffffffffffffffffffffffffffffffff1673ffffffffffffffffffffffffffffffffffffffff168152602001908152602001600020819055505b3373ffffffffffffffffffffffffffffffffffffffff166108fc829081150290604051600060405180830381858888f19350505050158015612df4573d6000803e3d6000fd5b503373ffffffffffffffffffffffffffffffffffffffff167f1f5acf9de0f79d641b3a98fe391caaf8490bd98efef90c6f59c2efe4ad3701c782604051612e3b9190614eb7565b60405180910390a25050565b60606000612e55600b6137e7565b905060008060005b83811015612ecc578580519060200120600d6000600184612e7e91906153cd565b8152602001908152602001600020600401604051612e9c91906157c8565b604051809103902003612eb957600183612eb691906153cd565b92505b8080612ec490615401565b915050612e5d565b5060008267ffffffffffffffff811115612ee957612ee8614c70565b5b604051908082528060200260200182016040528015612f2257816020015b612f0f61457c565b815260200190600190039081612f075790505b50905060005b8481101561322b578680519060200120600d6000600184612f4991906153cd565b8152602001908152602001600020600401604051612f6791906157c8565b604051809103902003613218576000600182612f8391906153cd565b90506000600d600083815260200190815260200160002090508060405180610140016040529081600082015481526020016001820160009054906101000a900473ffffffffffffffffffffffffffffffffffffffff1673ffffffffffffffffffffffffffffffffffffffff1673ffffffffffffffffffffffffffffffffffffffff1681526020016002820160009054906101000a900473ffffffffffffffffffffffffffffffffffffffff1673ffffffffffffffffffffffffffffffffffffffff1673ffffffffffffffffffffffffffffffffffffffff168152602001600382015481526020016004820180546130799061519b565b80601f01602080910402602001604051908101604052809291908181526020018280546130a59061519b565b80156130f25780601f106130c7576101008083540402835291602001916130f2565b820191906000526020600020905b8154815290600101906020018083116130d557829003601f168201915b505050505081526020016005820160009054906101000a900460ff161515151581526020016006820180546131269061519b565b80601f01602080910402602001604051908101604052809291908181526020018280546131529061519b565b801561319f5780601f106131745761010080835404028352916020019161319f565b820191906000526020600020905b81548152906001019060200180831161318257829003601f168201915b505050505081526020016007820160009054906101000a900460ff16151515158152602001600882015481526020016009820160009054906101000a900460ff1615151515815250508486815181106131fb576131fa615449565b5b602002602001018190525060018561321391906153cd565b945050505b808061322390615401565b915050612f28565b5080945050505050919050565b60007f80ac58cd000000000000000000000000000000000000000000000000000000007bffffffffffffffffffffffffffffffffffffffffffffffffffffffff1916827bffffffffffffffffffffffffffffffffffffffffffffffffffffffff1916148061330357507f5b5e139f000000000000000000000000000000000000000000000000000000007bffffffffffffffffffffffffffffffffffffffffffffffffffffffff1916827bffffffffffffffffffffffffffffffffffffffffffffffffffffffff1916145b806133135750613312826140fa565b5b9050919050565b61332381614164565b613362576040517f08c379a0000000000000000000000000000000000000000000000000000000008152600401613359906155b6565b60405180910390fd5b50565b600033905090565b816004600083815260200190815260200160002060006101000a81548173ffffffffffffffffffffffffffffffffffffffff021916908373ffffffffffffffffffffffffffffffffffffffff160217905550808273ffffffffffffffffffffffffffffffffffffffff166133e0836118cf565b73ffffffffffffffffffffffffffffffffffffffff167f8c5be1e5ebec7d5bd14f71427d1e84f3dd0314c0f7b2291e5b200ac8c7c3b92560405160405180910390a45050565b8273ffffffffffffffffffffffffffffffffffffffff16613446826118cf565b73ffffffffffffffffffffffffffffffffffffffff161461349c576040517f08c379a000000000000000000000000000000000000000000000000000000000815260040161349390615851565b60405180910390fd5b600073ffffffffffffffffffffffffffffffffffffffff168273ffffffffffffffffffffffffffffffffffffffff160361350b576040517f08c379a0000000000000000000000000000000000000000000000000000000008152600401613502906158e3565b60405180910390fd5b61351883838360016141a5565b8273ffffffffffffffffffffffffffffffffffffffff16613538826118cf565b73ffffffffffffffffffffffffffffffffffffffff161461358e576040517f08c379a000000000000000000000000000000000000000000000000000000000815260040161358590615851565b60405180910390fd5b6004600082815260200190815260200160002060006101000a81549073ffffffffffffffffffffffffffffffffffffffff02191690556001600360008573ffffffffffffffffffffffffffffffffffffffff1673ffffffffffffffffffffffffffffffffffffffff168152602001908152602001600020600082825403925050819055506001600360008473ffffffffffffffffffffffffffffffffffffffff1673ffffffffffffffffffffffffffffffffffffffff16815260200190815260200160002060008282540192505081905550816002600083815260200190815260200160002060006101000a81548173ffffffffffffffffffffffffffffffffffffffff021916908373ffffffffffffffffffffffffffffffffffffffff160217905550808273ffffffffffffffffffffffffffffffffffffffff168473ffffffffffffffffffffffffffffffffffffffff167fddf252ad1be2c89b69c2b068fc378daa952ba7f163c4a11628f55a4df523b3ef60405160405180910390a461371a83838360016141ab565b505050565b6000600d60008381526020019081526020016000209050338160010160006101000a81548173ffffffffffffffffffffffffffffffffffffffff021916908373ffffffffffffffffffffffffffffffffffffffff160217905550338160020160006101000a81548173ffffffffffffffffffffffffffffffffffffffff021916908373ffffffffffffffffffffffffffffffffffffffff16021790555060018160070160006101000a81548160ff0219169083151502179055506137e3600c61388a565b5050565b600081600001549050919050565b600080613801836118cf565b90508073ffffffffffffffffffffffffffffffffffffffff168473ffffffffffffffffffffffffffffffffffffffff16148061384357506138428185612b71565b5b8061388157508373ffffffffffffffffffffffffffffffffffffffff1661386984610965565b73ffffffffffffffffffffffffffffffffffffffff16145b91505092915050565b6001816000016000828254019250508190555050565b600073ffffffffffffffffffffffffffffffffffffffff168273ffffffffffffffffffffffffffffffffffffffff160361390f576040517f08c379a00000000000000000000000000000000000000000000000000000000081526004016139069061594f565b60405180910390fd5b61391881614164565b15613958576040517f08c379a000000000000000000000000000000000000000000000000000000000815260040161394f906159bb565b60405180910390fd5b6139666000838360016141a5565b61396f81614164565b156139af576040517f08c379a00000000000000000000000000000000000000000000000000000000081526004016139a6906159bb565b60405180910390fd5b6001600360008473ffffffffffffffffffffffffffffffffffffffff1673ffffffffffffffffffffffffffffffffffffffff16815260200190815260200160002060008282540192505081905550816002600083815260200190815260200160002060006101000a81548173ffffffffffffffffffffffffffffffffffffffff021916908373ffffffffffffffffffffffffffffffffffffffff160217905550808273ffffffffffffffffffffffffffffffffffffffff16600073ffffffffffffffffffffffffffffffffffffffff167fddf252ad1be2c89b69c2b068fc378daa952ba7f163c4a11628f55a4df523b3ef60405160405180910390a4613ab96000838360016141ab565b5050565b613ac682614164565b613b05576040517f08c379a0000000000000000000000000000000000000000000000000000000008152600401613afc90615a4d565b60405180910390fd5b80600660008481526020019081526020016000209081613b259190615c19565b507ff8e1a15aba9398e019f0b49df1a4fde98ee17ae345cb5f6b5e2c27f5033e8ce782604051613b559190614eb7565b60405180910390a15050565b60008511613b9b576040517fae39271d00000000000000000000000000000000000000000000000000000000815260040160405180910390fd5b65e35fa931a0003414613bda576040517fadd23fc100000000000000000000000000000000000000000000000000000000815260040160405180910390fd5b6040518061014001604052808781526020013373ffffffffffffffffffffffffffffffffffffffff1681526020013073ffffffffffffffffffffffffffffffffffffffff168152602001868152602001858152602001841515815260200183815260200160001515815260200182815260200160001515815250600d60008881526020019081526020016000206000820151816000015560208201518160010160006101000a81548173ffffffffffffffffffffffffffffffffffffffff021916908373ffffffffffffffffffffffffffffffffffffffff16021790555060408201518160020160006101000a81548173ffffffffffffffffffffffffffffffffffffffff021916908373ffffffffffffffffffffffffffffffffffffffff160217905550606082015181600301556080820151816004019081613d1e9190615c19565b5060a08201518160050160006101000a81548160ff02191690831515021790555060c0820151816006019081613d549190615c19565b5060e08201518160070160006101000a81548160ff02191690831515021790555061010082015181600801556101208201518160090160006101000a81548160ff0219169083151502179055509050506000811115613dc6578060076000888152602001908152602001600020819055505b613dd1333088613426565b857fea6f1c3b321caf77e01903d5566b3d970b0903a56ed38453cc609b565a9f2a75333088876000604051613e0a959493929190615ceb565b60405180910390a2505050505050565b60006002600083815260200190815260200160002060009054906101000a900473ffffffffffffffffffffffffffffffffffffffff169050919050565b60008160000154905060008111613ea3576040517f08c379a0000000000000000000000000000000000000000000000000000000008152600401613e9a90615d8a565b60405180910390fd5b6001810382600001819055505050565b8173ffffffffffffffffffffffffffffffffffffffff168373ffffffffffffffffffffffffffffffffffffffff1603613f21576040517f08c379a0000000000000000000000000000000000000000000000000000000008152600401613f1890615df6565b60405180910390fd5b80600560008573ffffffffffffffffffffffffffffffffffffffff1673ffffffffffffffffffffffffffffffffffffffff16815260200190815260200160002060008473ffffffffffffffffffffffffffffffffffffffff1673ffffffffffffffffffffffffffffffffffffffff16815260200190815260200160002060006101000a81548160ff0219169083151502179055508173ffffffffffffffffffffffffffffffffffffffff168373ffffffffffffffffffffffffffffffffffffffff167f17307eab39ab6107e8899845ad3d59bd9653f200f220920489ca2b5937696c318360405161401291906146b5565b60405180910390a3505050565b61402a848484613426565b614036848484846141b1565b614075576040517f08c379a000000000000000000000000000000000000000000000000000000000815260040161406c90615e88565b60405180910390fd5b50505050565b606060405180602001604052806000815250905090565b606061409d8261331a565b60006140a761407b565b905060008151116140c757604051806020016040528060008152506140f2565b806140d184614338565b6040516020016140e2929190615701565b6040516020818303038152906040525b915050919050565b60007f01ffc9a7000000000000000000000000000000000000000000000000000000007bffffffffffffffffffffffffffffffffffffffffffffffffffffffff1916827bffffffffffffffffffffffffffffffffffffffffffffffffffffffff1916149050919050565b60008073ffffffffffffffffffffffffffffffffffffffff1661418683613e1a565b73ffffffffffffffffffffffffffffffffffffffff1614159050919050565b50505050565b50505050565b60006141d28473ffffffffffffffffffffffffffffffffffffffff16614406565b1561432b578373ffffffffffffffffffffffffffffffffffffffff1663150b7a026141fb613365565b8786866040518563ffffffff1660e01b815260040161421d9493929190615efd565b6020604051808303816000875af192505050801561425957506040513d601f19601f820116820180604052508101906142569190615f5e565b60015b6142db573d8060008114614289576040519150601f19603f3d011682016040523d82523d6000602084013e61428e565b606091505b5060008151036142d3576040517f08c379a00000000000000000000000000000000000000000000000000000000081526004016142ca90615e88565b60405180910390fd5b805181602001fd5b63150b7a0260e01b7bffffffffffffffffffffffffffffffffffffffffffffffffffffffff1916817bffffffffffffffffffffffffffffffffffffffffffffffffffffffff191614915050614330565b600190505b949350505050565b60606000600161434784614429565b01905060008167ffffffffffffffff81111561436657614365614c70565b5b6040519080825280601f01601f1916602001820160405280156143985781602001600182028036833780820191505090505b509050600082602001820190505b6001156143fb578080600190039150507f3031323334353637383961626364656600000000000000000000000000000000600a86061a8153600a85816143ef576143ee61550a565b5b049450600085036143a6575b819350505050919050565b6000808273ffffffffffffffffffffffffffffffffffffffff163b119050919050565b600080600090507a184f03e93ff9f4daa797ed6e38ed64bf6a1f0100000000000000008310614487577a184f03e93ff9f4daa797ed6e38ed64bf6a1f010000000000000000838161447d5761447c61550a565b5b0492506040810190505b6d04ee2d6d415b85acef810000000083106144c4576d04ee2d6d415b85acef810000000083816144ba576144b961550a565b5b0492506020810190505b662386f26fc1000083106144f357662386f26fc1000083816144e9576144e861550a565b5b0492506010810190505b6305f5e100831061451c576305f5e10083816145125761451161550a565b5b0492506008810190505b61271083106145415761271083816145375761453661550a565b5b0492506004810190505b60648310614564576064838161455a5761455961550a565b5b0492506002810190505b600a8310614573576001810190505b80915050919050565b60405180610140016040528060008152602001600073ffffffffffffffffffffffffffffffffffffffff168152602001600073ffffffffffffffffffffffffffffffffffffffff168152602001600081526020016060815260200160001515815260200160608152602001600015158152602001600081526020016000151581525090565b6000604051905090565b600080fd5b600080fd5b60007fffffffff0000000000000000000000000000000000000000000000000000000082169050919050565b61464a81614615565b811461465557600080fd5b50565b60008135905061466781614641565b92915050565b6000602082840312156146835761468261460b565b5b600061469184828501614658565b91505092915050565b60008115159050919050565b6146af8161469a565b82525050565b60006020820190506146ca60008301846146a6565b92915050565b6000819050919050565b6146e3816146d0565b81146146ee57600080fd5b50565b600081359050614700816146da565b92915050565b60006020828403121561471c5761471b61460b565b5b600061472a848285016146f1565b91505092915050565b600081519050919050565b600082825260208201905092915050565b60005b8381101561476d578082015181840152602081019050614752565b60008484015250505050565b6000601f19601f8301169050919050565b600061479582614733565b61479f818561473e565b93506147af81856020860161474f565b6147b881614779565b840191505092915050565b600060208201905081810360008301526147dd818461478a565b905092915050565b600073ffffffffffffffffffffffffffffffffffffffff82169050919050565b6000614810826147e5565b9050919050565b61482081614805565b82525050565b600060208201905061483b6000830184614817565b92915050565b61484a81614805565b811461485557600080fd5b50565b60008135905061486781614841565b92915050565b600080604083850312156148845761488361460b565b5b600061489285828601614858565b92505060206148a3858286016146f1565b9150509250929050565b600081519050919050565b600082825260208201905092915050565b6000819050602082019050919050565b6148e2816146d0565b82525050565b60006148f3826147e5565b9050919050565b614903816148e8565b82525050565b600082825260208201905092915050565b600061492582614733565b61492f8185614909565b935061493f81856020860161474f565b61494881614779565b840191505092915050565b61495c8161469a565b82525050565b60006101408301600083015161497b60008601826148d9565b50602083015161498e60208601826148fa565b5060408301516149a160408601826148fa565b5060608301516149b460608601826148d9565b50608083015184820360808601526149cc828261491a565b91505060a08301516149e160a0860182614953565b5060c083015184820360c08601526149f9828261491a565b91505060e0830151614a0e60e0860182614953565b50610100830151614a236101008601826148d9565b50610120830151614a38610120860182614953565b508091505092915050565b6000614a4f8383614962565b905092915050565b6000602082019050919050565b6000614a6f826148ad565b614a7981856148b8565b935083602082028501614a8b856148c9565b8060005b85811015614ac75784840389528151614aa88582614a43565b9450614ab383614a57565b925060208a01995050600181019050614a8f565b50829750879550505050505092915050565b60006020820190508181036000830152614af38184614a64565b905092915050565b600080600060608486031215614b1457614b1361460b565b5b6000614b2286828701614858565b9350506020614b3386828701614858565b9250506040614b44868287016146f1565b9150509250925092565b600061014083016000830151614b6760008601826148d9565b506020830151614b7a60208601826148fa565b506040830151614b8d60408601826148fa565b506060830151614ba060608601826148d9565b5060808301518482036080860152614bb8828261491a565b91505060a0830151614bcd60a0860182614953565b5060c083015184820360c0860152614be5828261491a565b91505060e0830151614bfa60e0860182614953565b50610100830151614c0f6101008601826148d9565b50610120830151614c24610120860182614953565b508091505092915050565b60006040820190508181036000830152614c498185614b4e565b90508181036020830152614c5d818461478a565b90509392505050565b600080fd5b600080fd5b7f4e487b7100000000000000000000000000000000000000000000000000000000600052604160045260246000fd5b614ca882614779565b810181811067ffffffffffffffff82111715614cc757614cc6614c70565b5b80604052505050565b6000614cda614601565b9050614ce68282614c9f565b919050565b600067ffffffffffffffff821115614d0657614d05614c70565b5b614d0f82614779565b9050602081019050919050565b82818337600083830152505050565b6000614d3e614d3984614ceb565b614cd0565b905082815260208101848484011115614d5a57614d59614c6b565b5b614d65848285614d1c565b509392505050565b600082601f830112614d8257614d81614c66565b5b8135614d92848260208601614d2b565b91505092915050565b614da48161469a565b8114614daf57600080fd5b50565b600081359050614dc181614d9b565b92915050565b60008060008060008060c08789031215614de457614de361460b565b5b600087013567ffffffffffffffff811115614e0257614e01614610565b5b614e0e89828a01614d6d565b9650506020614e1f89828a016146f1565b955050604087013567ffffffffffffffff811115614e4057614e3f614610565b5b614e4c89828a01614d6d565b9450506060614e5d89828a01614db2565b935050608087013567ffffffffffffffff811115614e7e57614e7d614610565b5b614e8a89828a01614d6d565b92505060a0614e9b89828a016146f1565b9150509295509295509295565b614eb1816146d0565b82525050565b6000602082019050614ecc6000830184614ea8565b92915050565b600060208284031215614ee857614ee761460b565b5b6000614ef684828501614858565b91505092915050565b60008060408385031215614f1657614f1561460b565b5b6000614f24858286016146f1565b9250506020614f35858286016146f1565b9150509250929050565b60008060408385031215614f5657614f5561460b565b5b6000614f6485828601614858565b9250506020614f7585828601614db2565b9150509250929050565b60008060408385031215614f9657614f9561460b565b5b6000614fa4858286016146f1565b9250506020614fb585828601614858565b9150509250929050565b600067ffffffffffffffff821115614fda57614fd9614c70565b5b614fe382614779565b9050602081019050919050565b6000615003614ffe84614fbf565b614cd0565b90508281526020810184848401111561501f5761501e614c6b565b5b61502a848285614d1c565b509392505050565b600082601f83011261504757615046614c66565b5b8135615057848260208601614ff0565b91505092915050565b6000806000806080858703121561507a5761507961460b565b5b600061508887828801614858565b945050602061509987828801614858565b93505060406150aa878288016146f1565b925050606085013567ffffffffffffffff8111156150cb576150ca614610565b5b6150d787828801615032565b91505092959194509250565b600080604083850312156150fa576150f961460b565b5b600061510885828601614858565b925050602061511985828601614858565b9150509250929050565b6000602082840312156151395761513861460b565b5b600082013567ffffffffffffffff81111561515757615156614610565b5b61516384828501614d6d565b91505092915050565b7f4e487b7100000000000000000000000000000000000000000000000000000000600052602260045260246000fd5b600060028204905060018216806151b357607f821691505b6020821081036151c6576151c561516c565b5b50919050565b7f4552433732313a20617070726f76616c20746f2063757272656e74206f776e6560008201527f7200000000000000000000000000000000000000000000000000000000000000602082015250565b600061522860218361473e565b9150615233826151cc565b604082019050919050565b600060208201905081810360008301526152578161521b565b9050919050565b7f4552433732313a20617070726f76652063616c6c6572206973206e6f7420746f60008201527f6b656e206f776e6572206f7220617070726f76656420666f7220616c6c000000602082015250565b60006152ba603d8361473e565b91506152c58261525e565b604082019050919050565b600060208201905081810360008301526152e9816152ad565b9050919050565b7f4e6f7420656e6465640000000000000000000000000000000000000000000000600082015250565b600061532660098361473e565b9150615331826152f0565b602082019050919050565b6000602082019050818103600083015261535581615319565b9050919050565b7f4e487b7100000000000000000000000000000000000000000000000000000000600052601160045260246000fd5b6000615396826146d0565b91506153a1836146d0565b92508282026153af816146d0565b915082820484148315176153c6576153c561535c565b5b5092915050565b60006153d8826146d0565b91506153e3836146d0565b92508282019050808211156153fb576153fa61535c565b5b92915050565b600061540c826146d0565b91507fffffffffffffffffffffffffffffffffffffffffffffffffffffffffffffffff820361543e5761543d61535c565b5b600182019050919050565b7f4e487b7100000000000000000000000000000000000000000000000000000000600052603260045260246000fd5b7f4552433732313a2063616c6c6572206973206e6f7420746f6b656e206f776e6560008201527f72206f7220617070726f76656400000000000000000000000000000000000000602082015250565b60006154d4602d8361473e565b91506154df82615478565b604082019050919050565b60006020820190508181036000830152615503816154c7565b9050919050565b7f4e487b7100000000000000000000000000000000000000000000000000000000600052601260045260246000fd5b6000615544826146d0565b915061554f836146d0565b92508261555f5761555e61550a565b5b828204905092915050565b7f4552433732313a20696e76616c696420746f6b656e2049440000000000000000600082015250565b60006155a060188361473e565b91506155ab8261556a565b602082019050919050565b600060208201905081810360008301526155cf81615593565b9050919050565b7f4552433732313a2061646472657373207a65726f206973206e6f74206120766160008201527f6c6964206f776e65720000000000000000000000000000000000000000000000602082015250565b600061563260298361473e565b915061563d826155d6565b604082019050919050565b6000602082019050818103600083015261566181615625565b9050919050565b6000615673826146d0565b915061567e836146d0565b92508282039050818111156156965761569561535c565b5b92915050565b60006040820190506156b16000830185614ea8565b6156be6020830184614ea8565b9392505050565b600081905092915050565b60006156db82614733565b6156e581856156c5565b93506156f581856020860161474f565b80840191505092915050565b600061570d82856156d0565b915061571982846156d0565b91508190509392505050565b600081905092915050565b60008190508160005260206000209050919050565b600081546157528161519b565b61575c8186615725565b94506001821660008114615777576001811461578c576157bf565b60ff19831686528115158202860193506157bf565b61579585615730565b60005b838110156157b757815481890152600182019150602081019050615798565b838801955050505b50505092915050565b60006157d48284615745565b915081905092915050565b7f4552433732313a207472616e736665722066726f6d20696e636f72726563742060008201527f6f776e6572000000000000000000000000000000000000000000000000000000602082015250565b600061583b60258361473e565b9150615846826157df565b604082019050919050565b6000602082019050818103600083015261586a8161582e565b9050919050565b7f4552433732313a207472616e7366657220746f20746865207a65726f2061646460008201527f7265737300000000000000000000000000000000000000000000000000000000602082015250565b60006158cd60248361473e565b91506158d882615871565b604082019050919050565b600060208201905081810360008301526158fc816158c0565b9050919050565b7f4552433732313a206d696e7420746f20746865207a65726f2061646472657373600082015250565b600061593960208361473e565b915061594482615903565b602082019050919050565b600060208201905081810360008301526159688161592c565b9050919050565b7f4552433732313a20746f6b656e20616c7265616479206d696e74656400000000600082015250565b60006159a5601c8361473e565b91506159b08261596f565b602082019050919050565b600060208201905081810360008301526159d481615998565b9050919050565b7f45524337323155524953746f726167653a2055524920736574206f66206e6f6e60008201527f6578697374656e7420746f6b656e000000000000000000000000000000000000602082015250565b6000615a37602e8361473e565b9150615a42826159db565b604082019050919050565b60006020820190508181036000830152615a6681615a2a565b9050919050565b60008190508160005260206000209050919050565b60006020601f8301049050919050565b600082821b905092915050565b600060088302615acf7fffffffffffffffffffffffffffffffffffffffffffffffffffffffffffffffff82615a92565b615ad98683615a92565b95508019841693508086168417925050509392505050565b6000819050919050565b6000615b16615b11615b0c846146d0565b615af1565b6146d0565b9050919050565b6000819050919050565b615b3083615afb565b615b44615b3c82615b1d565b848454615a9f565b825550505050565b600090565b615b59615b4c565b615b64818484615b27565b505050565b5b81811015615b8857615b7d600082615b51565b600181019050615b6a565b5050565b601f821115615bcd57615b9e81615a6d565b615ba784615a82565b81016020851015615bb6578190505b615bca615bc285615a82565b830182615b69565b50505b505050565b600082821c905092915050565b6000615bf060001984600802615bd2565b1980831691505092915050565b6000615c098383615bdf565b9150826002028217905092915050565b615c2282614733565b67ffffffffffffffff811115615c3b57615c3a614c70565b5b615c45825461519b565b615c50828285615b8c565b600060209050601f831160018114615c835760008415615c71578287015190505b615c7b8582615bfd565b865550615ce3565b601f198416615c9186615a6d565b60005b82811015615cb957848901518255600182019150602085019450602081019050615c94565b86831015615cd65784890151615cd2601f891682615bdf565b8355505b6001600288020188555050505b505050505050565b600060a082019050615d006000830188614817565b615d0d6020830187614817565b615d1a6040830186614ea8565b615d2760608301856146a6565b615d3460808301846146a6565b9695505050505050565b7f436f756e7465723a2064656372656d656e74206f766572666c6f770000000000600082015250565b6000615d74601b8361473e565b9150615d7f82615d3e565b602082019050919050565b60006020820190508181036000830152615da381615d67565b9050919050565b7f4552433732313a20617070726f766520746f2063616c6c657200000000000000600082015250565b6000615de060198361473e565b9150615deb82615daa565b602082019050919050565b60006020820190508181036000830152615e0f81615dd3565b9050919050565b7f4552433732313a207472616e7366657220746f206e6f6e20455243373231526560008201527f63656976657220696d706c656d656e7465720000000000000000000000000000602082015250565b6000615e7260328361473e565b9150615e7d82615e16565b604082019050919050565b60006020820190508181036000830152615ea181615e65565b9050919050565b600081519050919050565b600082825260208201905092915050565b6000615ecf82615ea8565b615ed98185615eb3565b9350615ee981856020860161474f565b615ef281614779565b840191505092915050565b6000608082019050615f126000830187614817565b615f1f6020830186614817565b615f2c6040830185614ea8565b8181036060830152615f3e8184615ec4565b905095945050505050565b600081519050615f5881614641565b92915050565b600060208284031215615f7457615f7361460b565b5b6000615f8284828501615f49565b9150509291505056fea26469706673582212200189472fd47a5cd43887915adc163d63f9c7f4ce402889ca004bbc35ebb4df7164736f6c63430008120033",
  "devdoc": {
    "events": {
      "Approval(address,address,uint256)": {
        "details": "Emitted when `owner` enables `approved` to manage the `tokenId` token."
      },
      "ApprovalForAll(address,address,bool)": {
        "details": "Emitted when `owner` enables or disables (`approved`) `operator` to manage all of its assets."
      },
      "BatchMetadataUpdate(uint256,uint256)": {
        "details": "This event emits when the metadata of a range of tokens is changed. So that the third-party platforms such as NFT market could timely update the images and related attributes of the NFTs."
      },
      "MetadataUpdate(uint256)": {
        "details": "This event emits when the metadata of a token is changed. So that the third-party platforms such as NFT market could timely update the images and related attributes of the NFT."
      },
      "Transfer(address,address,uint256)": {
        "details": "Emitted when `tokenId` token is transferred from `from` to `to`."
      }
    },
    "kind": "dev",
    "methods": {
      "approve(address,uint256)": {
        "details": "See {IERC721-approve}."
      },
      "balanceOf(address)": {
        "details": "See {IERC721-balanceOf}."
      },
      "getApproved(uint256)": {
        "details": "See {IERC721-getApproved}."
      },
      "isApprovedForAll(address,address)": {
        "details": "See {IERC721-isApprovedForAll}."
      },
      "name()": {
        "details": "See {IERC721Metadata-name}."
      },
      "ownerOf(uint256)": {
        "details": "See {IERC721-ownerOf}."
      },
      "safeTransferFrom(address,address,uint256)": {
        "details": "See {IERC721-safeTransferFrom}."
      },
      "safeTransferFrom(address,address,uint256,bytes)": {
        "details": "See {IERC721-safeTransferFrom}."
      },
      "setApprovalForAll(address,bool)": {
        "details": "See {IERC721-setApprovalForAll}."
      },
      "supportsInterface(bytes4)": {
        "details": "See {IERC165-supportsInterface}"
      },
      "symbol()": {
        "details": "See {IERC721Metadata-symbol}."
      },
      "tokenURI(uint256)": {
        "details": "See {IERC721Metadata-tokenURI}."
      },
      "transferFrom(address,address,uint256)": {
        "details": "See {IERC721-transferFrom}."
      }
    },
    "version": 1
  },
  "userdoc": {
    "kind": "user",
    "methods": {},
    "version": 1
  },
  "storageLayout": {
    "storage": [
      {
        "astId": 53,
        "contract": "contracts/NFTMARKETPLACE.sol:NFTMARKETPLACE",
        "label": "_name",
        "offset": 0,
        "slot": "0",
        "type": "t_string_storage"
      },
      {
        "astId": 55,
        "contract": "contracts/NFTMARKETPLACE.sol:NFTMARKETPLACE",
        "label": "_symbol",
        "offset": 0,
        "slot": "1",
        "type": "t_string_storage"
      },
      {
        "astId": 59,
        "contract": "contracts/NFTMARKETPLACE.sol:NFTMARKETPLACE",
        "label": "_owners",
        "offset": 0,
        "slot": "2",
        "type": "t_mapping(t_uint256,t_address)"
      },
      {
        "astId": 63,
        "contract": "contracts/NFTMARKETPLACE.sol:NFTMARKETPLACE",
        "label": "_balances",
        "offset": 0,
        "slot": "3",
        "type": "t_mapping(t_address,t_uint256)"
      },
      {
        "astId": 67,
        "contract": "contracts/NFTMARKETPLACE.sol:NFTMARKETPLACE",
        "label": "_tokenApprovals",
        "offset": 0,
        "slot": "4",
        "type": "t_mapping(t_uint256,t_address)"
      },
      {
        "astId": 73,
        "contract": "contracts/NFTMARKETPLACE.sol:NFTMARKETPLACE",
        "label": "_operatorApprovals",
        "offset": 0,
        "slot": "5",
        "type": "t_mapping(t_address,t_mapping(t_address,t_bool))"
      },
      {
        "astId": 1104,
        "contract": "contracts/NFTMARKETPLACE.sol:NFTMARKETPLACE",
        "label": "_tokenURIs",
        "offset": 0,
        "slot": "6",
        "type": "t_mapping(t_uint256,t_string_storage)"
      },
      {
        "astId": 3032,
        "contract": "contracts/NFTMARKETPLACE.sol:NFTMARKETPLACE",
        "label": "s_endAt",
        "offset": 0,
        "slot": "7",
        "type": "t_mapping(t_uint256,t_uint256)"
      },
      {
        "astId": 3036,
        "contract": "contracts/NFTMARKETPLACE.sol:NFTMARKETPLACE",
        "label": "s_ended",
        "offset": 0,
        "slot": "8",
        "type": "t_mapping(t_uint256,t_bool)"
      },
      {
        "astId": 3040,
        "contract": "contracts/NFTMARKETPLACE.sol:NFTMARKETPLACE",
        "label": "s_highestBidder",
        "offset": 0,
        "slot": "9",
        "type": "t_mapping(t_uint256,t_address)"
      },
      {
        "astId": 3046,
        "contract": "contracts/NFTMARKETPLACE.sol:NFTMARKETPLACE",
        "label": "s_bids",
        "offset": 0,
        "slot": "10",
        "type": "t_mapping(t_uint256,t_mapping(t_address,t_uint256))"
      },
      {
        "astId": 3053,
        "contract": "contracts/NFTMARKETPLACE.sol:NFTMARKETPLACE",
        "label": "s_tokenIds",
        "offset": 0,
        "slot": "11",
        "type": "t_struct(Counter)1629_storage"
      },
      {
        "astId": 3056,
        "contract": "contracts/NFTMARKETPLACE.sol:NFTMARKETPLACE",
        "label": "s_tokensold",
        "offset": 0,
        "slot": "12",
        "type": "t_struct(Counter)1629_storage"
      },
      {
        "astId": 3061,
        "contract": "contracts/NFTMARKETPLACE.sol:NFTMARKETPLACE",
        "label": "s_IdMarketItem",
        "offset": 0,
        "slot": "13",
        "type": "t_mapping(t_uint256,t_struct(MarketItem)3026_storage)"
      },
      {
        "astId": 3065,
        "contract": "contracts/NFTMARKETPLACE.sol:NFTMARKETPLACE",
        "label": "s_members",
        "offset": 0,
        "slot": "14",
        "type": "t_mapping(t_address,t_bool)"
      }
    ],
    "types": {
      "t_address": {
        "encoding": "inplace",
        "label": "address",
        "numberOfBytes": "20"
      },
      "t_address_payable": {
        "encoding": "inplace",
        "label": "address payable",
        "numberOfBytes": "20"
      },
      "t_bool": {
        "encoding": "inplace",
        "label": "bool",
        "numberOfBytes": "1"
      },
      "t_mapping(t_address,t_bool)": {
        "encoding": "mapping",
        "key": "t_address",
        "label": "mapping(address => bool)",
        "numberOfBytes": "32",
        "value": "t_bool"
      },
      "t_mapping(t_address,t_mapping(t_address,t_bool))": {
        "encoding": "mapping",
        "key": "t_address",
        "label": "mapping(address => mapping(address => bool))",
        "numberOfBytes": "32",
        "value": "t_mapping(t_address,t_bool)"
      },
      "t_mapping(t_address,t_uint256)": {
        "encoding": "mapping",
        "key": "t_address",
        "label": "mapping(address => uint256)",
        "numberOfBytes": "32",
        "value": "t_uint256"
      },
      "t_mapping(t_uint256,t_address)": {
        "encoding": "mapping",
        "key": "t_uint256",
        "label": "mapping(uint256 => address)",
        "numberOfBytes": "32",
        "value": "t_address"
      },
      "t_mapping(t_uint256,t_bool)": {
        "encoding": "mapping",
        "key": "t_uint256",
        "label": "mapping(uint256 => bool)",
        "numberOfBytes": "32",
        "value": "t_bool"
      },
      "t_mapping(t_uint256,t_mapping(t_address,t_uint256))": {
        "encoding": "mapping",
        "key": "t_uint256",
        "label": "mapping(uint256 => mapping(address => uint256))",
        "numberOfBytes": "32",
        "value": "t_mapping(t_address,t_uint256)"
      },
      "t_mapping(t_uint256,t_string_storage)": {
        "encoding": "mapping",
        "key": "t_uint256",
        "label": "mapping(uint256 => string)",
        "numberOfBytes": "32",
        "value": "t_string_storage"
      },
      "t_mapping(t_uint256,t_struct(MarketItem)3026_storage)": {
        "encoding": "mapping",
        "key": "t_uint256",
        "label": "mapping(uint256 => struct NFTMARKETPLACE.MarketItem)",
        "numberOfBytes": "32",
        "value": "t_struct(MarketItem)3026_storage"
      },
      "t_mapping(t_uint256,t_uint256)": {
        "encoding": "mapping",
        "key": "t_uint256",
        "label": "mapping(uint256 => uint256)",
        "numberOfBytes": "32",
        "value": "t_uint256"
      },
      "t_string_storage": {
        "encoding": "bytes",
        "label": "string",
        "numberOfBytes": "32"
      },
      "t_struct(Counter)1629_storage": {
        "encoding": "inplace",
        "label": "struct Counters.Counter",
        "members": [
          {
            "astId": 1628,
            "contract": "contracts/NFTMARKETPLACE.sol:NFTMARKETPLACE",
            "label": "_value",
            "offset": 0,
            "slot": "0",
            "type": "t_uint256"
          }
        ],
        "numberOfBytes": "32"
      },
      "t_struct(MarketItem)3026_storage": {
        "encoding": "inplace",
        "label": "struct NFTMARKETPLACE.MarketItem",
        "members": [
          {
            "astId": 3007,
            "contract": "contracts/NFTMARKETPLACE.sol:NFTMARKETPLACE",
            "label": "tokenId",
            "offset": 0,
            "slot": "0",
            "type": "t_uint256"
          },
          {
            "astId": 3009,
            "contract": "contracts/NFTMARKETPLACE.sol:NFTMARKETPLACE",
            "label": "seller",
            "offset": 0,
            "slot": "1",
            "type": "t_address_payable"
          },
          {
            "astId": 3011,
            "contract": "contracts/NFTMARKETPLACE.sol:NFTMARKETPLACE",
            "label": "owner",
            "offset": 0,
            "slot": "2",
            "type": "t_address_payable"
          },
          {
            "astId": 3013,
            "contract": "contracts/NFTMARKETPLACE.sol:NFTMARKETPLACE",
            "label": "price",
            "offset": 0,
            "slot": "3",
            "type": "t_uint256"
          },
          {
            "astId": 3015,
            "contract": "contracts/NFTMARKETPLACE.sol:NFTMARKETPLACE",
            "label": "itemType",
            "offset": 0,
            "slot": "4",
            "type": "t_string_storage"
          },
          {
            "astId": 3017,
            "contract": "contracts/NFTMARKETPLACE.sol:NFTMARKETPLACE",
            "label": "bidding",
            "offset": 0,
            "slot": "5",
            "type": "t_bool"
          },
          {
            "astId": 3019,
            "contract": "contracts/NFTMARKETPLACE.sol:NFTMARKETPLACE",
            "label": "details",
            "offset": 0,
            "slot": "6",
            "type": "t_string_storage"
          },
          {
            "astId": 3021,
            "contract": "contracts/NFTMARKETPLACE.sol:NFTMARKETPLACE",
            "label": "sold",
            "offset": 0,
            "slot": "7",
            "type": "t_bool"
          },
          {
            "astId": 3023,
            "contract": "contracts/NFTMARKETPLACE.sol:NFTMARKETPLACE",
            "label": "timestamp",
            "offset": 0,
            "slot": "8",
            "type": "t_uint256"
          },
          {
            "astId": 3025,
            "contract": "contracts/NFTMARKETPLACE.sol:NFTMARKETPLACE",
            "label": "started",
            "offset": 0,
            "slot": "9",
            "type": "t_bool"
          }
        ],
        "numberOfBytes": "320"
      },
      "t_uint256": {
        "encoding": "inplace",
        "label": "uint256",
        "numberOfBytes": "32"
      }
    }
  }
}