{
  "address": "0x5FbDB2315678afecb367f032d93F642f64180aa3",
  "abi": [
    {
      "inputs": [],
      "stateMutability": "nonpayable",
      "type": "constructor"
    },
    {
      "inputs": [],
      "name": "NFTMARKETPLACE__Ended",
      "type": "error"
    },
    {
      "inputs": [],
      "name": "NFTMARKETPLACE__NotMEMBER",
      "type": "error"
    },
    {
      "inputs": [],
      "name": "NFTMARKETPLACE__NotStarted",
      "type": "error"
    },
    {
      "inputs": [],
      "name": "NFTMARKETPLACE__OnlyForBidding",
      "type": "error"
    },
    {
      "inputs": [],
      "name": "NFTMARKETPLACE__OnlyOwner",
      "type": "error"
    },
    {
      "inputs": [],
      "name": "NFTMARKETPLACE__TokenNotExist",
      "type": "error"
    },
    {
      "inputs": [],
      "name": "NFTMARKETPLACE__UnAuthorized",
      "type": "error"
    },
    {
      "inputs": [],
      "name": "NFTMARKETPLACE__lowListingPrice",
      "type": "error"
    },
    {
      "inputs": [],
      "name": "NFTMARKETPLACE__lowPrice",
      "type": "error"
    },
    {
      "anonymous": false,
      "inputs": [
        {
          "indexed": true,
          "internalType": "address",
          "name": "owner",
          "type": "address"
        },
        {
          "indexed": true,
          "internalType": "address",
          "name": "approved",
          "type": "address"
        },
        {
          "indexed": true,
          "internalType": "uint256",
          "name": "tokenId",
          "type": "uint256"
        }
      ],
      "name": "Approval",
      "type": "event"
    },
    {
      "anonymous": false,
      "inputs": [
        {
          "indexed": true,
          "internalType": "address",
          "name": "owner",
          "type": "address"
        },
        {
          "indexed": true,
          "internalType": "address",
          "name": "operator",
          "type": "address"
        },
        {
          "indexed": false,
          "internalType": "bool",
          "name": "approved",
          "type": "bool"
        }
      ],
      "name": "ApprovalForAll",
      "type": "event"
    },
    {
      "anonymous": false,
      "inputs": [
        {
          "indexed": false,
          "internalType": "uint256",
          "name": "_fromTokenId",
          "type": "uint256"
        },
        {
          "indexed": false,
          "internalType": "uint256",
          "name": "_toTokenId",
          "type": "uint256"
        }
      ],
      "name": "BatchMetadataUpdate",
      "type": "event"
    },
    {
      "anonymous": false,
      "inputs": [
        {
          "indexed": true,
          "internalType": "address",
          "name": "sender",
          "type": "address"
        },
        {
          "indexed": false,
          "internalType": "uint256",
          "name": "amount",
          "type": "uint256"
        }
      ],
      "name": "Bid",
      "type": "event"
    },
    {
      "anonymous": false,
      "inputs": [
        {
          "indexed": true,
          "internalType": "address",
          "name": "buyer",
          "type": "address"
        },
        {
          "indexed": false,
          "internalType": "uint256",
          "name": "tokenId",
          "type": "uint256"
        },
        {
          "indexed": false,
          "internalType": "uint256",
          "name": "price",
          "type": "uint256"
        }
      ],
      "name": "CreateMarketSale",
      "type": "event"
    },
    {
      "anonymous": false,
      "inputs": [
        {
          "indexed": true,
          "internalType": "address",
          "name": "highestBidder",
          "type": "address"
        },
        {
          "indexed": false,
          "internalType": "uint256",
          "name": "highestBid",
          "type": "uint256"
        }
      ],
      "name": "End",
      "type": "event"
    },
    {
      "anonymous": false,
      "inputs": [
        {
          "indexed": false,
          "internalType": "uint256",
          "name": "_tokenId",
          "type": "uint256"
        }
      ],
      "name": "MetadataUpdate",
      "type": "event"
    },
    {
      "anonymous": false,
      "inputs": [
        {
          "indexed": true,
          "internalType": "address",
          "name": "seller",
          "type": "address"
        },
        {
          "indexed": false,
          "internalType": "uint256",
          "name": "price",
          "type": "uint256"
        }
      ],
      "name": "Resell",
      "type": "event"
    },
    {
      "anonymous": false,
      "inputs": [
        {
          "indexed": true,
          "internalType": "address",
          "name": "from",
          "type": "address"
        },
        {
          "indexed": true,
          "internalType": "address",
          "name": "to",
          "type": "address"
        },
        {
          "indexed": true,
          "internalType": "uint256",
          "name": "tokenId",
          "type": "uint256"
        }
      ],
      "name": "Transfer",
      "type": "event"
    },
    {
      "anonymous": false,
      "inputs": [
        {
          "indexed": true,
          "internalType": "address",
          "name": "bidder",
          "type": "address"
        },
        {
          "indexed": false,
          "internalType": "uint256",
          "name": "amount",
          "type": "uint256"
        }
      ],
      "name": "WithdrawBids",
      "type": "event"
    },
    {
      "anonymous": false,
      "inputs": [
        {
          "indexed": true,
          "internalType": "uint256",
          "name": "tokenId",
          "type": "uint256"
        },
        {
          "indexed": false,
          "internalType": "address",
          "name": "seller",
          "type": "address"
        },
        {
          "indexed": false,
          "internalType": "address",
          "name": "owner",
          "type": "address"
        },
        {
          "indexed": false,
          "internalType": "uint256",
          "name": "price",
          "type": "uint256"
        },
        {
          "indexed": false,
          "internalType": "bool",
          "name": "bidding",
          "type": "bool"
        },
        {
          "indexed": false,
          "internalType": "bool",
          "name": "sold",
          "type": "bool"
        }
      ],
      "name": "idMarketCreated",
      "type": "event"
    },
    {
      "inputs": [
        {
          "internalType": "address",
          "name": "_member",
          "type": "address"
        }
      ],
      "name": "addmember",
      "outputs": [],
      "stateMutability": "nonpayable",
      "type": "function"
    },
    {
      "inputs": [
        {
          "internalType": "address",
          "name": "to",
          "type": "address"
        },
        {
          "internalType": "uint256",
          "name": "tokenId",
          "type": "uint256"
        }
      ],
      "name": "approve",
      "outputs": [],
      "stateMutability": "nonpayable",
      "type": "function"
    },
    {
      "inputs": [
        {
          "internalType": "address",
          "name": "owner",
          "type": "address"
        }
      ],
      "name": "balanceOf",
      "outputs": [
        {
          "internalType": "uint256",
          "name": "",
          "type": "uint256"
        }
      ],
      "stateMutability": "view",
      "type": "function"
    },
    {
      "inputs": [
        {
          "internalType": "uint256",
          "name": "tokenId",
          "type": "uint256"
        }
      ],
      "name": "bid",
      "outputs": [],
      "stateMutability": "payable",
      "type": "function"
    },
    {
      "inputs": [
        {
          "internalType": "uint256",
          "name": "tokenId",
          "type": "uint256"
        }
      ],
      "name": "createMarketSale",
      "outputs": [],
      "stateMutability": "payable",
      "type": "function"
    },
    {
      "inputs": [
        {
          "internalType": "string",
          "name": "tokenUrl",
          "type": "string"
        },
        {
          "internalType": "uint256",
          "name": "price",
          "type": "uint256"
        },
        {
          "internalType": "string",
          "name": "itemType",
          "type": "string"
        },
        {
          "internalType": "bool",
          "name": "bidding",
          "type": "bool"
        },
        {
          "internalType": "string",
          "name": "_details",
          "type": "string"
        },
        {
          "internalType": "uint256",
          "name": "timestamp",
          "type": "uint256"
        }
      ],
      "name": "createToken",
      "outputs": [
        {
          "internalType": "uint256",
          "name": "",
          "type": "uint256"
        }
      ],
      "stateMutability": "payable",
      "type": "function"
    },
    {
      "inputs": [
        {
          "internalType": "uint256",
          "name": "tokenId",
          "type": "uint256"
        }
      ],
      "name": "end",
      "outputs": [],
      "stateMutability": "nonpayable",
      "type": "function"
    },
    {
      "inputs": [],
      "name": "fetchMarketItem",
      "outputs": [
        {
          "components": [
            {
              "internalType": "uint256",
              "name": "tokenId",
              "type": "uint256"
            },
            {
              "internalType": "address payable",
              "name": "seller",
              "type": "address"
            },
            {
              "internalType": "address payable",
              "name": "owner",
              "type": "address"
            },
            {
              "internalType": "uint256",
              "name": "price",
              "type": "uint256"
            },
            {
              "internalType": "string",
              "name": "itemType",
              "type": "string"
            },
            {
              "internalType": "bool",
              "name": "bidding",
              "type": "bool"
            },
            {
              "internalType": "string",
              "name": "details",
              "type": "string"
            },
            {
              "internalType": "bool",
              "name": "sold",
              "type": "bool"
            },
            {
              "internalType": "uint256",
              "name": "timestamp",
              "type": "uint256"
            },
            {
              "internalType": "bool",
              "name": "started",
              "type": "bool"
            }
          ],
          "internalType": "struct NFTMARKETPLACE.MarketItem[]",
          "name": "",
          "type": "tuple[]"
        }
      ],
      "stateMutability": "view",
      "type": "function"
    },
    {
      "inputs": [],
      "name": "fetchMyNFTs",
      "outputs": [
        {
          "components": [
            {
              "internalType": "uint256",
              "name": "tokenId",
              "type": "uint256"
            },
            {
              "internalType": "address payable",
              "name": "seller",
              "type": "address"
            },
            {
              "internalType": "address payable",
              "name": "owner",
              "type": "address"
            },
            {
              "internalType": "uint256",
              "name": "price",
              "type": "uint256"
            },
            {
              "internalType": "string",
              "name": "itemType",
              "type": "string"
            },
            {
              "internalType": "bool",
              "name": "bidding",
              "type": "bool"
            },
            {
              "internalType": "string",
              "name": "details",
              "type": "string"
            },
            {
              "internalType": "bool",
              "name": "sold",
              "type": "bool"
            },
            {
              "internalType": "uint256",
              "name": "timestamp",
              "type": "uint256"
            },
            {
              "internalType": "bool",
              "name": "started",
              "type": "bool"
            }
          ],
          "internalType": "struct NFTMARKETPLACE.MarketItem[]",
          "name": "",
          "type": "tuple[]"
        }
      ],
      "stateMutability": "view",
      "type": "function"
    },
    {
      "inputs": [
        {
          "internalType": "uint256",
          "name": "tokenId",
          "type": "uint256"
        }
      ],
      "name": "fetchNFTsDetails",
      "outputs": [
        {
          "components": [
            {
              "internalType": "uint256",
              "name": "tokenId",
              "type": "uint256"
            },
            {
              "internalType": "address payable",
              "name": "seller",
              "type": "address"
            },
            {
              "internalType": "address payable",
              "name": "owner",
              "type": "address"
            },
            {
              "internalType": "uint256",
              "name": "price",
              "type": "uint256"
            },
            {
              "internalType": "string",
              "name": "itemType",
              "type": "string"
            },
            {
              "internalType": "bool",
              "name": "bidding",
              "type": "bool"
            },
            {
              "internalType": "string",
              "name": "details",
              "type": "string"
            },
            {
              "internalType": "bool",
              "name": "sold",
              "type": "bool"
            },
            {
              "internalType": "uint256",
              "name": "timestamp",
              "type": "uint256"
            },
            {
              "internalType": "bool",
              "name": "started",
              "type": "bool"
            }
          ],
          "internalType": "struct NFTMARKETPLACE.MarketItem",
          "name": "",
          "type": "tuple"
        },
        {
          "internalType": "string",
          "name": "",
          "type": "string"
        }
      ],
      "stateMutability": "view",
      "type": "function"
    },
    {
      "inputs": [
        {
          "internalType": "uint256",
          "name": "tokenId",
          "type": "uint256"
        }
      ],
      "name": "fetchTokenUrl",
      "outputs": [
        {
          "internalType": "string",
          "name": "",
          "type": "string"
        }
      ],
      "stateMutability": "view",
      "type": "function"
    },
    {
      "inputs": [
        {
          "internalType": "address",
          "name": "_owner",
          "type": "address"
        }
      ],
      "name": "filterNftByAdress",
      "outputs": [
        {
          "components": [
            {
              "internalType": "uint256",
              "name": "tokenId",
              "type": "uint256"
            },
            {
              "internalType": "address payable",
              "name": "seller",
              "type": "address"
            },
            {
              "internalType": "address payable",
              "name": "owner",
              "type": "address"
            },
            {
              "internalType": "uint256",
              "name": "price",
              "type": "uint256"
            },
            {
              "internalType": "string",
              "name": "itemType",
              "type": "string"
            },
            {
              "internalType": "bool",
              "name": "bidding",
              "type": "bool"
            },
            {
              "internalType": "string",
              "name": "details",
              "type": "string"
            },
            {
              "internalType": "bool",
              "name": "sold",
              "type": "bool"
            },
            {
              "internalType": "uint256",
              "name": "timestamp",
              "type": "uint256"
            },
            {
              "internalType": "bool",
              "name": "started",
              "type": "bool"
            }
          ],
          "internalType": "struct NFTMARKETPLACE.MarketItem[]",
          "name": "",
          "type": "tuple[]"
        }
      ],
      "stateMutability": "view",
      "type": "function"
    },
    {
      "inputs": [
        {
          "internalType": "string",
          "name": "cat",
          "type": "string"
        }
      ],
      "name": "filterNftCat",
      "outputs": [
        {
          "components": [
            {
              "internalType": "uint256",
              "name": "tokenId",
              "type": "uint256"
            },
            {
              "internalType": "address payable",
              "name": "seller",
              "type": "address"
            },
            {
              "internalType": "address payable",
              "name": "owner",
              "type": "address"
            },
            {
              "internalType": "uint256",
              "name": "price",
              "type": "uint256"
            },
            {
              "internalType": "string",
              "name": "itemType",
              "type": "string"
            },
            {
              "internalType": "bool",
              "name": "bidding",
              "type": "bool"
            },
            {
              "internalType": "string",
              "name": "details",
              "type": "string"
            },
            {
              "internalType": "bool",
              "name": "sold",
              "type": "bool"
            },
            {
              "internalType": "uint256",
              "name": "timestamp",
              "type": "uint256"
            },
            {
              "internalType": "bool",
              "name": "started",
              "type": "bool"
            }
          ],
          "internalType": "struct NFTMARKETPLACE.MarketItem[]",
          "name": "",
          "type": "tuple[]"
        }
      ],
      "stateMutability": "view",
      "type": "function"
    },
    {
      "inputs": [
        {
          "internalType": "uint256",
          "name": "tokenId",
          "type": "uint256"
        }
      ],
      "name": "getApproved",
      "outputs": [
        {
          "internalType": "address",
          "name": "",
          "type": "address"
        }
      ],
      "stateMutability": "view",
      "type": "function"
    },
    {
      "inputs": [],
      "name": "getListing",
      "outputs": [
        {
          "internalType": "uint256",
          "name": "",
          "type": "uint256"
        }
      ],
      "stateMutability": "pure",
      "type": "function"
    },
    {
      "inputs": [],
      "name": "getOwner",
      "outputs": [
        {
          "internalType": "address",
          "name": "",
          "type": "address"
        }
      ],
      "stateMutability": "view",
      "type": "function"
    },
    {
      "inputs": [
        {
          "internalType": "address",
          "name": "owner",
          "type": "address"
        },
        {
          "internalType": "address",
          "name": "operator",
          "type": "address"
        }
      ],
      "name": "isApprovedForAll",
      "outputs": [
        {
          "internalType": "bool",
          "name": "",
          "type": "bool"
        }
      ],
      "stateMutability": "view",
      "type": "function"
    },
    {
      "inputs": [],
      "name": "name",
      "outputs": [
        {
          "internalType": "string",
          "name": "",
          "type": "string"
        }
      ],
      "stateMutability": "view",
      "type": "function"
    },
    {
      "inputs": [
        {
          "internalType": "uint256",
          "name": "tokenId",
          "type": "uint256"
        }
      ],
      "name": "ownerOf",
      "outputs": [
        {
          "internalType": "address",
          "name": "",
          "type": "address"
        }
      ],
      "stateMutability": "view",
      "type": "function"
    },
    {
      "inputs": [
        {
          "internalType": "uint256",
          "name": "tokenId",
          "type": "uint256"
        },
        {
          "internalType": "uint256",
          "name": "price",
          "type": "uint256"
        }
      ],
      "name": "reSellToken",
      "outputs": [],
      "stateMutability": "payable",
      "type": "function"
    },
    {
      "inputs": [
        {
          "internalType": "uint256",
          "name": "",
          "type": "uint256"
        },
        {
          "internalType": "address",
          "name": "",
          "type": "address"
        }
      ],
      "name": "s_bids",
      "outputs": [
        {
          "internalType": "uint256",
          "name": "",
          "type": "uint256"
        }
      ],
      "stateMutability": "view",
      "type": "function"
    },
    {
      "inputs": [
        {
          "internalType": "address",
          "name": "from",
          "type": "address"
        },
        {
          "internalType": "address",
          "name": "to",
          "type": "address"
        },
        {
          "internalType": "uint256",
          "name": "tokenId",
          "type": "uint256"
        }
      ],
      "name": "safeTransferFrom",
      "outputs": [],
      "stateMutability": "nonpayable",
      "type": "function"
    },
    {
      "inputs": [
        {
          "internalType": "address",
          "name": "from",
          "type": "address"
        },
        {
          "internalType": "address",
          "name": "to",
          "type": "address"
        },
        {
          "internalType": "uint256",
          "name": "tokenId",
          "type": "uint256"
        },
        {
          "internalType": "bytes",
          "name": "data",
          "type": "bytes"
        }
      ],
      "name": "safeTransferFrom",
      "outputs": [],
      "stateMutability": "nonpayable",
      "type": "function"
    },
    {
      "inputs": [
        {
          "internalType": "address",
          "name": "operator",
          "type": "address"
        },
        {
          "internalType": "bool",
          "name": "approved",
          "type": "bool"
        }
      ],
      "name": "setApprovalForAll",
      "outputs": [],
      "stateMutability": "nonpayable",
      "type": "function"
    },
    {
      "inputs": [
        {
          "internalType": "uint256",
          "name": "tokenId",
          "type": "uint256"
        }
      ],
      "name": "startAuction",
      "outputs": [],
      "stateMutability": "nonpayable",
      "type": "function"
    },
    {
      "inputs": [
        {
          "internalType": "bytes4",
          "name": "interfaceId",
          "type": "bytes4"
        }
      ],
      "name": "supportsInterface",
      "outputs": [
        {
          "internalType": "bool",
          "name": "",
          "type": "bool"
        }
      ],
      "stateMutability": "view",
      "type": "function"
    },
    {
      "inputs": [],
      "name": "symbol",
      "outputs": [
        {
          "internalType": "string",
          "name": "",
          "type": "string"
        }
      ],
      "stateMutability": "view",
      "type": "function"
    },
    {
      "inputs": [
        {
          "internalType": "uint256",
          "name": "tokenId",
          "type": "uint256"
        }
      ],
      "name": "tokenURI",
      "outputs": [
        {
          "internalType": "string",
          "name": "",
          "type": "string"
        }
      ],
      "stateMutability": "view",
      "type": "function"
    },
    {
      "inputs": [
        {
          "internalType": "address",
          "name": "from",
          "type": "address"
        },
        {
          "internalType": "address",
          "name": "to",
          "type": "address"
        },
        {
          "internalType": "uint256",
          "name": "tokenId",
          "type": "uint256"
        }
      ],
      "name": "transferFrom",
      "outputs": [],
      "stateMutability": "nonpayable",
      "type": "function"
    },
    {
      "inputs": [
        {
          "internalType": "uint256",
          "name": "tokenId",
          "type": "uint256"
        }
      ],
      "name": "withdrawBids",
      "outputs": [],
      "stateMutability": "nonpayable",
      "type": "function"
    }
  ],
  "transactionHash": "0x2278742eef3df864dc0826190b42ea628ccbcc0dc3f48a1b00a2ea8a3eb07cca",
  "args": [],
  "numDeployments": 1,
  "solcInputHash": "3f765ffe0b6629c51d01aeccc3f0ab31",
  "bytecode": "0x60a06040523480156200001157600080fd5b506040518060400160405280601081526020017f535452454554204e465420544f4b454e000000000000000000000000000000008152506040518060400160405280600781526020017f535452544e46540000000000000000000000000000000000000000000000000081525081600090816200008f919062000358565b508060019081620000a1919062000358565b5050503373ffffffffffffffffffffffffffffffffffffffff1660808173ffffffffffffffffffffffffffffffffffffffff16815250506200043f565b600081519050919050565b7f4e487b7100000000000000000000000000000000000000000000000000000000600052604160045260246000fd5b7f4e487b7100000000000000000000000000000000000000000000000000000000600052602260045260246000fd5b600060028204905060018216806200016057607f821691505b60208210810362000176576200017562000118565b5b50919050565b60008190508160005260206000209050919050565b60006020601f8301049050919050565b600082821b905092915050565b600060088302620001e07fffffffffffffffffffffffffffffffffffffffffffffffffffffffffffffffff82620001a1565b620001ec8683620001a1565b95508019841693508086168417925050509392505050565b6000819050919050565b6000819050919050565b600062000239620002336200022d8462000204565b6200020e565b62000204565b9050919050565b6000819050919050565b620002558362000218565b6200026d620002648262000240565b848454620001ae565b825550505050565b600090565b6200028462000275565b620002918184846200024a565b505050565b5b81811015620002b957620002ad6000826200027a565b60018101905062000297565b5050565b601f8211156200030857620002d2816200017c565b620002dd8462000191565b81016020851015620002ed578190505b62000305620002fc8562000191565b83018262000296565b50505b505050565b600082821c905092915050565b60006200032d600019846008026200030d565b1980831691505092915050565b60006200034883836200031a565b9150826002028217905092915050565b6200036382620000de565b67ffffffffffffffff8111156200037f576200037e620000e9565b5b6200038b825462000147565b62000398828285620002bd565b600060209050601f831160018114620003d05760008415620003bb578287015190505b620003c785826200033a565b86555062000437565b601f198416620003e0866200017c565b60005b828110156200040a57848901518255600182019150602085019450602081019050620003e3565b868310156200042a578489015162000426601f8916826200031a565b8355505b6001600288020188555050505b505050505050565b608051615f6e62000477600039600081816114fe01528181611a1001528181611d170152818161268c01526128c00152615f6e6000f3fe6080604052600436106101cd5760003560e01c806385535b25116100f7578063bbc80ead11610095578063e0a41cf211610064578063e0a41cf21461069b578063e985e9c5146106c6578063edb5f90514610703578063f0360f001461072c576101cd565b8063bbc80ead146105dc578063bc0e872d14610619578063be9af53614610642578063c87b56dd1461065e576101cd565b806395d89b41116100d157806395d89b4114610522578063a22cb4651461054d578063b00363ca14610576578063b88d4fde146105b3576101cd565b806385535b25146104b0578063893d20e8146104cc5780638fafd021146104f7576101cd565b8063202e37401161016f57806342842e0e1161013e57806342842e0e146103f1578063454a2ab31461041a5780636352211e1461043657806370a0823114610473576101cd565b8063202e37401461032f57806323b872dd1461035a578063330d183d14610383578063358b5644146103c1576101cd565b8063081812fc116101ab578063081812fc14610263578063095ea7b3146102a05780630ad24528146102c957806313a17ac7146102f2576101cd565b806301ffc9a7146101d2578063065de74c1461020f57806306fdde0314610238575b600080fd5b3480156101de57600080fd5b506101f960048036038101906101f4919061461a565b610769565b6040516102069190614662565b60405180910390f35b34801561021b57600080fd5b50610236600480360381019061023191906146b3565b6107ca565b005b34801561024457600080fd5b5061024d6108d3565b60405161025a9190614770565b60405180910390f35b34801561026f57600080fd5b5061028a600480360381019061028591906146b3565b610965565b60405161029791906147d3565b60405180910390f35b3480156102ac57600080fd5b506102c760048036038101906102c2919061481a565b6109ab565b005b3480156102d557600080fd5b506102f060048036038101906102eb91906146b3565b610ac2565b005b3480156102fe57600080fd5b50610319600480360381019061031491906146b3565b610d65565b6040516103269190614770565b60405180910390f35b34801561033b57600080fd5b50610344610d77565b6040516103519190614a86565b60405180910390f35b34801561036657600080fd5b50610381600480360381019061037c9190614aa8565b6111c8565b005b34801561038f57600080fd5b506103aa60048036038101906103a591906146b3565b611228565b6040516103b8929190614bdc565b60405180910390f35b6103db60048036038101906103d69190614d74565b6114a5565b6040516103e89190614e64565b60405180910390f35b3480156103fd57600080fd5b5061041860048036038101906104139190614aa8565b6115cc565b005b610434600480360381019061042f91906146b3565b6115ec565b005b34801561044257600080fd5b5061045d600480360381019061045891906146b3565b61187c565b60405161046a91906147d3565b60405180910390f35b34801561047f57600080fd5b5061049a60048036038101906104959190614e7f565b611902565b6040516104a79190614e64565b60405180910390f35b6104ca60048036038101906104c59190614eac565b6119b9565b005b3480156104d857600080fd5b506104e1611d13565b6040516104ee91906147d3565b60405180910390f35b34801561050357600080fd5b5061050c611d3b565b6040516105199190614a86565b60405180910390f35b34801561052e57600080fd5b50610537612108565b6040516105449190614770565b60405180910390f35b34801561055957600080fd5b50610574600480360381019061056f9190614eec565b61219a565b005b34801561058257600080fd5b5061059d60048036038101906105989190614f2c565b6121b0565b6040516105aa9190614e64565b60405180910390f35b3480156105bf57600080fd5b506105da60048036038101906105d5919061500d565b6121d5565b005b3480156105e857600080fd5b5061060360048036038101906105fe9190614e7f565b612237565b6040516106109190614a86565b60405180910390f35b34801561062557600080fd5b50610640600480360381019061063b9190614e7f565b61268a565b005b61065c600480360381019061065791906146b3565b61276a565b005b34801561066a57600080fd5b50610685600480360381019061068091906146b3565b6129eb565b6040516106929190614770565b60405180910390f35b3480156106a757600080fd5b506106b0612afd565b6040516106bd9190614e64565b60405180910390f35b3480156106d257600080fd5b506106ed60048036038101906106e89190615090565b612b1e565b6040516106fa9190614662565b60405180910390f35b34801561070f57600080fd5b5061072a600480360381019061072591906146b3565b612bb2565b005b34801561073857600080fd5b50610753600480360381019061074e91906150d0565b612df4565b6040516107609190614a86565b60405180910390f35b6000634906490660e01b7bffffffffffffffffffffffffffffffffffffffffffffffffffffffff1916827bffffffffffffffffffffffffffffffffffffffffffffffffffffffff191614806107c357506107c2826131e5565b5b9050919050565b6000600d600083815260200190815260200160002090503373ffffffffffffffffffffffffffffffffffffffff168160010160009054906101000a900473ffffffffffffffffffffffffffffffffffffffff1673ffffffffffffffffffffffffffffffffffffffff161461086a576040517f5559881a00000000000000000000000000000000000000000000000000000000815260040160405180910390fd5b8060050160009054906101000a900460ff166108b2576040517fb626467700000000000000000000000000000000000000000000000000000000815260040160405180910390fd5b60018160090160006101000a81548160ff0219169083151502179055505050565b6060600080546108e290615148565b80601f016020809104026020016040519081016040528092919081815260200182805461090e90615148565b801561095b5780601f106109305761010080835404028352916020019161095b565b820191906000526020600020905b81548152906001019060200180831161093e57829003601f168201915b5050505050905090565b6000610970826132c7565b6004600083815260200190815260200160002060009054906101000a900473ffffffffffffffffffffffffffffffffffffffff169050919050565b60006109b68261187c565b90508073ffffffffffffffffffffffffffffffffffffffff168373ffffffffffffffffffffffffffffffffffffffff1603610a26576040517f08c379a0000000000000000000000000000000000000000000000000000000008152600401610a1d906151eb565b60405180910390fd5b8073ffffffffffffffffffffffffffffffffffffffff16610a45613312565b73ffffffffffffffffffffffffffffffffffffffff161480610a745750610a7381610a6e613312565b612b1e565b5b610ab3576040517f08c379a0000000000000000000000000000000000000000000000000000000008152600401610aaa9061527d565b60405180910390fd5b610abd838361331a565b505050565b6000600d600083815260200190815260200160002090506008600083815260200190815260200160002060009054906101000a900460ff1615610b31576040517f62db152f00000000000000000000000000000000000000000000000000000000815260040160405180910390fd5b6007600083815260200190815260200160002054421015610b87576040517f08c379a0000000000000000000000000000000000000000000000000000000008152600401610b7e906152e9565b60405180910390fd5b60016008600084815260200190815260200160002060006101000a81548160ff02191690831515021790555060006009600084815260200190815260200160002060009054906101000a900473ffffffffffffffffffffffffffffffffffffffff169050600073ffffffffffffffffffffffffffffffffffffffff168173ffffffffffffffffffffffffffffffffffffffff1614610cde57610c4e308360010160009054906101000a900473ffffffffffffffffffffffffffffffffffffffff16856133d3565b8160010160009054906101000a900473ffffffffffffffffffffffffffffffffffffffff1673ffffffffffffffffffffffffffffffffffffffff166108fc670de0b6b3a76400008460030154610ca49190615338565b9081150290604051600060405180830381858888f19350505050158015610ccf573d6000803e3d6000fd5b50610cd9836136cc565b610d0e565b610d0d308360010160009054906101000a900473ffffffffffffffffffffffffffffffffffffffff16856133d3565b5b8073ffffffffffffffffffffffffffffffffffffffff167f7d7570b046e5ead3a4f3fbc9fa2445113625a1e79823776146316bafed6b8cc58360030154604051610d589190614e64565b60405180910390a2505050565b6060610d70826129eb565b9050919050565b60606000610d85600b613794565b905060008060005b83811015610e2d573373ffffffffffffffffffffffffffffffffffffffff16600d6000600184610dbd919061537a565b815260200190815260200160002060020160009054906101000a900473ffffffffffffffffffffffffffffffffffffffff1673ffffffffffffffffffffffffffffffffffffffff1603610e1a57600183610e17919061537a565b92505b8080610e25906153ae565b915050610d8d565b5060008267ffffffffffffffff811115610e4a57610e49614c1d565b5b604051908082528060200260200182016040528015610e8357816020015b610e70614529565b815260200190600190039081610e685790505b50905060005b848110156111bd573373ffffffffffffffffffffffffffffffffffffffff16600d6000600184610eb9919061537a565b815260200190815260200160002060020160009054906101000a900473ffffffffffffffffffffffffffffffffffffffff1673ffffffffffffffffffffffffffffffffffffffff16036111aa576000600182610f15919061537a565b90506000600d600083815260200190815260200160002090508060405180610140016040529081600082015481526020016001820160009054906101000a900473ffffffffffffffffffffffffffffffffffffffff1673ffffffffffffffffffffffffffffffffffffffff1673ffffffffffffffffffffffffffffffffffffffff1681526020016002820160009054906101000a900473ffffffffffffffffffffffffffffffffffffffff1673ffffffffffffffffffffffffffffffffffffffff1673ffffffffffffffffffffffffffffffffffffffff1681526020016003820154815260200160048201805461100b90615148565b80601f016020809104026020016040519081016040528092919081815260200182805461103790615148565b80156110845780601f1061105957610100808354040283529160200191611084565b820191906000526020600020905b81548152906001019060200180831161106757829003601f168201915b505050505081526020016005820160009054906101000a900460ff161515151581526020016006820180546110b890615148565b80601f01602080910402602001604051908101604052809291908181526020018280546110e490615148565b80156111315780601f1061110657610100808354040283529160200191611131565b820191906000526020600020905b81548152906001019060200180831161111457829003601f168201915b505050505081526020016007820160009054906101000a900460ff16151515158152602001600882015481526020016009820160009054906101000a900460ff16151515158152505084868151811061118d5761118c6153f6565b5b60200260200101819052506001856111a5919061537a565b945050505b80806111b5906153ae565b915050610e89565b508094505050505090565b6111d96111d3613312565b826137a2565b611218576040517f08c379a000000000000000000000000000000000000000000000000000000000815260040161120f90615497565b60405180910390fd5b6112238383836133d3565b505050565b611230614529565b6060600d600084815260200190815260200160002061124e846129eb565b8160405180610140016040529081600082015481526020016001820160009054906101000a900473ffffffffffffffffffffffffffffffffffffffff1673ffffffffffffffffffffffffffffffffffffffff1673ffffffffffffffffffffffffffffffffffffffff1681526020016002820160009054906101000a900473ffffffffffffffffffffffffffffffffffffffff1673ffffffffffffffffffffffffffffffffffffffff1673ffffffffffffffffffffffffffffffffffffffff1681526020016003820154815260200160048201805461132b90615148565b80601f016020809104026020016040519081016040528092919081815260200182805461135790615148565b80156113a45780601f10611379576101008083540402835291602001916113a4565b820191906000526020600020905b81548152906001019060200180831161138757829003601f168201915b505050505081526020016005820160009054906101000a900460ff161515151581526020016006820180546113d890615148565b80601f016020809104026020016040519081016040528092919081815260200182805461140490615148565b80156114515780601f1061142657610100808354040283529160200191611451565b820191906000526020600020905b81548152906001019060200180831161143457829003601f168201915b505050505081526020016007820160009054906101000a900460ff16151515158152602001600882015481526020016009820160009054906101000a900460ff161515151581525050915091509150915091565b6000600e60003373ffffffffffffffffffffffffffffffffffffffff1673ffffffffffffffffffffffffffffffffffffffff16815260200190815260200160002060009054906101000a900460ff1615801561154d57507f000000000000000000000000000000000000000000000000000000000000000073ffffffffffffffffffffffffffffffffffffffff163373ffffffffffffffffffffffffffffffffffffffff1614155b15611584576040517f4074778a00000000000000000000000000000000000000000000000000000000815260040160405180910390fd5b61158e600b613837565b600061159a600b613794565b90506115a6338261384d565b6115b08189613a6a565b6115be818888888888613b0e565b809150509695505050505050565b6115e7838383604051806020016040528060008152506121d5565b505050565b6000600d600083815260200190815260200160002090506007600083815260200190815260200160002054421115611650576040517f62db152f00000000000000000000000000000000000000000000000000000000815260040160405180910390fd5b8060090160009054906101000a900460ff16611698576040517fbb237d0d00000000000000000000000000000000000000000000000000000000815260040160405180910390fd5b670de0b6b3a764000081600301546116b09190615338565b3410156116e9576040517fae39271d00000000000000000000000000000000000000000000000000000000815260040160405180910390fd5b600073ffffffffffffffffffffffffffffffffffffffff166009600084815260200190815260200160002060009054906101000a900473ffffffffffffffffffffffffffffffffffffffff1673ffffffffffffffffffffffffffffffffffffffff16146117bc578060030154600a600084815260200190815260200160002060003373ffffffffffffffffffffffffffffffffffffffff1673ffffffffffffffffffffffffffffffffffffffff16815260200190815260200160002060008282546117b4919061537a565b925050819055505b670de0b6b3a7640000346117d091906154e6565b8160030181905550336009600084815260200190815260200160002060006101000a81548173ffffffffffffffffffffffffffffffffffffffff021916908373ffffffffffffffffffffffffffffffffffffffff1602179055503373ffffffffffffffffffffffffffffffffffffffff167fe684a55f31b79eca403df938249029212a5925ec6be8012e099b45bc1019e5d2346040516118709190614e64565b60405180910390a25050565b60008061188883613dc7565b9050600073ffffffffffffffffffffffffffffffffffffffff168173ffffffffffffffffffffffffffffffffffffffff16036118f9576040517f08c379a00000000000000000000000000000000000000000000000000000000081526004016118f090615563565b60405180910390fd5b80915050919050565b60008073ffffffffffffffffffffffffffffffffffffffff168273ffffffffffffffffffffffffffffffffffffffff1603611972576040517f08c379a0000000000000000000000000000000000000000000000000000000008152600401611969906155f5565b60405180910390fd5b600360008373ffffffffffffffffffffffffffffffffffffffff1673ffffffffffffffffffffffffffffffffffffffff168152602001908152602001600020549050919050565b600e60003373ffffffffffffffffffffffffffffffffffffffff1673ffffffffffffffffffffffffffffffffffffffff16815260200190815260200160002060009054906101000a900460ff16158015611a5f57507f000000000000000000000000000000000000000000000000000000000000000073ffffffffffffffffffffffffffffffffffffffff163373ffffffffffffffffffffffffffffffffffffffff1614155b15611a96576040517f4074778a00000000000000000000000000000000000000000000000000000000815260040160405180910390fd5b6000600d60008481526020019081526020016000209050600073ffffffffffffffffffffffffffffffffffffffff168160010160009054906101000a900473ffffffffffffffffffffffffffffffffffffffff1673ffffffffffffffffffffffffffffffffffffffff1603611b37576040517f353f261b00000000000000000000000000000000000000000000000000000000815260040160405180910390fd5b3373ffffffffffffffffffffffffffffffffffffffff168160020160009054906101000a900473ffffffffffffffffffffffffffffffffffffffff1673ffffffffffffffffffffffffffffffffffffffff1614611bc0576040517f5559881a00000000000000000000000000000000000000000000000000000000815260040160405180910390fd5b65e35fa931a0003414611bff576040517fadd23fc100000000000000000000000000000000000000000000000000000000815260040160405180910390fd5b60008160070160006101000a81548160ff021916908315150217905550818160030181905550338160010160006101000a81548173ffffffffffffffffffffffffffffffffffffffff021916908373ffffffffffffffffffffffffffffffffffffffff160217905550308160020160006101000a81548173ffffffffffffffffffffffffffffffffffffffff021916908373ffffffffffffffffffffffffffffffffffffffff160217905550611cb5600c613e04565b611cc03330856133d3565b3373ffffffffffffffffffffffffffffffffffffffff167f2585951cbbdeb3f2aa941d91bceec195ada2396c62ea27fbb8d68574a2256eb283604051611d069190614e64565b60405180910390a2505050565b60007f0000000000000000000000000000000000000000000000000000000000000000905090565b60606000611d49600b613794565b90506000611d57600c613794565b611d61600b613794565b611d6b9190615615565b90506000808267ffffffffffffffff811115611d8a57611d89614c1d565b5b604051908082528060200260200182016040528015611dc357816020015b611db0614529565b815260200190600190039081611da85790505b50905060005b848110156120fd573073ffffffffffffffffffffffffffffffffffffffff16600d6000600184611df9919061537a565b815260200190815260200160002060020160009054906101000a900473ffffffffffffffffffffffffffffffffffffffff1673ffffffffffffffffffffffffffffffffffffffff16036120ea576000600182611e55919061537a565b90506000600d600083815260200190815260200160002090508060405180610140016040529081600082015481526020016001820160009054906101000a900473ffffffffffffffffffffffffffffffffffffffff1673ffffffffffffffffffffffffffffffffffffffff1673ffffffffffffffffffffffffffffffffffffffff1681526020016002820160009054906101000a900473ffffffffffffffffffffffffffffffffffffffff1673ffffffffffffffffffffffffffffffffffffffff1673ffffffffffffffffffffffffffffffffffffffff16815260200160038201548152602001600482018054611f4b90615148565b80601f0160208091040260200160405190810160405280929190818152602001828054611f7790615148565b8015611fc45780601f10611f9957610100808354040283529160200191611fc4565b820191906000526020600020905b815481529060010190602001808311611fa757829003601f168201915b505050505081526020016005820160009054906101000a900460ff16151515158152602001600682018054611ff890615148565b80601f016020809104026020016040519081016040528092919081815260200182805461202490615148565b80156120715780601f1061204657610100808354040283529160200191612071565b820191906000526020600020905b81548152906001019060200180831161205457829003601f168201915b505050505081526020016007820160009054906101000a900460ff16151515158152602001600882015481526020016009820160009054906101000a900460ff1615151515815250508486815181106120cd576120cc6153f6565b5b60200260200101819052506001856120e5919061537a565b945050505b80806120f5906153ae565b915050611dc9565b508094505050505090565b60606001805461211790615148565b80601f016020809104026020016040519081016040528092919081815260200182805461214390615148565b80156121905780601f1061216557610100808354040283529160200191612190565b820191906000526020600020905b81548152906001019060200180831161217357829003601f168201915b5050505050905090565b6121ac6121a5613312565b8383613e60565b5050565b600a602052816000526040600020602052806000526040600020600091509150505481565b6121e66121e0613312565b836137a2565b612225576040517f08c379a000000000000000000000000000000000000000000000000000000000815260040161221c90615497565b60405180910390fd5b61223184848484613fcc565b50505050565b60606000612245600b613794565b905060008060005b838110156122ed578573ffffffffffffffffffffffffffffffffffffffff16600d600060018461227d919061537a565b815260200190815260200160002060010160009054906101000a900473ffffffffffffffffffffffffffffffffffffffff1673ffffffffffffffffffffffffffffffffffffffff16036122da576001836122d7919061537a565b92505b80806122e5906153ae565b91505061224d565b5060008267ffffffffffffffff81111561230a57612309614c1d565b5b60405190808252806020026020018201604052801561234357816020015b612330614529565b8152602001906001900390816123285790505b50905060005b8481101561267d578673ffffffffffffffffffffffffffffffffffffffff16600d6000600184612379919061537a565b815260200190815260200160002060010160009054906101000a900473ffffffffffffffffffffffffffffffffffffffff1673ffffffffffffffffffffffffffffffffffffffff160361266a5760006001826123d5919061537a565b90506000600d600083815260200190815260200160002090508060405180610140016040529081600082015481526020016001820160009054906101000a900473ffffffffffffffffffffffffffffffffffffffff1673ffffffffffffffffffffffffffffffffffffffff1673ffffffffffffffffffffffffffffffffffffffff1681526020016002820160009054906101000a900473ffffffffffffffffffffffffffffffffffffffff1673ffffffffffffffffffffffffffffffffffffffff1673ffffffffffffffffffffffffffffffffffffffff168152602001600382015481526020016004820180546124cb90615148565b80601f01602080910402602001604051908101604052809291908181526020018280546124f790615148565b80156125445780601f1061251957610100808354040283529160200191612544565b820191906000526020600020905b81548152906001019060200180831161252757829003601f168201915b505050505081526020016005820160009054906101000a900460ff1615151515815260200160068201805461257890615148565b80601f01602080910402602001604051908101604052809291908181526020018280546125a490615148565b80156125f15780601f106125c6576101008083540402835291602001916125f1565b820191906000526020600020905b8154815290600101906020018083116125d457829003601f168201915b505050505081526020016007820160009054906101000a900460ff16151515158152602001600882015481526020016009820160009054906101000a900460ff16151515158152505084868151811061264d5761264c6153f6565b5b6020026020010181905250600185612665919061537a565b945050505b8080612675906153ae565b915050612349565b5080945050505050919050565b7f000000000000000000000000000000000000000000000000000000000000000073ffffffffffffffffffffffffffffffffffffffff163373ffffffffffffffffffffffffffffffffffffffff161461270f576040517f639118f900000000000000000000000000000000000000000000000000000000815260040160405180910390fd5b6001600e60008373ffffffffffffffffffffffffffffffffffffffff1673ffffffffffffffffffffffffffffffffffffffff16815260200190815260200160002060006101000a81548160ff02191690831515021790555050565b6000600d60008381526020019081526020016000209050600081600301549050600073ffffffffffffffffffffffffffffffffffffffff168260010160009054906101000a900473ffffffffffffffffffffffffffffffffffffffff1673ffffffffffffffffffffffffffffffffffffffff1603612814576040517f353f261b00000000000000000000000000000000000000000000000000000000815260040160405180910390fd5b670de0b6b3a7640000816128289190615338565b341015612861576040517fae39271d00000000000000000000000000000000000000000000000000000000815260040160405180910390fd5b8160050160009054906101000a900460ff16156128aa576040517fb626467700000000000000000000000000000000000000000000000000000000815260040160405180910390fd5b6128b3836136cc565b6128be3033856133d3565b7f000000000000000000000000000000000000000000000000000000000000000073ffffffffffffffffffffffffffffffffffffffff166108fc65e35fa931a0009081150290604051600060405180830381858888f1935050505015801561292a573d6000803e3d6000fd5b508160010160009054906101000a900473ffffffffffffffffffffffffffffffffffffffff1673ffffffffffffffffffffffffffffffffffffffff166108fc349081150290604051600060405180830381858888f19350505050158015612995573d6000803e3d6000fd5b503373ffffffffffffffffffffffffffffffffffffffff167f21a1dc2f11af863c61fb151b1942bbe5a469660af93a3b2b13500071bfb56ead84346040516129de929190615649565b60405180910390a2505050565b60606129f6826132c7565b6000600660008481526020019081526020016000208054612a1690615148565b80601f0160208091040260200160405190810160405280929190818152602001828054612a4290615148565b8015612a8f5780601f10612a6457610100808354040283529160200191612a8f565b820191906000526020600020905b815481529060010190602001808311612a7257829003601f168201915b505050505090506000612aa0614028565b90506000815103612ab5578192505050612af8565b600082511115612aea578082604051602001612ad29291906156ae565b60405160208183030381529060405292505050612af8565b612af38461403f565b925050505b919050565b6000670de0b6b3a764000065e35fa931a000612b1991906154e6565b905090565b6000600560008473ffffffffffffffffffffffffffffffffffffffff1673ffffffffffffffffffffffffffffffffffffffff16815260200190815260200160002060008373ffffffffffffffffffffffffffffffffffffffff1673ffffffffffffffffffffffffffffffffffffffff16815260200190815260200160002060009054906101000a900460ff16905092915050565b60003373ffffffffffffffffffffffffffffffffffffffff166009600084815260200190815260200160002060009054906101000a900473ffffffffffffffffffffffffffffffffffffffff1673ffffffffffffffffffffffffffffffffffffffff1603612c9e5760006009600084815260200190815260200160002060006101000a81548173ffffffffffffffffffffffffffffffffffffffff021916908373ffffffffffffffffffffffffffffffffffffffff160217905550670de0b6b3a7640000600d600084815260200190815260200160002060030154612c979190615338565b9050612d5b565b670de0b6b3a7640000600a600084815260200190815260200160002060003373ffffffffffffffffffffffffffffffffffffffff1673ffffffffffffffffffffffffffffffffffffffff16815260200190815260200160002054612d029190615338565b90506000600a600084815260200190815260200160002060003373ffffffffffffffffffffffffffffffffffffffff1673ffffffffffffffffffffffffffffffffffffffff168152602001908152602001600020819055505b3373ffffffffffffffffffffffffffffffffffffffff166108fc829081150290604051600060405180830381858888f19350505050158015612da1573d6000803e3d6000fd5b503373ffffffffffffffffffffffffffffffffffffffff167f1f5acf9de0f79d641b3a98fe391caaf8490bd98efef90c6f59c2efe4ad3701c782604051612de89190614e64565b60405180910390a25050565b60606000612e02600b613794565b905060008060005b83811015612e79578580519060200120600d6000600184612e2b919061537a565b8152602001908152602001600020600401604051612e499190615775565b604051809103902003612e6657600183612e63919061537a565b92505b8080612e71906153ae565b915050612e0a565b5060008267ffffffffffffffff811115612e9657612e95614c1d565b5b604051908082528060200260200182016040528015612ecf57816020015b612ebc614529565b815260200190600190039081612eb45790505b50905060005b848110156131d8578680519060200120600d6000600184612ef6919061537a565b8152602001908152602001600020600401604051612f149190615775565b6040518091039020036131c5576000600182612f30919061537a565b90506000600d600083815260200190815260200160002090508060405180610140016040529081600082015481526020016001820160009054906101000a900473ffffffffffffffffffffffffffffffffffffffff1673ffffffffffffffffffffffffffffffffffffffff1673ffffffffffffffffffffffffffffffffffffffff1681526020016002820160009054906101000a900473ffffffffffffffffffffffffffffffffffffffff1673ffffffffffffffffffffffffffffffffffffffff1673ffffffffffffffffffffffffffffffffffffffff1681526020016003820154815260200160048201805461302690615148565b80601f016020809104026020016040519081016040528092919081815260200182805461305290615148565b801561309f5780601f106130745761010080835404028352916020019161309f565b820191906000526020600020905b81548152906001019060200180831161308257829003601f168201915b505050505081526020016005820160009054906101000a900460ff161515151581526020016006820180546130d390615148565b80601f01602080910402602001604051908101604052809291908181526020018280546130ff90615148565b801561314c5780601f106131215761010080835404028352916020019161314c565b820191906000526020600020905b81548152906001019060200180831161312f57829003601f168201915b505050505081526020016007820160009054906101000a900460ff16151515158152602001600882015481526020016009820160009054906101000a900460ff1615151515815250508486815181106131a8576131a76153f6565b5b60200260200101819052506001856131c0919061537a565b945050505b80806131d0906153ae565b915050612ed5565b5080945050505050919050565b60007f80ac58cd000000000000000000000000000000000000000000000000000000007bffffffffffffffffffffffffffffffffffffffffffffffffffffffff1916827bffffffffffffffffffffffffffffffffffffffffffffffffffffffff191614806132b057507f5b5e139f000000000000000000000000000000000000000000000000000000007bffffffffffffffffffffffffffffffffffffffffffffffffffffffff1916827bffffffffffffffffffffffffffffffffffffffffffffffffffffffff1916145b806132c057506132bf826140a7565b5b9050919050565b6132d081614111565b61330f576040517f08c379a000000000000000000000000000000000000000000000000000000000815260040161330690615563565b60405180910390fd5b50565b600033905090565b816004600083815260200190815260200160002060006101000a81548173ffffffffffffffffffffffffffffffffffffffff021916908373ffffffffffffffffffffffffffffffffffffffff160217905550808273ffffffffffffffffffffffffffffffffffffffff1661338d8361187c565b73ffffffffffffffffffffffffffffffffffffffff167f8c5be1e5ebec7d5bd14f71427d1e84f3dd0314c0f7b2291e5b200ac8c7c3b92560405160405180910390a45050565b8273ffffffffffffffffffffffffffffffffffffffff166133f38261187c565b73ffffffffffffffffffffffffffffffffffffffff1614613449576040517f08c379a0000000000000000000000000000000000000000000000000000000008152600401613440906157fe565b60405180910390fd5b600073ffffffffffffffffffffffffffffffffffffffff168273ffffffffffffffffffffffffffffffffffffffff16036134b8576040517f08c379a00000000000000000000000000000000000000000000000000000000081526004016134af90615890565b60405180910390fd5b6134c58383836001614152565b8273ffffffffffffffffffffffffffffffffffffffff166134e58261187c565b73ffffffffffffffffffffffffffffffffffffffff161461353b576040517f08c379a0000000000000000000000000000000000000000000000000000000008152600401613532906157fe565b60405180910390fd5b6004600082815260200190815260200160002060006101000a81549073ffffffffffffffffffffffffffffffffffffffff02191690556001600360008573ffffffffffffffffffffffffffffffffffffffff1673ffffffffffffffffffffffffffffffffffffffff168152602001908152602001600020600082825403925050819055506001600360008473ffffffffffffffffffffffffffffffffffffffff1673ffffffffffffffffffffffffffffffffffffffff16815260200190815260200160002060008282540192505081905550816002600083815260200190815260200160002060006101000a81548173ffffffffffffffffffffffffffffffffffffffff021916908373ffffffffffffffffffffffffffffffffffffffff160217905550808273ffffffffffffffffffffffffffffffffffffffff168473ffffffffffffffffffffffffffffffffffffffff167fddf252ad1be2c89b69c2b068fc378daa952ba7f163c4a11628f55a4df523b3ef60405160405180910390a46136c78383836001614158565b505050565b6000600d60008381526020019081526020016000209050338160010160006101000a81548173ffffffffffffffffffffffffffffffffffffffff021916908373ffffffffffffffffffffffffffffffffffffffff160217905550338160020160006101000a81548173ffffffffffffffffffffffffffffffffffffffff021916908373ffffffffffffffffffffffffffffffffffffffff16021790555060018160070160006101000a81548160ff021916908315150217905550613790600c613837565b5050565b600081600001549050919050565b6000806137ae8361187c565b90508073ffffffffffffffffffffffffffffffffffffffff168473ffffffffffffffffffffffffffffffffffffffff1614806137f057506137ef8185612b1e565b5b8061382e57508373ffffffffffffffffffffffffffffffffffffffff1661381684610965565b73ffffffffffffffffffffffffffffffffffffffff16145b91505092915050565b6001816000016000828254019250508190555050565b600073ffffffffffffffffffffffffffffffffffffffff168273ffffffffffffffffffffffffffffffffffffffff16036138bc576040517f08c379a00000000000000000000000000000000000000000000000000000000081526004016138b3906158fc565b60405180910390fd5b6138c581614111565b15613905576040517f08c379a00000000000000000000000000000000000000000000000000000000081526004016138fc90615968565b60405180910390fd5b613913600083836001614152565b61391c81614111565b1561395c576040517f08c379a000000000000000000000000000000000000000000000000000000000815260040161395390615968565b60405180910390fd5b6001600360008473ffffffffffffffffffffffffffffffffffffffff1673ffffffffffffffffffffffffffffffffffffffff16815260200190815260200160002060008282540192505081905550816002600083815260200190815260200160002060006101000a81548173ffffffffffffffffffffffffffffffffffffffff021916908373ffffffffffffffffffffffffffffffffffffffff160217905550808273ffffffffffffffffffffffffffffffffffffffff16600073ffffffffffffffffffffffffffffffffffffffff167fddf252ad1be2c89b69c2b068fc378daa952ba7f163c4a11628f55a4df523b3ef60405160405180910390a4613a66600083836001614158565b5050565b613a7382614111565b613ab2576040517f08c379a0000000000000000000000000000000000000000000000000000000008152600401613aa9906159fa565b60405180910390fd5b80600660008481526020019081526020016000209081613ad29190615bc6565b507ff8e1a15aba9398e019f0b49df1a4fde98ee17ae345cb5f6b5e2c27f5033e8ce782604051613b029190614e64565b60405180910390a15050565b60008511613b48576040517fae39271d00000000000000000000000000000000000000000000000000000000815260040160405180910390fd5b65e35fa931a0003414613b87576040517fadd23fc100000000000000000000000000000000000000000000000000000000815260040160405180910390fd5b6040518061014001604052808781526020013373ffffffffffffffffffffffffffffffffffffffff1681526020013073ffffffffffffffffffffffffffffffffffffffff168152602001868152602001858152602001841515815260200183815260200160001515815260200182815260200160001515815250600d60008881526020019081526020016000206000820151816000015560208201518160010160006101000a81548173ffffffffffffffffffffffffffffffffffffffff021916908373ffffffffffffffffffffffffffffffffffffffff16021790555060408201518160020160006101000a81548173ffffffffffffffffffffffffffffffffffffffff021916908373ffffffffffffffffffffffffffffffffffffffff160217905550606082015181600301556080820151816004019081613ccb9190615bc6565b5060a08201518160050160006101000a81548160ff02191690831515021790555060c0820151816006019081613d019190615bc6565b5060e08201518160070160006101000a81548160ff02191690831515021790555061010082015181600801556101208201518160090160006101000a81548160ff0219169083151502179055509050506000811115613d73578060076000888152602001908152602001600020819055505b613d7e3330886133d3565b857fea6f1c3b321caf77e01903d5566b3d970b0903a56ed38453cc609b565a9f2a75333088876000604051613db7959493929190615c98565b60405180910390a2505050505050565b60006002600083815260200190815260200160002060009054906101000a900473ffffffffffffffffffffffffffffffffffffffff169050919050565b60008160000154905060008111613e50576040517f08c379a0000000000000000000000000000000000000000000000000000000008152600401613e4790615d37565b60405180910390fd5b6001810382600001819055505050565b8173ffffffffffffffffffffffffffffffffffffffff168373ffffffffffffffffffffffffffffffffffffffff1603613ece576040517f08c379a0000000000000000000000000000000000000000000000000000000008152600401613ec590615da3565b60405180910390fd5b80600560008573ffffffffffffffffffffffffffffffffffffffff1673ffffffffffffffffffffffffffffffffffffffff16815260200190815260200160002060008473ffffffffffffffffffffffffffffffffffffffff1673ffffffffffffffffffffffffffffffffffffffff16815260200190815260200160002060006101000a81548160ff0219169083151502179055508173ffffffffffffffffffffffffffffffffffffffff168373ffffffffffffffffffffffffffffffffffffffff167f17307eab39ab6107e8899845ad3d59bd9653f200f220920489ca2b5937696c3183604051613fbf9190614662565b60405180910390a3505050565b613fd78484846133d3565b613fe38484848461415e565b614022576040517f08c379a000000000000000000000000000000000000000000000000000000000815260040161401990615e35565b60405180910390fd5b50505050565b606060405180602001604052806000815250905090565b606061404a826132c7565b6000614054614028565b90506000815111614074576040518060200160405280600081525061409f565b8061407e846142e5565b60405160200161408f9291906156ae565b6040516020818303038152906040525b915050919050565b60007f01ffc9a7000000000000000000000000000000000000000000000000000000007bffffffffffffffffffffffffffffffffffffffffffffffffffffffff1916827bffffffffffffffffffffffffffffffffffffffffffffffffffffffff1916149050919050565b60008073ffffffffffffffffffffffffffffffffffffffff1661413383613dc7565b73ffffffffffffffffffffffffffffffffffffffff1614159050919050565b50505050565b50505050565b600061417f8473ffffffffffffffffffffffffffffffffffffffff166143b3565b156142d8578373ffffffffffffffffffffffffffffffffffffffff1663150b7a026141a8613312565b8786866040518563ffffffff1660e01b81526004016141ca9493929190615eaa565b6020604051808303816000875af192505050801561420657506040513d601f19601f820116820180604052508101906142039190615f0b565b60015b614288573d8060008114614236576040519150601f19603f3d011682016040523d82523d6000602084013e61423b565b606091505b506000815103614280576040517f08c379a000000000000000000000000000000000000000000000000000000000815260040161427790615e35565b60405180910390fd5b805181602001fd5b63150b7a0260e01b7bffffffffffffffffffffffffffffffffffffffffffffffffffffffff1916817bffffffffffffffffffffffffffffffffffffffffffffffffffffffff1916149150506142dd565b600190505b949350505050565b6060600060016142f4846143d6565b01905060008167ffffffffffffffff81111561431357614312614c1d565b5b6040519080825280601f01601f1916602001820160405280156143455781602001600182028036833780820191505090505b509050600082602001820190505b6001156143a8578080600190039150507f3031323334353637383961626364656600000000000000000000000000000000600a86061a8153600a858161439c5761439b6154b7565b5b04945060008503614353575b819350505050919050565b6000808273ffffffffffffffffffffffffffffffffffffffff163b119050919050565b600080600090507a184f03e93ff9f4daa797ed6e38ed64bf6a1f0100000000000000008310614434577a184f03e93ff9f4daa797ed6e38ed64bf6a1f010000000000000000838161442a576144296154b7565b5b0492506040810190505b6d04ee2d6d415b85acef81000000008310614471576d04ee2d6d415b85acef81000000008381614467576144666154b7565b5b0492506020810190505b662386f26fc1000083106144a057662386f26fc100008381614496576144956154b7565b5b0492506010810190505b6305f5e10083106144c9576305f5e10083816144bf576144be6154b7565b5b0492506008810190505b61271083106144ee5761271083816144e4576144e36154b7565b5b0492506004810190505b606483106145115760648381614507576145066154b7565b5b0492506002810190505b600a8310614520576001810190505b80915050919050565b60405180610140016040528060008152602001600073ffffffffffffffffffffffffffffffffffffffff168152602001600073ffffffffffffffffffffffffffffffffffffffff168152602001600081526020016060815260200160001515815260200160608152602001600015158152602001600081526020016000151581525090565b6000604051905090565b600080fd5b600080fd5b60007fffffffff0000000000000000000000000000000000000000000000000000000082169050919050565b6145f7816145c2565b811461460257600080fd5b50565b600081359050614614816145ee565b92915050565b6000602082840312156146305761462f6145b8565b5b600061463e84828501614605565b91505092915050565b60008115159050919050565b61465c81614647565b82525050565b60006020820190506146776000830184614653565b92915050565b6000819050919050565b6146908161467d565b811461469b57600080fd5b50565b6000813590506146ad81614687565b92915050565b6000602082840312156146c9576146c86145b8565b5b60006146d78482850161469e565b91505092915050565b600081519050919050565b600082825260208201905092915050565b60005b8381101561471a5780820151818401526020810190506146ff565b60008484015250505050565b6000601f19601f8301169050919050565b6000614742826146e0565b61474c81856146eb565b935061475c8185602086016146fc565b61476581614726565b840191505092915050565b6000602082019050818103600083015261478a8184614737565b905092915050565b600073ffffffffffffffffffffffffffffffffffffffff82169050919050565b60006147bd82614792565b9050919050565b6147cd816147b2565b82525050565b60006020820190506147e860008301846147c4565b92915050565b6147f7816147b2565b811461480257600080fd5b50565b600081359050614814816147ee565b92915050565b60008060408385031215614831576148306145b8565b5b600061483f85828601614805565b92505060206148508582860161469e565b9150509250929050565b600081519050919050565b600082825260208201905092915050565b6000819050602082019050919050565b61488f8161467d565b82525050565b60006148a082614792565b9050919050565b6148b081614895565b82525050565b600082825260208201905092915050565b60006148d2826146e0565b6148dc81856148b6565b93506148ec8185602086016146fc565b6148f581614726565b840191505092915050565b61490981614647565b82525050565b6000610140830160008301516149286000860182614886565b50602083015161493b60208601826148a7565b50604083015161494e60408601826148a7565b5060608301516149616060860182614886565b506080830151848203608086015261497982826148c7565b91505060a083015161498e60a0860182614900565b5060c083015184820360c08601526149a682826148c7565b91505060e08301516149bb60e0860182614900565b506101008301516149d0610100860182614886565b506101208301516149e5610120860182614900565b508091505092915050565b60006149fc838361490f565b905092915050565b6000602082019050919050565b6000614a1c8261485a565b614a268185614865565b935083602082028501614a3885614876565b8060005b85811015614a745784840389528151614a5585826149f0565b9450614a6083614a04565b925060208a01995050600181019050614a3c565b50829750879550505050505092915050565b60006020820190508181036000830152614aa08184614a11565b905092915050565b600080600060608486031215614ac157614ac06145b8565b5b6000614acf86828701614805565b9350506020614ae086828701614805565b9250506040614af18682870161469e565b9150509250925092565b600061014083016000830151614b146000860182614886565b506020830151614b2760208601826148a7565b506040830151614b3a60408601826148a7565b506060830151614b4d6060860182614886565b5060808301518482036080860152614b6582826148c7565b91505060a0830151614b7a60a0860182614900565b5060c083015184820360c0860152614b9282826148c7565b91505060e0830151614ba760e0860182614900565b50610100830151614bbc610100860182614886565b50610120830151614bd1610120860182614900565b508091505092915050565b60006040820190508181036000830152614bf68185614afb565b90508181036020830152614c0a8184614737565b90509392505050565b600080fd5b600080fd5b7f4e487b7100000000000000000000000000000000000000000000000000000000600052604160045260246000fd5b614c5582614726565b810181811067ffffffffffffffff82111715614c7457614c73614c1d565b5b80604052505050565b6000614c876145ae565b9050614c938282614c4c565b919050565b600067ffffffffffffffff821115614cb357614cb2614c1d565b5b614cbc82614726565b9050602081019050919050565b82818337600083830152505050565b6000614ceb614ce684614c98565b614c7d565b905082815260208101848484011115614d0757614d06614c18565b5b614d12848285614cc9565b509392505050565b600082601f830112614d2f57614d2e614c13565b5b8135614d3f848260208601614cd8565b91505092915050565b614d5181614647565b8114614d5c57600080fd5b50565b600081359050614d6e81614d48565b92915050565b60008060008060008060c08789031215614d9157614d906145b8565b5b600087013567ffffffffffffffff811115614daf57614dae6145bd565b5b614dbb89828a01614d1a565b9650506020614dcc89828a0161469e565b955050604087013567ffffffffffffffff811115614ded57614dec6145bd565b5b614df989828a01614d1a565b9450506060614e0a89828a01614d5f565b935050608087013567ffffffffffffffff811115614e2b57614e2a6145bd565b5b614e3789828a01614d1a565b92505060a0614e4889828a0161469e565b9150509295509295509295565b614e5e8161467d565b82525050565b6000602082019050614e796000830184614e55565b92915050565b600060208284031215614e9557614e946145b8565b5b6000614ea384828501614805565b91505092915050565b60008060408385031215614ec357614ec26145b8565b5b6000614ed18582860161469e565b9250506020614ee28582860161469e565b9150509250929050565b60008060408385031215614f0357614f026145b8565b5b6000614f1185828601614805565b9250506020614f2285828601614d5f565b9150509250929050565b60008060408385031215614f4357614f426145b8565b5b6000614f518582860161469e565b9250506020614f6285828601614805565b9150509250929050565b600067ffffffffffffffff821115614f8757614f86614c1d565b5b614f9082614726565b9050602081019050919050565b6000614fb0614fab84614f6c565b614c7d565b905082815260208101848484011115614fcc57614fcb614c18565b5b614fd7848285614cc9565b509392505050565b600082601f830112614ff457614ff3614c13565b5b8135615004848260208601614f9d565b91505092915050565b60008060008060808587031215615027576150266145b8565b5b600061503587828801614805565b945050602061504687828801614805565b93505060406150578782880161469e565b925050606085013567ffffffffffffffff811115615078576150776145bd565b5b61508487828801614fdf565b91505092959194509250565b600080604083850312156150a7576150a66145b8565b5b60006150b585828601614805565b92505060206150c685828601614805565b9150509250929050565b6000602082840312156150e6576150e56145b8565b5b600082013567ffffffffffffffff811115615104576151036145bd565b5b61511084828501614d1a565b91505092915050565b7f4e487b7100000000000000000000000000000000000000000000000000000000600052602260045260246000fd5b6000600282049050600182168061516057607f821691505b60208210810361517357615172615119565b5b50919050565b7f4552433732313a20617070726f76616c20746f2063757272656e74206f776e6560008201527f7200000000000000000000000000000000000000000000000000000000000000602082015250565b60006151d56021836146eb565b91506151e082615179565b604082019050919050565b60006020820190508181036000830152615204816151c8565b9050919050565b7f4552433732313a20617070726f76652063616c6c6572206973206e6f7420746f60008201527f6b656e206f776e6572206f7220617070726f76656420666f7220616c6c000000602082015250565b6000615267603d836146eb565b91506152728261520b565b604082019050919050565b600060208201905081810360008301526152968161525a565b9050919050565b7f4e6f7420656e6465640000000000000000000000000000000000000000000000600082015250565b60006152d36009836146eb565b91506152de8261529d565b602082019050919050565b60006020820190508181036000830152615302816152c6565b9050919050565b7f4e487b7100000000000000000000000000000000000000000000000000000000600052601160045260246000fd5b60006153438261467d565b915061534e8361467d565b925082820261535c8161467d565b9150828204841483151761537357615372615309565b5b5092915050565b60006153858261467d565b91506153908361467d565b92508282019050808211156153a8576153a7615309565b5b92915050565b60006153b98261467d565b91507fffffffffffffffffffffffffffffffffffffffffffffffffffffffffffffffff82036153eb576153ea615309565b5b600182019050919050565b7f4e487b7100000000000000000000000000000000000000000000000000000000600052603260045260246000fd5b7f4552433732313a2063616c6c6572206973206e6f7420746f6b656e206f776e6560008201527f72206f7220617070726f76656400000000000000000000000000000000000000602082015250565b6000615481602d836146eb565b915061548c82615425565b604082019050919050565b600060208201905081810360008301526154b081615474565b9050919050565b7f4e487b7100000000000000000000000000000000000000000000000000000000600052601260045260246000fd5b60006154f18261467d565b91506154fc8361467d565b92508261550c5761550b6154b7565b5b828204905092915050565b7f4552433732313a20696e76616c696420746f6b656e2049440000000000000000600082015250565b600061554d6018836146eb565b915061555882615517565b602082019050919050565b6000602082019050818103600083015261557c81615540565b9050919050565b7f4552433732313a2061646472657373207a65726f206973206e6f74206120766160008201527f6c6964206f776e65720000000000000000000000000000000000000000000000602082015250565b60006155df6029836146eb565b91506155ea82615583565b604082019050919050565b6000602082019050818103600083015261560e816155d2565b9050919050565b60006156208261467d565b915061562b8361467d565b925082820390508181111561564357615642615309565b5b92915050565b600060408201905061565e6000830185614e55565b61566b6020830184614e55565b9392505050565b600081905092915050565b6000615688826146e0565b6156928185615672565b93506156a28185602086016146fc565b80840191505092915050565b60006156ba828561567d565b91506156c6828461567d565b91508190509392505050565b600081905092915050565b60008190508160005260206000209050919050565b600081546156ff81615148565b61570981866156d2565b9450600182166000811461572457600181146157395761576c565b60ff198316865281151582028601935061576c565b615742856156dd565b60005b8381101561576457815481890152600182019150602081019050615745565b838801955050505b50505092915050565b600061578182846156f2565b915081905092915050565b7f4552433732313a207472616e736665722066726f6d20696e636f72726563742060008201527f6f776e6572000000000000000000000000000000000000000000000000000000602082015250565b60006157e86025836146eb565b91506157f38261578c565b604082019050919050565b60006020820190508181036000830152615817816157db565b9050919050565b7f4552433732313a207472616e7366657220746f20746865207a65726f2061646460008201527f7265737300000000000000000000000000000000000000000000000000000000602082015250565b600061587a6024836146eb565b91506158858261581e565b604082019050919050565b600060208201905081810360008301526158a98161586d565b9050919050565b7f4552433732313a206d696e7420746f20746865207a65726f2061646472657373600082015250565b60006158e66020836146eb565b91506158f1826158b0565b602082019050919050565b60006020820190508181036000830152615915816158d9565b9050919050565b7f4552433732313a20746f6b656e20616c7265616479206d696e74656400000000600082015250565b6000615952601c836146eb565b915061595d8261591c565b602082019050919050565b6000602082019050818103600083015261598181615945565b9050919050565b7f45524337323155524953746f726167653a2055524920736574206f66206e6f6e60008201527f6578697374656e7420746f6b656e000000000000000000000000000000000000602082015250565b60006159e4602e836146eb565b91506159ef82615988565b604082019050919050565b60006020820190508181036000830152615a13816159d7565b9050919050565b60008190508160005260206000209050919050565b60006020601f8301049050919050565b600082821b905092915050565b600060088302615a7c7fffffffffffffffffffffffffffffffffffffffffffffffffffffffffffffffff82615a3f565b615a868683615a3f565b95508019841693508086168417925050509392505050565b6000819050919050565b6000615ac3615abe615ab98461467d565b615a9e565b61467d565b9050919050565b6000819050919050565b615add83615aa8565b615af1615ae982615aca565b848454615a4c565b825550505050565b600090565b615b06615af9565b615b11818484615ad4565b505050565b5b81811015615b3557615b2a600082615afe565b600181019050615b17565b5050565b601f821115615b7a57615b4b81615a1a565b615b5484615a2f565b81016020851015615b63578190505b615b77615b6f85615a2f565b830182615b16565b50505b505050565b600082821c905092915050565b6000615b9d60001984600802615b7f565b1980831691505092915050565b6000615bb68383615b8c565b9150826002028217905092915050565b615bcf826146e0565b67ffffffffffffffff811115615be857615be7614c1d565b5b615bf28254615148565b615bfd828285615b39565b600060209050601f831160018114615c305760008415615c1e578287015190505b615c288582615baa565b865550615c90565b601f198416615c3e86615a1a565b60005b82811015615c6657848901518255600182019150602085019450602081019050615c41565b86831015615c835784890151615c7f601f891682615b8c565b8355505b6001600288020188555050505b505050505050565b600060a082019050615cad60008301886147c4565b615cba60208301876147c4565b615cc76040830186614e55565b615cd46060830185614653565b615ce16080830184614653565b9695505050505050565b7f436f756e7465723a2064656372656d656e74206f766572666c6f770000000000600082015250565b6000615d21601b836146eb565b9150615d2c82615ceb565b602082019050919050565b60006020820190508181036000830152615d5081615d14565b9050919050565b7f4552433732313a20617070726f766520746f2063616c6c657200000000000000600082015250565b6000615d8d6019836146eb565b9150615d9882615d57565b602082019050919050565b60006020820190508181036000830152615dbc81615d80565b9050919050565b7f4552433732313a207472616e7366657220746f206e6f6e20455243373231526560008201527f63656976657220696d706c656d656e7465720000000000000000000000000000602082015250565b6000615e1f6032836146eb565b9150615e2a82615dc3565b604082019050919050565b60006020820190508181036000830152615e4e81615e12565b9050919050565b600081519050919050565b600082825260208201905092915050565b6000615e7c82615e55565b615e868185615e60565b9350615e968185602086016146fc565b615e9f81614726565b840191505092915050565b6000608082019050615ebf60008301876147c4565b615ecc60208301866147c4565b615ed96040830185614e55565b8181036060830152615eeb8184615e71565b905095945050505050565b600081519050615f05816145ee565b92915050565b600060208284031215615f2157615f206145b8565b5b6000615f2f84828501615ef6565b9150509291505056fea2646970667358221220734ee8524dd5db56502aded5e1ccb576503dfbac70aeea5238bd27ef4ce2296c64736f6c63430008120033",
  "devdoc": {
    "events": {
      "Approval(address,address,uint256)": {
        "details": "Emitted when `owner` enables `approved` to manage the `tokenId` token."
      },
      "ApprovalForAll(address,address,bool)": {
        "details": "Emitted when `owner` enables or disables (`approved`) `operator` to manage all of its assets."
      },
      "BatchMetadataUpdate(uint256,uint256)": {
        "details": "This event emits when the metadata of a range of tokens is changed. So that the third-party platforms such as NFT market could timely update the images and related attributes of the NFTs."
      },
      "MetadataUpdate(uint256)": {
        "details": "This event emits when the metadata of a token is changed. So that the third-party platforms such as NFT market could timely update the images and related attributes of the NFT."
      },
      "Transfer(address,address,uint256)": {
        "details": "Emitted when `tokenId` token is transferred from `from` to `to`."
      }
    },
    "kind": "dev",
    "methods": {
      "approve(address,uint256)": {
        "details": "See {IERC721-approve}."
      },
      "balanceOf(address)": {
        "details": "See {IERC721-balanceOf}."
      },
      "getApproved(uint256)": {
        "details": "See {IERC721-getApproved}."
      },
      "isApprovedForAll(address,address)": {
        "details": "See {IERC721-isApprovedForAll}."
      },
      "name()": {
        "details": "See {IERC721Metadata-name}."
      },
      "ownerOf(uint256)": {
        "details": "See {IERC721-ownerOf}."
      },
      "safeTransferFrom(address,address,uint256)": {
        "details": "See {IERC721-safeTransferFrom}."
      },
      "safeTransferFrom(address,address,uint256,bytes)": {
        "details": "See {IERC721-safeTransferFrom}."
      },
      "setApprovalForAll(address,bool)": {
        "details": "See {IERC721-setApprovalForAll}."
      },
      "supportsInterface(bytes4)": {
        "details": "See {IERC165-supportsInterface}"
      },
      "symbol()": {
        "details": "See {IERC721Metadata-symbol}."
      },
      "tokenURI(uint256)": {
        "details": "See {IERC721Metadata-tokenURI}."
      },
      "transferFrom(address,address,uint256)": {
        "details": "See {IERC721-transferFrom}."
      }
    },
    "version": 1
  },
  "userdoc": {
    "kind": "user",
    "methods": {},
    "version": 1
  },
  "storageLayout": {
    "storage": [
      {
        "astId": 53,
        "contract": "contracts/NFTMARKETPLACE.sol:NFTMARKETPLACE",
        "label": "_name",
        "offset": 0,
        "slot": "0",
        "type": "t_string_storage"
      },
      {
        "astId": 55,
        "contract": "contracts/NFTMARKETPLACE.sol:NFTMARKETPLACE",
        "label": "_symbol",
        "offset": 0,
        "slot": "1",
        "type": "t_string_storage"
      },
      {
        "astId": 59,
        "contract": "contracts/NFTMARKETPLACE.sol:NFTMARKETPLACE",
        "label": "_owners",
        "offset": 0,
        "slot": "2",
        "type": "t_mapping(t_uint256,t_address)"
      },
      {
        "astId": 63,
        "contract": "contracts/NFTMARKETPLACE.sol:NFTMARKETPLACE",
        "label": "_balances",
        "offset": 0,
        "slot": "3",
        "type": "t_mapping(t_address,t_uint256)"
      },
      {
        "astId": 67,
        "contract": "contracts/NFTMARKETPLACE.sol:NFTMARKETPLACE",
        "label": "_tokenApprovals",
        "offset": 0,
        "slot": "4",
        "type": "t_mapping(t_uint256,t_address)"
      },
      {
        "astId": 73,
        "contract": "contracts/NFTMARKETPLACE.sol:NFTMARKETPLACE",
        "label": "_operatorApprovals",
        "offset": 0,
        "slot": "5",
        "type": "t_mapping(t_address,t_mapping(t_address,t_bool))"
      },
      {
        "astId": 1104,
        "contract": "contracts/NFTMARKETPLACE.sol:NFTMARKETPLACE",
        "label": "_tokenURIs",
        "offset": 0,
        "slot": "6",
        "type": "t_mapping(t_uint256,t_string_storage)"
      },
      {
        "astId": 3032,
        "contract": "contracts/NFTMARKETPLACE.sol:NFTMARKETPLACE",
        "label": "s_endAt",
        "offset": 0,
        "slot": "7",
        "type": "t_mapping(t_uint256,t_uint256)"
      },
      {
        "astId": 3036,
        "contract": "contracts/NFTMARKETPLACE.sol:NFTMARKETPLACE",
        "label": "s_ended",
        "offset": 0,
        "slot": "8",
        "type": "t_mapping(t_uint256,t_bool)"
      },
      {
        "astId": 3040,
        "contract": "contracts/NFTMARKETPLACE.sol:NFTMARKETPLACE",
        "label": "s_highestBidder",
        "offset": 0,
        "slot": "9",
        "type": "t_mapping(t_uint256,t_address)"
      },
      {
        "astId": 3046,
        "contract": "contracts/NFTMARKETPLACE.sol:NFTMARKETPLACE",
        "label": "s_bids",
        "offset": 0,
        "slot": "10",
        "type": "t_mapping(t_uint256,t_mapping(t_address,t_uint256))"
      },
      {
        "astId": 3053,
        "contract": "contracts/NFTMARKETPLACE.sol:NFTMARKETPLACE",
        "label": "s_tokenIds",
        "offset": 0,
        "slot": "11",
        "type": "t_struct(Counter)1629_storage"
      },
      {
        "astId": 3056,
        "contract": "contracts/NFTMARKETPLACE.sol:NFTMARKETPLACE",
        "label": "s_tokensold",
        "offset": 0,
        "slot": "12",
        "type": "t_struct(Counter)1629_storage"
      },
      {
        "astId": 3061,
        "contract": "contracts/NFTMARKETPLACE.sol:NFTMARKETPLACE",
        "label": "s_IdMarketItem",
        "offset": 0,
        "slot": "13",
        "type": "t_mapping(t_uint256,t_struct(MarketItem)3026_storage)"
      },
      {
        "astId": 3065,
        "contract": "contracts/NFTMARKETPLACE.sol:NFTMARKETPLACE",
        "label": "s_members",
        "offset": 0,
        "slot": "14",
        "type": "t_mapping(t_address,t_bool)"
      }
    ],
    "types": {
      "t_address": {
        "encoding": "inplace",
        "label": "address",
        "numberOfBytes": "20"
      },
      "t_address_payable": {
        "encoding": "inplace",
        "label": "address payable",
        "numberOfBytes": "20"
      },
      "t_bool": {
        "encoding": "inplace",
        "label": "bool",
        "numberOfBytes": "1"
      },
      "t_mapping(t_address,t_bool)": {
        "encoding": "mapping",
        "key": "t_address",
        "label": "mapping(address => bool)",
        "numberOfBytes": "32",
        "value": "t_bool"
      },
      "t_mapping(t_address,t_mapping(t_address,t_bool))": {
        "encoding": "mapping",
        "key": "t_address",
        "label": "mapping(address => mapping(address => bool))",
        "numberOfBytes": "32",
        "value": "t_mapping(t_address,t_bool)"
      },
      "t_mapping(t_address,t_uint256)": {
        "encoding": "mapping",
        "key": "t_address",
        "label": "mapping(address => uint256)",
        "numberOfBytes": "32",
        "value": "t_uint256"
      },
      "t_mapping(t_uint256,t_address)": {
        "encoding": "mapping",
        "key": "t_uint256",
        "label": "mapping(uint256 => address)",
        "numberOfBytes": "32",
        "value": "t_address"
      },
      "t_mapping(t_uint256,t_bool)": {
        "encoding": "mapping",
        "key": "t_uint256",
        "label": "mapping(uint256 => bool)",
        "numberOfBytes": "32",
        "value": "t_bool"
      },
      "t_mapping(t_uint256,t_mapping(t_address,t_uint256))": {
        "encoding": "mapping",
        "key": "t_uint256",
        "label": "mapping(uint256 => mapping(address => uint256))",
        "numberOfBytes": "32",
        "value": "t_mapping(t_address,t_uint256)"
      },
      "t_mapping(t_uint256,t_string_storage)": {
        "encoding": "mapping",
        "key": "t_uint256",
        "label": "mapping(uint256 => string)",
        "numberOfBytes": "32",
        "value": "t_string_storage"
      },
      "t_mapping(t_uint256,t_struct(MarketItem)3026_storage)": {
        "encoding": "mapping",
        "key": "t_uint256",
        "label": "mapping(uint256 => struct NFTMARKETPLACE.MarketItem)",
        "numberOfBytes": "32",
        "value": "t_struct(MarketItem)3026_storage"
      },
      "t_mapping(t_uint256,t_uint256)": {
        "encoding": "mapping",
        "key": "t_uint256",
        "label": "mapping(uint256 => uint256)",
        "numberOfBytes": "32",
        "value": "t_uint256"
      },
      "t_string_storage": {
        "encoding": "bytes",
        "label": "string",
        "numberOfBytes": "32"
      },
      "t_struct(Counter)1629_storage": {
        "encoding": "inplace",
        "label": "struct Counters.Counter",
        "members": [
          {
            "astId": 1628,
            "contract": "contracts/NFTMARKETPLACE.sol:NFTMARKETPLACE",
            "label": "_value",
            "offset": 0,
            "slot": "0",
            "type": "t_uint256"
          }
        ],
        "numberOfBytes": "32"
      },
      "t_struct(MarketItem)3026_storage": {
        "encoding": "inplace",
        "label": "struct NFTMARKETPLACE.MarketItem",
        "members": [
          {
            "astId": 3007,
            "contract": "contracts/NFTMARKETPLACE.sol:NFTMARKETPLACE",
            "label": "tokenId",
            "offset": 0,
            "slot": "0",
            "type": "t_uint256"
          },
          {
            "astId": 3009,
            "contract": "contracts/NFTMARKETPLACE.sol:NFTMARKETPLACE",
            "label": "seller",
            "offset": 0,
            "slot": "1",
            "type": "t_address_payable"
          },
          {
            "astId": 3011,
            "contract": "contracts/NFTMARKETPLACE.sol:NFTMARKETPLACE",
            "label": "owner",
            "offset": 0,
            "slot": "2",
            "type": "t_address_payable"
          },
          {
            "astId": 3013,
            "contract": "contracts/NFTMARKETPLACE.sol:NFTMARKETPLACE",
            "label": "price",
            "offset": 0,
            "slot": "3",
            "type": "t_uint256"
          },
          {
            "astId": 3015,
            "contract": "contracts/NFTMARKETPLACE.sol:NFTMARKETPLACE",
            "label": "itemType",
            "offset": 0,
            "slot": "4",
            "type": "t_string_storage"
          },
          {
            "astId": 3017,
            "contract": "contracts/NFTMARKETPLACE.sol:NFTMARKETPLACE",
            "label": "bidding",
            "offset": 0,
            "slot": "5",
            "type": "t_bool"
          },
          {
            "astId": 3019,
            "contract": "contracts/NFTMARKETPLACE.sol:NFTMARKETPLACE",
            "label": "details",
            "offset": 0,
            "slot": "6",
            "type": "t_string_storage"
          },
          {
            "astId": 3021,
            "contract": "contracts/NFTMARKETPLACE.sol:NFTMARKETPLACE",
            "label": "sold",
            "offset": 0,
            "slot": "7",
            "type": "t_bool"
          },
          {
            "astId": 3023,
            "contract": "contracts/NFTMARKETPLACE.sol:NFTMARKETPLACE",
            "label": "timestamp",
            "offset": 0,
            "slot": "8",
            "type": "t_uint256"
          },
          {
            "astId": 3025,
            "contract": "contracts/NFTMARKETPLACE.sol:NFTMARKETPLACE",
            "label": "started",
            "offset": 0,
            "slot": "9",
            "type": "t_bool"
          }
        ],
        "numberOfBytes": "320"
      },
      "t_uint256": {
        "encoding": "inplace",
        "label": "uint256",
        "numberOfBytes": "32"
      }
    }
  }
}